:020000040000FA
:10000000901D00203101000049190000410100004D
:10001000430100004501000047010000000000000E
:100020000000000000000000000000004901000086
:100030004B010000000000004D010000712700008E
:100040004F0100004F0100004F0100004F01000070
:100050004F0100004F0100004F0100004F01000060
:100060004F0100004F0100004F0100004F01000050
:100070004F0100004F0100004F0100004D2A000019
:100080004F0100004F0100004F0100004F01000030
:100090004F0100004F0100004F0100004F01000020
:1000A000D50E00004F0100004F0100004F0100007D
:1000B0004F0100004F0100004F0100004F01000000
:1000C0004F0100004F0100004F0100004F010000F0
:1000D0004F0100004F0100004F0100004F010000E0
:1000E0004F0100004F0100004F0100004F010000D0
:1000F0004F0100004F0100004F0100004F010000C0
:100100004F0100004F0100004F0100004F010000AF
:100110004F0100004F0100004F010000DFF80CD03C
:1001200000F05EFA004800473D450000901D0020A9
:10013000074880470748004730BFFFF7FDFFFEE74D
:10014000FEE7FEE7FEE7FEE7FEE7FEE7FEE7FEE787
:10015000111D00001D0100002DE9F05F0546002083
:1001600092469B4688460646814640241BE0284628
:1001700041464746224600F054FA53465A46C01AB2
:10018000914110D311461846224600F03BFA2D1A31
:1001900067EB01084F4622460120002100F032FAA9
:1001A00017EB00094E41201EA4F10104DFDC484694
:1001B00031462A464346BDE8F09F40EA01039B07CB
:1001C00003D009E008C9121F08C0042AFAD203E0CC
:1001D00011F8013B00F8013B521EF9D27047D2B230
:1001E00001E000F8012B491EFBD270470022F6E720
:1001F00010B513460A4604461946FFF7F0FF20469D
:1002000010BD421C10F8011B0029FBD1801A704759
:100210002DE9FE4F804681EA0300C00F0C46009096
:1002200021F0004123F00045B8EB0200A94105D2BE
:100230004046214690461C460B46024623F00040AD
:10024000104347D0270DC7F30A00C3F30A510290A9
:10025000401A019040286BDAC3F3130040F4801B6E
:100260000098924620B10023D2EB030A63EB0B0BFC
:1002700001985946C0F14002504600F0C3F90646C5
:100280000D4650465946019A00F0DBF910EB080084
:100290006141002487EA115284EAE7731A4340D08F
:1002A000009A62B3019A012A4FEA075215DC001B3B
:1002B00061EB02014FF0004202EA0752CDE9004231
:1002C000001C41F5801132462B4600F012FA03B0B3
:1002D000BDE8F08F40462146F9E7001B61EB0201C3
:1002E000001C41F5801300185B412018A2F500178F
:1002F00047EB030140EAD570B6196D4111E06D0876
:100300004FEA360645EAC0754FEA0752001B61EB1B
:100310000201001C41F5801149084FEA3000001924
:10032000514132462B4603B0BDE8F04F00F0D2B940
:100330000098012240000023D0EB020263EBE0733F
:10034000009821464FEAE074B8EB000061EB04012D
:10035000E9E783F000435BE781F0004158E72DE9CE
:10036000FE4F81EA030404F0004421F000410094B0
:100370004FF0000B23F0004350EA01045ED052EA34
:1003800003045BD0C3F30A54C1F30A552C44A4F20E
:10039000F3340194A0FB0254C1F3130141F4801122
:1003A000C3F3130343F4801301FB024400FB034E29
:1003B000840A970A44EA815447EA8357A4FB0768F2
:1003C00002958D0A05FB07854FEA932C04FB0C541C
:1003D0002705029D4FEA065847EA1637B5EB080590
:1003E0006EEB070C870E920E47EA811742EA8312E2
:1003F000A7FB0201B6EB0B0164EB00042B0D43EAF3
:100400000C335E1844EB1C50DA465146E7FB020100
:10041000C5F313044FEA0B3343EA14534FEA043293
:10042000019C43EA0603A4F10C040294009CCDE96C
:1004300000B400F05EF903B0BDE8F08F0020014683
:10044000F9E72DE9F04D81EA030404F0004B21F0B7
:10045000004514464FF0000A23F0004150EA05021F
:1004600020D054EA01021DD0C5F30A570246C5F355
:100470001303C1F31300C1F30A5640F4801543F48B
:100480008013A7EB0608101BD64608F2FD3873EB65
:10049000050002D308F1010801E092185B41B8F1B0
:1004A000000F03DA00200146BDE8F08D00204FF474
:1004B0008011064684460EE0171B73EB050705D333
:1004C000121B63EB050306434CEA010C49084FEA93
:1004D000300092185B4150EA0107EDD152EA030067
:1004E00012D082EA040083EA0501084305D0101BFC
:1004F000AB4106D20122002306E000224FF0004368
:1005000002E06FF0010253101AEB06004CEB0851A9
:1005100010EB0A0041EB0B01BDE8F04D00F0DAB83A
:100520000EB5C10F80EAE0700844CA07002140F20E
:1005300033438DE80E000A460B4600F0DAF803B0AC
:1005400000BD70B5C1F30A5201F000450024C1F3AB
:10055000130140F2FF3341F480119A4201DA002086
:1005600070BD40F233439A42A2F2334203DC52425E
:1005700000F057F800E090402C43F1D0404270BDAD
:1005800000F0004230F000400AD0C10D01F560716A
:10059000C0F3160042EA0151C208400711437047F8
:1005A00000200146704701F0004330B421F00041C3
:1005B00050EA010206D00A0DA2F56072C1F31301E0
:1005C000002A02DC30BC00207047440F44EAC1041A
:1005D000C100E01830BC00EBC25000F044B800008D
:1005E000064C074D06E0E06840F0010394E8070080
:1005F00098471034AC42F6D300F0D6F8905900007A
:10060000B0590000202A04DB203A00FA02F1002051
:1006100070479140C2F1200320FA03F31943904040
:100620007047202A04DB203A21FA02F000217047AB
:1006300021FA02F3D040C2F120029140084319464A
:100640007047202A06DBCB17203A41FA02F043EA32
:10065000E07306E041FA02F3D040C2F1200291407B
:100660000843194670470029A8BF7047401C49003D
:1006700008BF20F00100704710B4B0FA80FC00FA07
:100680000CF050EA010404BF10BC704749B1CCF132
:10069000200421FA04F411FA0CF118BF01212143BE
:1006A0000843A3EB0C01CB1D4FEA00614FEA102079
:1006B00042BF002010BC704700EBC350104400291B
:1006C000A4BF10BC7047401C490008BF20F00100C7
:1006D00010BC704710B5141E73F1000408DA401CFA
:1006E00041F1000192185B411A4301D120F0010051
:1006F00010BD2DE9F04D92469B4611B1B1FA81F241
:1007000002E0B0FA80F220329046FFF77BFF044609
:100710000F4640EA0A0041EA0B0153465A46084395
:1007200013D0114653EA010019D0C8F140025046D7
:10073000FFF777FF05460E46504659464246FFF7FB
:1007400061FF084305D0012004E020463946BDE89A
:10075000F08D0020054346EAE0762C4337430A98A3
:100760006305E40AA0EB08000022FD0A44EA4754AE
:100770000A3002D500200146E9E701051019694158
:10078000DDE9084500196941BDE8F04DA2E70EB565
:1007900040F2334102910021CDE900110A460B4697
:1007A000FFF7A7FF03B000BD10B502F017F8FFF781
:1007B000B9FC10BD70B54FF08040806A40F0040075
:1007C0004FF0804188621248006820F0300545F003
:1007D00020000F4908600F48806820F000700D4924
:1007E000886001F0C9FF00F08BF8041E01D020469C
:1007F00070BD01F073FA041E01D02046F8E700F046
:100800006DFF041E01D02046F2E70020F0E7000053
:1008100000680040009002403EB50E480068C408E1
:100820000D4802F046F8002210210B4802F04BF868
:1008300001208DF8000001940020029069460648CE
:1008400002F022F8044802F039F804A002F052FB4A
:100850003EBD0000C400002000200140436F6E74C4
:10086000696E756F75732074696D6572207374613C
:10087000727465642E0A000010B5002000F002F8C2
:1008800010BD000010B5044622464FF480610248B6
:10089000FFF7A5FC10BD0000B003002010B5134801
:1008A00002F026F812480068401C1149086008460A
:1008B00000683C2819D1002008600E480068401CE0
:1008C0000C490860084600683C280ED100200860EA
:1008D00009480068401C0849086008460068182854
:1008E00003D1002008600549086010BD00200140C8
:1008F000080000200C0000201000002080000020D4
:1009000010B5064A06490748006802F0E5F8041EDB
:1009100001D0204610BD0020FCE700000C5700006D
:10092000FC560000840000203EB5114800684008D5
:1009300000EB8000C0004FF47A61B0FBF1F40D4889
:1009400001F0B7FF002210210A4801F0BCFF01208E
:100950008DF800000194002002906946054801F0DE
:1009600093FF044801F0AAFF03A002F0C3FA3EBDC2
:10097000C400002000100140436F6E74696E756FF3
:1009800075732074696D6572207374617274656427
:100990002E0A000010B51D4801F0AAFF03F022FC4A
:1009A00003F08CFF1A491B4804F05AF8184A1949F9
:1009B000194803F0AFFB012001F034FE052317486E
:1009C00000210268084600F00EFA032001F02AFE1A
:1009D0003A2218211E2000F029F80223104818217D
:1009E0000268002000F0FFF902230E481821026877
:1009F0002A2000F0F8F903F075FC0B48026809485A
:100A000001680748006801F06DFA10BD0010014050
:100A10001400002050030020440300208000002028
:100A2000100000200C000020080000202DE9F04FED
:100A300085B080460D46164600F078FB074600F06C
:100A40006FFB019000F0A8FB039001990398884286
:100A500001D0012000E0002004903FBBB8F1060F58
:100A600001DC782D02DD05B0BDE8F08FA6F1200095
:100A7000C6B2002408E004EB0610394B1A5C2919B1
:100A8000404602F015FA641C082CF4DB00240AE04E
:100A900004EB06100830324B1A5C291908F10100EA
:100AA00002F006FA641C082CF2DB56E0B8F1800F65
:100AB0000DDA402D0BDA052000FB0780401E0028D0
:100AC00005D4082000FB0750401E002800D5CAE7C7
:100AD000002440E0052C02D14FF0000907E006EBAE
:100AE0008601204A1144081903F074FF81464FF033
:100AF000000A2CE009F0010008B1019800E0039819
:100B00000090009808B90498E8B14FF0000B18E085
:100B1000002002900EE00AFB0753029A991804FB8A
:100B2000078202EB0B00009A01F082FD0298401C44
:100B3000C0B202900298B842EDDB0BF1010000F068
:100B4000FF0BBB45E4DB4FEA69090AF1010ABAF180
:100B5000080FCFDB641C062CBCDB00BF83E7000062
:100B600042500000424B00002DE9F04706460F4678
:100B7000904600240FFA88F50320A0EB48000FFAF6
:100B800080F952E000F0CCFA8246791930195246C9
:100B900001F04EFD00F0C4FA82467919301B52462E
:100BA00001F046FD00F0BCFA82463919701B52462E
:100BB00001F03EFD00F0B4FA8246391B701B52462C
:100BC00001F036FD00F0ACFA8246791B301B52462C
:100BD00001F02EFD00F0A4FA8246791B301952462E
:100BE00001F026FD00F09CFA8246391B701952462E
:100BF00001F01EFD00F094FA824639197019524630
:100C000001F016FD601C04B2B9F1000F05DAA00076
:100C1000801D48440FFA80F907E0601B80000A300D
:100C200048440FFA80F9681E05B2AC42AADDBDE85F
:100C3000F0872DE9F04707460C46164604EB0608F8
:100C400000F06EFA8146002C01DA002000E0204618
:100C5000054605E04A462946384601F0E9FC6D1C88
:100C6000B8F1400F01DA404600E04020A842F1DC34
:100C7000BDE8F087F8B506460D4614466000401CF6
:100C8000C2B2291B3046FFF7D4FF0020E2B2032393
:100C900029460090304600F001F8F8BD2DE9FE4FDE
:100CA00006460F4690469A46DDF83090C8F1010B93
:100CB000012002904FEA480040420190002445463E
:100CC00000F02EFA009034E0BBF1000F05DB6D1E42
:100CD0000198801C019001988344641C0298801C38
:100CE0000290029883440AF0010078B16B005B1C0B
:100CF0004B44DAB2791B3019FFF79BFF63005B1C92
:100D00004B44DAB2391B7019FFF793FF0AF0020067
:100D100078B16B005B1C4B44DAB2791B301BFFF7D8
:100D200088FF63005B1C4B44DAB2391B701BFFF772
:100D300080FFAC42C8DBBDE8FE8F2DE9FF4F85B0D8
:100D400081464FF0000AD3460798A0EB09050699A3
:100D50000898461A1FFA89F00390069880B202900C
:100D6000002D01DD012705E00DB9002702E04FF05D
:100D7000FF376D42002E02DD4FF0010806E016B984
:100D80004FF0000802E04FF0FF387642B54201DD37
:100D90002C4600E03446002004901DE000F0C0F92D
:100DA00002460190DDE9021001F042FCAA44B3447E
:100DB000A24505DDAAEB040A0398384480B20390EB
:100DC000A34505DDABEB040B0298404480B20290D2
:100DD0000498401C80B20490611C04988842DDDDB8
:100DE00009B0BDE8F08F2DE9F05F074688469146CF
:100DF0001D464FF0000B00F099F98246BAF1000F42
:100E00002ED1002429E0281B401EC1B20A2003F085
:100E100049FDB9FBF0F00A21B0FBF1F201FB12062B
:100E2000BBF1000F0DD1681EA0420ADD3EB90820BB
:100E300000FB048120223846FFF7F8FD0BE04FF05D
:100E4000010B06F13000C2B2082000FB04813846D5
:100E5000FFF7ECFD00BF601CC4B2AC42D3DB31E055
:100E600000242DE0281B401EC1B20A2003F01AFD09
:100E7000B9FBF0F00A21B0FBF1F201FB1206BBF165
:100E8000000F0FD1681EA0420CDD4EB90AEB4A01DB
:100E9000490001FB047030224146FFF7C7FD0DE019
:100EA0004FF0010B06F13001CAB20AEB4A014900CA
:100EB00001FB04704146FFF7B9FD00BF601CC4B2DE
:100EC000AC42CFDBBDE8F09F10B501F00DF900F0AA
:100ED000AEFD10BD10B5002000F07EF810BD000082
:100EE0000246106808B93B4800E000200146107A2D
:100EF000062830D2DFE800F0030C151C23285068C8
:100F0000486150684860506808675068C86725E0C5
:100F10005068086150684860506808675068C86742
:100F20001CE050688860506808675068C86715E022
:100F3000506888605068C8665068C8670EE050689E
:100F400048605068C86609E0506888605068C866A4
:100F50005068886702E06FF00200704700BF507A67
:100F600020B1012811D002282DD11DE0086E536850
:100F700098430866486E536898434866D1F8B800AD
:100F800053689843C1F8B80020E0086E53681843CE
:100F90000866486E536898434866D1F8B8005368AD
:100FA0001843C1F8B80011E0086E5368984308660A
:100FB000486E536818434866D1F8B80053689843A0
:100FC000C1F8B80002E06FF00200C6E700BF0020E1
:100FD000C3E70000008000402DE9F04104460CB951
:100FE000134800E0002007463D6CBD6400261BE06E
:100FF00005F00100B0B1C4EBC4000E4901EBC00024
:1010000050F8260070B1C4EBC4020B4B03EBC202D4
:1010100052F82600C4EBC4020B4603EBC20252F89E
:1010200026108847761C6D08002DE1D1BDE8F081BF
:10103000008000401C0D0020540D002010B5002041
:10104000264908604FF48050486000204872012013
:1010500008720846FFF744FF204800F049F80020D6
:101060001F4908604FF4005048600020487201207A
:1010700008720846FFF734FF194800F039F80020DD
:10108000184908601020486000204872012008724A
:101090000846FFF725FF134800F036F800201249F4
:1010A0000860082048600020487201200872084645
:1010B000FFF716FF0C4800F01BF800200B490860F2
:1010C0000420486000204872012008720846FFF79B
:1010D00007FF064800F00CF810BD0000CC0000200F
:1010E000D8000020E4000020F0000020FC000020D8
:1010F00002680AB9034A00E00022114642680A6207
:10110000704700000080004002680AB9034A00E00E
:10111000002211464268CA6170470000008000400A
:1011200001480078704700005D0000200148007809
:10113000704700006A00002070B52DED028B86B06C
:1011400004460D46164603950296124890ED020A93
:1011500010EE101A0846FFF713FA41EC180B0D4871
:10116000C0680C4A00905168B0EE480AF0EE680A78
:1011700002AB106803AA00F0CDFD0398049002981A
:101180000590DDE90401C4E9000106B0BDEC028B65
:1011900070BD000044000020014800787047000046
:1011A0006900002070B504460E46074850F83450D8
:1011B000014601EBC40003F023FBA86A18B13146D5
:1011C0002846AA6A904770BDB00B00202DE9F04771
:1011D00004460D4616465948844201D1002006E0D7
:1011E0005748844201D1012001E04FF0FF30824690
:1011F0003146204601F0E0F8071E02D03846BDE82F
:10120000F087606A40F02000606200204D4901EBE9
:10121000CA014871206001202060002020636060C6
:10122000206800F44070B0F5407F63D0206840F43F
:10123000806020604FF0000951E04FF00108206805
:1012400020F040002060052003F0B6F9206800F48B
:101250008070B0F5807F01D14FF00008206820F049
:1012600080002060052003F0A7F9206800F40070DA
:10127000B0F5007F01D14FF00008206840F08000F9
:101280002060052003F098F9206800F40070B0F5A4
:10129000007F01D04FF00008206840F0400020603F
:1012A000052003F089F9206800F48070B0F5807F94
:1012B00001D04FF00008B8F1000F0ED0206820F0E8
:1012C00080002060052003F077F9206840F080005E
:1012D0002060052003F070F904E009F10109B9F17B
:1012E000100FAADB00BFB8F1000F02D16FF00800A9
:1012F00085E700BF002020600120206000202063DF
:1013000060601148854203D1206840F400402060AD
:101310000020E0606061A068A0602069206100207A
:101320002064E06940F08000E061606A40F0800085
:1013300060622946204600F0F5F860E700D00140E1
:1013400000E00140B00B002040E13300F0B504465E
:10135000059D1E460BB90020F0BDB3F5807F02DD70
:101360006FF00200F8E74FF40040A060A068A060B2
:10137000206800F0010010B96FF00400ECE720686D
:1013800040F0020020602362206B40F001002063E7
:1013900000BF606800F010000028FAD141F00100A1
:1013A000E06212E0A06800F4FE4030B1206B40F033
:1013B000040020636FF00800CEE7606800F00200D0
:1013C00018B9E06A02F8010B5B1E002BEADCA0688A
:1013D00000F4FE4030B1206B40F0040020636FF059
:1013E0000800B9E725B1206B40F00200206303E05C
:1013F000206B40F00400206300BFA06847F601772F
:1014000038400028F9D00120A06045B900BFA0688D
:1014100047F6407738400028F9D04020A060A06807
:1014200000F4FE4010B16FF0080095E7304693E7F6
:10143000F0B50446059D1E460BB90020F0BD4FF4E3
:101440000040A060A068A060206840F0020020601A
:1014500000BF606800F010000028FAD121F0010000
:10146000E06203E012F8010BE0625B1E002B04DD7A
:10147000606800F010000028F4D0206B40F00100FC
:1014800020631CE0A06800F4FE4080B1206B20F0D7
:1014900002002063206B40F00400206300BFA068BE
:1014A00000F040000028FAD06FF00800C6E760683E
:1014B00000F0100018B912F8010BE0625B1E002B5F
:1014C000E0DC25B1206B40F00200206303E0206BDC
:1014D00040F00400206300BFA06847F60177384061
:1014E0000028F9D00120A0603DB900BFA06800F03D
:1014F00040000028FAD04020A060A06800F4FE4020
:1015000010B16FF0080099E7304697E70021C160FD
:1015100041618168816001690161002101600121EF
:10152000016070472DE9FF5F06460F463848874245
:101530004ED1304600F038FF03904FF47A71039893
:10154000B0FBF1F03349B1FBF0F500206421B0FBB2
:10155000F1F0381A02900298B0F57A7F04D26FF059
:10156000020004B0BDE8F09F4FF47A710298B0FB1E
:10157000F1F02849B1FBF0F0019005F1BD00B0FB9E
:10158000F5F0401E009005F15900B0FBF5F0A0F118
:10159000010A691E01980844B0FBF5F0A0F1020BA6
:1015A000ABEB0A010098814201D2009801E0ABEB5D
:1015B0000A0081465446B9F1FF0F01D8FF2C02D929
:1015C0006FF00200CDE749EA0420F063124F00BF3C
:1015D000304600F0E9FEB0FBF7F80120C0EB5804FC
:1015E000C0EB580908F0010000B1641CB4F5007F9D
:1015F00002D36FF00200B4E7B9F1000F02D16FF02F
:101600000200AEE7C6F83490B4630020A9E70000FA
:1016100040E1330040420F00801A060070B50446D6
:101620001948844201D1002006E01848844201D1C3
:10163000012001E04FF0FF3005460020E0606061CE
:10164000A068A06020692061E06940F08000E0614E
:10165000606A40F0800060620D4850F8350038B193
:101660002046FFF753FF6FF00E012846FFF79AFD63
:1016700000202060204600F0C5FE061E01D0304646
:1016800070BD0020FCE7000000D0014000E00140F8
:10169000B00B002010B50D49062000F069F90121BA
:1016A000062001F05DFC062001F04CFCFFF73CF940
:1016B0000749072000F05CF90021072001F050FCE9
:1016C000072001F03FFCFFF7A7F810BD95090000C7
:1016D0009D08000010B5FFF7F7FB10BD70B50025A1
:1016E00000240DE0204600F015F804EB4401074A01
:1016F00002EB8100FFF7F4FB08B16FF00705641CF3
:10170000034800688442EDD3284670BDEC560000C3
:10171000F856000010B5044604EB4401024A02EBFF
:101720008100FFF7E5FC10BDEC5600007CB50446D7
:101730000D4616463B2000F073F88DF800003C2063
:1017400000F06EF88DF801003D2000F069F88DF88A
:1017500002003E2000F064F88DF803003F2000F006
:101760005FF88DF80400402000F05AF88DF805006D
:10177000BFB99DF801009DF8001040EA012000B2B9
:1017800020809DF803009DF8021040EA012000B27D
:1017900028809DF805009DF8041040EA012000B261
:1017A000308038467CBD10B580216B2000F0A2F857
:1017B0004FF47A7002F000FF00216B2000F09AF8DD
:1017C000032000F055F8002000F04AF8322000F025
:1017D00074F80021382000F08DF800216A2000F014
:1017E00089F8FF21232000F085F88021372000F0C0
:1017F00081F8752000F014F80446682C0BD1012103
:101800006B2000F077F800216C2000F073F8322094
:1018100000F053F801E0012010BD0020FCE70000BB
:101820003EB504460CA0006802908DF808400020E8
:101830000190012302AAD02100900848FFF7F8FD8B
:101840000020012301AAD12100900448FFF77EFD6A
:101850009DF804003EBD000000D1000000D0014012
:1018600010B50446E006010E1C2000F043F810BD40
:1018700010B50446E006010E1B2000F03BF810BD39
:1018800070B504460025BC2C01DB012510E0622C5C
:1018900001DB02250CE02A2C01DB032508E0142CD7
:1018A00001DB042504E00A2C01DB052500E0062508
:1018B00029461A2000F01EF870BD70B50446B4F534
:1018C0007A7F01DD4FF47A74042C00DA04244FF49B
:1018D0007A7090FBF4F0401EC5B22946192000F042
:1018E00009F80546264604EBD671C1F34F00FFF711
:1018F000C7FF70BD7CB504460D468DF804408DF8D9
:1019000005500020022301AAD02100900748FFF7CC
:101910008FFD07490860022806D00846016805A027
:1019200000F014F900BFFEE700207CBD00D00140AC
:10193000000000204572726F722077726974696EC0
:10194000672025640A00000000BF704710B54FF4FF
:101950008E7204490448FEF730FC034803490860CE
:1019600010BD000000000000000C002008ED00E0A9
:1019700070B504460D4604F110060C4800680C4989
:10198000884201D0FFF7E2FF094840F82650204680
:10199000002809DB00F01F0201219140420992005A
:1019A00002F1E022C2F8001100BF70BD08ED00E0B6
:1019B000000C002070B5002415E004F1B001C8B29D
:1019C00001F08AFA002001F087FA102001F084FA71
:1019D000002504E0002001F086FA681CC5B2802DC5
:1019E000F8DB601CC4B2082CE7DB70BD2DE9F041C8
:1019F00005462F46002416E004F1B001C8B201F0FC
:101A00006BFA002001F068FA102001F065FA002658
:101A100005E017F8010B01F066FA701CC6B2802EC3
:101A2000F7DB601CC4B2082CE6DBBDE8F08110B522
:101A3000AE2001F051FA202001F04EFA102001F002
:101A40004BFAB02001F048FAC82001F045FA002016
:101A500001F042FA102001F03FFA402001F03CFA78
:101A6000812001F039FAFF2001F036FAA12001F0BF
:101A700033FAA62001F030FAA82001F02DFA3F2019
:101A800001F02AFAA42001F027FAD32001F024FA69
:101A9000002001F021FAD52001F01EFAF02001F01B
:101AA0001BFAD92001F018FA222001F015FADA20E9
:101AB00001F012FA122001F00FFADB2001F00CFA0B
:101AC000202001F009FA8D2001F006FA142001F01F
:101AD00003FAAF2001F000FAFFF76CFF10BD000021
:101AE00070B504460E461EB11448FFF70DFB02E028
:101AF0001248FFF7FDFA1248FFF7FAFA002513E043
:101B00001048FFF7F5FA04F0800018B10E48FFF70F
:101B1000FBFA02E00C48FFF7EBFA0A48FFF7F4FA89
:101B20006006040E681CC5B2082DE9DB0448FFF707
:101B3000EBFA0248FFF7E8FA70BD0000D800002079
:101B4000CC000020FC000020F00000200FB42DE9A4
:101B5000F8434FF00009002609A80090A5E0089876
:101B600000780A2870D00D286FD025286ED10898EB
:101B7000401C089008980078632876D0642804D028
:101B8000732865D0782879D129E0009880C8009022
:101B90003D46002404E0601CC4B20A2095FBF0F529
:101BA000002DF8D126443D4616E0611E0A2002F0C1
:101BB00078FCB5FBF0F000F0FF08611E0A2002F08F
:101BC00070FCB5FBF0F100FB115508F13001C8B213
:101BD00002F072FC601EC4B2002CE6D14FE0009807
:101BE00080C800903D46002406E0601CC4B2284630
:101BF000E91705EB11710D11002DF6D126443D4674
:101C00001FE0611E102002F04CFCB5FBF0F000F06C
:101C1000FF08611E102002F044FCB5FBF0F100FB50
:101C20001155B8F1090F05DC08F13001C8B202F016
:101C300043FC04E008F15701C8B202F03DFC601E0D
:101C4000C4B2002CDDD11AE01BE01FE023E00CE061
:101C5000009850F8049B0090484602F063FC484608
:101C6000FEF7CFFA06440AE008E0009911F8042BC9
:101C7000D0B2009102F020FC761C00E000BF00BF53
:101C80000FE00A2002F018FC761C0AE00D2002F09A
:101C900013FC761C05E00899087802F00DFC761C10
:101CA00000BF00BF0898401C0890089800780028E2
:101CB0007FF455AF0848006808303F2802DB002059
:101CC000054908600020009001F0E2F83046BDE8C8
:101CD000F8035DF814FB00006400002070B50025D7
:101CE00000240AE004EB4401074A02EB8100FFF7FD
:101CF000F7F808B16FF00705641C044800688442D7
:101D0000F0D3284670BD0000DC560000E856000005
:101D1000002070472DE9F0432DED108B83B006466F
:101D20000F4614461D46B0EE408AF0EE608ADDF89C
:101D300068802868C01B40432168891B2268921B69
:101D400001FB02000BEE100AB8EECB0A02F07AFD9E
:101D500010EE109A4846FEF713FC41EC190B21686F
:101D6000881BFEF7DDFB41EC1C0B2968C81BFEF746
:101D7000D7FB41EC1D0BB0EE4C1AF0EE6C1AB0EE36
:101D80004D0AF0EE6D0A01F06BFAB0EE40AAF0EEEB
:101D900060AAB8F1000F52D053EC182B51EC1A0B7B
:101DA000FEF736FACDE900019DED000B01F050FB86
:101DB000B0EE40FAF0EE60FA53EC192B51EC1F0B29
:101DC000FEF7CDFA41EC1D0B3046FEF7A9FB41ECC6
:101DD0001E0B53EC1D2BFEF71BFA41EC1C0BFEF700
:101DE000B0FB206053EC182B51EC1A0BFEF710FAE5
:101DF00041EC1F0BB0EE4F0AF0EE6F0A01F08CFBC6
:101E0000B0EE40EAF0EE60EA53EC192B51EC1E0BF9
:101E1000FEF7A5FA41EC1C0B3846FEF781FB41ECBE
:101E20001D0B53EC1C2BFEF7F3F9CDE900019DEDE2
:101E3000000B51EC100BFEF784FB28604DE053ECD7
:101E4000182B51EC1A0BFEF784FA41EC1F0BB0EE85
:101E50004F0AF0EE6F0A01F0FBFA8DED000B53EC28
:101E6000192B9DED000B51EC100BFEF778FA41ECAD
:101E70001D0B3046FEF754FB41EC1E0B53EC1D2BA3
:101E8000FEF7C6F941EC1C0BFEF75BFB206053EC40
:101E9000182B51EC1A0BFEF75CFACDE900019DED11
:101EA000000B01F039FBB0EE40FAF0EE60FA53ECB3
:101EB000192B51EC1F0BFEF752FA41EC1D0B384663
:101EC000FEF72EFB41EC1E0B53EC1D2BFEF7A0F989
:101ED00041EC1C0BFEF735FB286003B0BDEC108B0A
:101EE000BDE8F083F0B52DED028B8DB007460C46B2
:101EF000154600BF68207849086027204860C4EB79
:101F0000041040003C2190FBF1F0C7EB071100EBFF
:101F1000410000EE100AB8EEC00A7048D0ED000A89
:101F200030EE200AB0EE408A6B4A516810680122F8
:101F300000F008FC68484068694B1B68C01A00F153
:101F40000C026548016801A8FFF7F6F8DDE9010118
:101F5000CDE90B01DFF880C1DDE90B23DCF80410CB
:101F6000DCF80000FEF7E9FE05EB450040003C21EF
:101F700090FBF1F004EB440100EB410000EE100A8D
:101F8000B8EEC00A5548D0ED000A30EE200AB0EE97
:101F9000408A514A51681068012200F0D3FB4E4834
:101FA00040684F4B1B68C01A821D4B48016801A84E
:101FB000FFF7C2F8DDE90101CDE90901DFF818C139
:101FC000DDE90923DCF80410DCF80000FEF7B5FEBB
:101FD00005EB4502520000EE902AF8EEE00A3F4A77
:101FE00092ED001A70EE810AB0EE600A3A4A51682A
:101FF0001068012200F0A6FB37484068384B1B6888
:10200000C01A821C3448016801A8FFF795F8DDE981
:102010000101CDE90701DFF8C0C0DDE90723DCF8E5
:102020000410DCF80000FEF788FE00263CE0C6EB5A
:102030000612520000EE902AF8EEE00A274A92EDCE
:10204000001A70EE810AB0EE600A234A51681068E7
:10205000012200F077FB20484068214B1B68C01A22
:10206000421C1D48016801A8FFF766F8DDE901017F
:10207000CDE9050118484068194B1B68C01A401C7F
:10208000184B1B68C2181448016801A8FFF754F8E0
:10209000DDE90101CDE90301DDE90323DDE9050106
:1020A000FEF74BFE701CC6B20C2EC0DB0A4A51680C
:1020B00010680222FEF7DEFD074A51681068084AE0
:1020C0001268FEF751FD00F0E3FEFEF7D5FB0DB000
:1020D000BDEC028BF0BD00006C0000207C000020F5
:1020E000740000207800002010B5FEF7A7FF10BD97
:1020F00000F0006149B120F000604FF08041896C30
:1021000001434FF08042916406E04FF08041496AFC
:1021100001434FF080425162704700F0006149B1C5
:1021200020F000604FF08041896C81434FF0804285
:10213000916406E04FF08041496A81434FF080424C
:10214000516270472DE9F041054688464FF08040C6
:10215000806800F460674FF08040806A20F00700DC
:10216000401D4FF080418862002D57D0032D04D0D0
:10217000062D0DD0092D69D12BE04FF080408068ED
:1021800020F4606040F4C0604FF08041886060E0FF
:102190004FF08040806840F400304FF0804188600C
:1021A000481100F0E9F818B16FF00900BDE8F081BE
:1021B0006F48006940F400406D4908614FF080406D
:1021C000806820F4606040F440604FF08041886097
:1021D0003FE04FF08040806840F400304FF0804195
:1021E0008860481100F0C8F810B16FF00900DDE711
:1021F0005F48006940F400405D4908610846806915
:1022000040F0100088614FF08040806820F46060EA
:1022100040F440604FF0804188601AE04FF0804009
:10222000806840F480204FF080418860081100F001
:10223000A3F810B16FF00900B8E74FF08040806854
:1022400020F460604FF08041886002E06FF002008F
:10225000ACE700BF4FF4005000F08EF868B14FF0CB
:102260008040806820F4606007F4606108434FF0AC
:10227000804188606FF0090098E70DB3032D04D00A
:10228000062D0BD0092D1CD111E04FF08040806845
:1022900020F480204FF08041886012E04FF08040B1
:1022A000806820F480204FF08041886009E04FF082
:1022B0008040806820F480204FF08041886000E0FA
:1022C00000BF00BF00F058FA4FF080408068C0F3B4
:1022D00082142848006800F03006A6B94CB94FF0C7
:1022E0008040806A20F00700801C4FF080418862A7
:1022F0003CE04FF08040806A20F00700401C4FF027
:102300008041886232E0102E12D13CB9B006806A5A
:1023100020F00700801CB106886227E04FF0804063
:10232000806A20F00700401C4FF0804188621DE069
:102330004CB94FF08040806A20F00700001D4FF03C
:102340008041886212E0012C07D1A007806A20F04A
:102350000700801CA107886208E04FF08040806A77
:1023600020F00700401C4FF08041886200201DE7EC
:10237000006000400068004010B504464FF47A70D9
:1023800002F00AFA00BF4FF080408068204018B188
:1023900002F028FA002010BD02F04EF9801D00283E
:1023A000F1D06FF00900F6E70146024800684008E6
:1023B00070470000C400002070B504460D460D486B
:1023C000844206D14014FFF7A8FE0B48FEF788FDB3
:1023D0000DE00A48844207D14FF08050FFF79DFE80
:1023E0000748FEF77DFD02E06FF0010070BD0020A0
:1023F000FCE7000000D001406457000000E001400D
:10240000705700003EB504461748844210D10020A2
:1024100000900190029015480068009013484068B1
:1024200001906014FFF764FE6846FEF759FD17E05F
:102430000F48844211D100200090019002900D4875
:10244000006800900B48406801904FF08050FFF703
:102450004FFE6846FEF744FD02E06FF001003EBD0E
:102460000020206000BFFAE700D001406457000060
:1024700000E001407057000070B504460D463DB1C4
:10248000286828B10F48844202D10F48FEF728FD82
:102490000C48844204D14FF40040FFF73EFE0EE0AA
:1024A0000A48844204D14FF48030FFF736FE06E03C
:1024B0000748844203D14FF40030FFF72EFE00207E
:1024C00070BD0000000001401057000000100140E6
:1024D0000020014070B505460C461D48854211D1CB
:1024E0004015FFF71AFE207818B91A48FEF7F8FCD5
:1024F00002E06FF0020070BD6078012802D116483A
:10250000FEF7EEFC154885421FD10015FFF705FECA
:10251000207818B91248FEF7E3FC10E02078012873
:1025200003D11048FEF7DCFC09E02078022803D133
:102530000D48FEF7D5FC02E06FF00200DBE76078A3
:10254000012802D10948FEF7CBFC0020D3E70000A8
:1025500000200440285700001C57000000300440B1
:10256000405700004C5700005857000034570000F7
:1025700000B503460748834203D14015FFF7B8FD75
:1025800005E00548834202D10015FFF7B1FD0020A8
:1025900000BD000000200440003004400149C86034
:1025A000704700004400002010B52DED088BB0EE00
:1025B000408AB5EEC08AF1EE10FA02D19FED120BFF
:1025C00015E018EE100AFDF7DBFF41EC1B0B9FED49
:1025D000100B53EC102BFDF7C2FE41EC1A0B9FEDD4
:1025E0000E0B53EC102BFDF72CFF41EC100BB0EE53
:1025F000409AF0EE609A51EC190BFDF7D4FF0849B0
:102600008860BDEC088B10BD0000000000000000D9
:102610006E861BF0F9210940000000000080664032
:102620004400002001490870704700006A00002043
:10263000F0B514467F2801DC3F2900DDF0BD3B4AA0
:102640001278C2B3DCB1CD1701EB5575ED10384EE1
:1026500006EBC5152D5C0B46CE1701EB5676F61032
:10266000A1EBC6070126BE4035430A46CE1701EB53
:102670005676F6102E4F07EBC616355454E0CD179C
:1026800001EB5575ED102A4E06EBC5152D5C0B467A
:10269000CE1701EB5676F610A1EBC6070126BE4019
:1026A000B5430A46CE1701EB5676F610204F07EBDE
:1026B000C616355438E0FFE7DCB1CD1701EB557590
:1026C000ED101C4E06EBC5152D5C0B46CE1701EB2D
:1026D0005676F610A1EBC6070126BE4035430A46E2
:1026E000CE1701EB5676F610124F07EBC61635548F
:1026F0001AE0CD1701EB5575ED100E4E06EBC51522
:102700002D5C0B46CE1701EB5676F610A1EBC607F3
:102710000126BE40B5430A46CE1701EB5676F610A9
:10272000044F07EBC616355400BF87E75C00002056
:10273000B0030020B0070020014A106051607047CC
:102740004400002070B52DED028B05460E46B0EE1C
:10275000408A144631462846FFF7EEFF2046FFF731
:102760001DFFB0EE480AFFF71FFFBDEC028B70BDE6
:1027700000B501F08BFF00BD30B54FF08044A46878
:1027800004F46063B3F5406F02D14FF4004011E0F0
:10279000B3F5C06F02D14FF4FA500BE00A4C246835
:1027A00004F0300109B9094804E0102901D10848B2
:1027B00000E008484FF08044A468C4F3821220FA75
:1027C00002F4054D2C6030BD0068004000366E01FB
:1027D000006CDC0200D8B805C400002010B5264803
:1027E000264908602648006820F480702449086063
:1027F00022488030006840F4700020498031086031
:1028000000BF00BF00BFBFF34F8F00BF00BF00BFBE
:1028100000BF00BF00BFBFF36F8F00BF00BF00BF8E
:1028200018490020FFF78EFC2020FFF761FC4020B4
:10283000FFF75EFC8020FFF75BFC4FF40070FFF7B2
:1028400057FC4FF48060FFF753FC4FF40050FFF744
:102850004FFC4FF40040FFF74BFC4FF48030FFF784
:1028600047FC4FF40030FFF743FC4FF08050FFF778
:102870003FFCFDF79FFF10BD0000000008ED00E0E9
:10288000003000400000014010B50246106920F001
:1028900047000B7803F00703184340248B6804EAD1
:1028A00083131843106101201060486850600020B5
:1028B00010BD016921F0800101617047016941F09B
:1028C0008001016170472DE9F04104460D4616462E
:1028D00031462046FFF7D0FD071E02D03846BDE83E
:1028E000F081002020610120E06025613846F6E794
:1028F0000121C160704700001FB5404800F020FA78
:102900000F20002807DB00F01F02012191403C4A04
:10291000430942F8231000BF0F20002817DB00F006
:102920001F0201219140374A430942F8231000BF9A
:1029300000BF00BFBFF34F8F00BF00BF00BF00BF8D
:1029400000BF00BFBFF36F8F00BF00BF00BF00BF5D
:102950000F200021002804DB4A07130E2A4A1354D3
:1029600006E04A07140E294A00F00F031B1FD45437
:1029700000BF0F20002809DB00F01F020121914059
:102980004209920002F1E022C2F8001100BF0020CB
:102990008DF800004FF44070ADF802000020ADF853
:1029A0000400ADF80600ADF808004FF4E1300390E4
:1029B000174A6946114800F08FF816490860084622
:1029C000006830B10846016813A0FFF7BFF800BFE8
:1029D000FEE7184818490860192048600E208860F2
:1029E0001648C860164817490860192048601648FC
:1029F000C8601149014800F0E9F81FBD00300440EB
:102A000080E200E080E100E000E400E018ED00E09A
:102A1000404B0000000000204572726F7220696E0A
:102A2000697469616C697A696E67205541525420F6
:102A300025640A007503002090030020DD49000092
:102A40005C030020A0030020314B000010B503A060
:102A500000F050FA054800F00BF810BD55415254F3
:102A60005F48616E646C65720A00000000300440CB
:102A700070B504461448844201D1002006E0134892
:102A8000844201D1012001E04FF0FF300646701C66
:102A900000B970BD2569256105F01B0038B10C48EF
:102AA00050F826102B463246204600F0E1F805F09B
:102AB0006B0030B1074850F826103246204600F02F
:102AC000A3F900BFE5E70000002004400030044007
:102AD00098000020A00000202DE9F84F04460D4684
:102AE00093464FF00008C1464FF0FF372C48844210
:102AF00001D1002006E02B48844201D1012001E0F1
:102B00004FF0FF300646701C18B96FF00200BDE8A8
:102B1000F88F59462046FFF7DDFC009008B1009879
:102B2000F5E70020204941F82600204941F8260019
:102B3000287840F0010069880843A9880843E9889B
:102B40000843298908432060194800684008E9685B
:102B5000B0FBF1FA00BF7F1CC7F107002AFA00F8AA
:102B60000AFA07F0A0EBC819B8F1000F01D1032F42
:102B7000F1DB48EA07406061B9F1030F03D9A9F11D
:102B80000300A06102E009F10300A06100200649F2
:102B900041F82600054941F8260000BFB7E70000CC
:102BA000002004400030044098000020A0000020D5
:102BB000C400002001468868C0F305207047014624
:102BC0008868C0F30540C0F1080070472DE9F04166
:102BD00004460D461DB96FF00200BDE8F0812148A2
:102BE000844201D1002006E01F48844201D1012027
:102BF00001E04FF0FF300646002E02DA6FF00200CF
:102C0000EBE7286810B94FF0FF30E6E7606910B9CC
:102C10006FF00400E1E7154850F8260010B16FF09E
:102C20000500DAE76868002801DC0020D5E70F49D5
:102C300001EB8600294601F0EEFD10B16FF00500B2
:102C4000CBE70020A860276927613B46324629462A
:102C5000204600F00DF8E06840F01B00E060002026
:102C6000BBE7000000200440003004409800002032
:102C70002DE9F04705460C46164698462CB9E868FB
:102C800020F01B00E860BDE8F0872846FFF792FFC0
:102C90000746D4E90101A0EB010909E0E869C1B2E6
:102CA000A268501CA06020688154A9F101097F1E10
:102CB00017B1B9F1000FF1D108F0080060B11F4958
:102CC00001EB860001F09CFDE06820B16FF00B0184
:102CD0002046E2689047D6E708F0030060B1174944
:102CE00001EB860001F08CFDE06820B16FF0080177
:102CF0002046E2689047C6E7D4E9011088420ED129
:102D0000E86820F01B00E86000200C4941F826002C
:102D1000E06818B100212046E2689047B3E7D4E9A3
:102D200001010838814204DDD4E90101401A6860DC
:102D300001E00820686000BFA5E7000098000020BF
:102D400070B505462848854201D1002006E0274895
:102D5000854201D1012001E04FF0FF300446002CF4
:102D600002DA6FF0020070BD0020E860286840F0D1
:102D7000600028601E4850F8240070B11C4850F8CC
:102D80002460014601EB840001F03AFDF06820B1B7
:102D90006FF00E013046F2689047164850F8240054
:102DA00070B1144850F82460014601EB840001F032
:102DB00027FDF06820B16FF00E013046F2689047B1
:102DC00000BFA86800F003000028FAD12860284658
:102DD000FFF7CEFB0020064941F82400054941F8E1
:102DE000240000BFBFE70000002004400030044082
:102DF00098000020A000002000BF826802F080023E
:102E0000002AFAD1C16170472DE9F04105460C4610
:102E100016461E4850F826402CB9E86820F02000DD
:102E2000E860BDE8F0812846FFF7C9FE0746D4E90F
:102E30000101A0EB010808E0A168481CA06020681F
:102E4000405CE861A8F101087F1E17B1B8F1000FDE
:102E5000F2D1D4E90101884211D1E86820F02000C4
:102E6000E8600020094941F8260001EB860001F0E6
:102E7000C7FCE06818B100212046E2689047E86886
:102E800040F06B00E86000BFCBE70000A00000202E
:102E900010B500F009F810BD10B50248FEF7A6FD08
:102EA00010BD0000B003002010B5FFF7F5FF10BD06
:102EB000064B1B7823B1064B03EBC0135A5403E0B7
:102EC000044B03EBC0135A54704700005C00002011
:102ED000B0030020B007002010B5044600212046B2
:102EE000FEF7FEFD10BD10B5044601212046FEF799
:102EF000F7FD10BD0FB4054B10B503A9044A0298A5
:102F000000F0A0FF10BC5DF814FB0000B942000007
:102F10008800002003B401984100009850EAC120C5
:102F200018BF04204A0D18BF40F0010040F2FF72A4
:102F3000B2EB515F08BF40F00200012808BF052036
:102F400002B07047002809DB00F01F020121914008
:102F50004209920002F1E022C2F80011704700001D
:102F600010B5002804DB4A07130E054A135406E087
:102F70004A07140E034A00F00F031B1FD45410BD60
:102F800000E400E018ED00E070B59B482DED020B69
:102F90002DED068B079D25F00044A04218DC9748D4
:102FA000844202DC0AD1069840B19DED060BBDECCF
:102FB000068B02B0BDE8704000F0FABE002DCCBF19
:102FC0009FED8F0B9FED900BBDEC068B02B070BD9B
:102FD0008F48A04215DD8F48A042D8BF4FF0FF3484
:102FE00058DD9DED060B51EC100BFFF793FF042805
:102FF00008BF00F001FF9DED060BBDEC068B02B093
:1030000070BD9DED060B51EC100B01F0DFF8CDE922
:10301000060181489FED828BA0423CDD8248A042A0
:103020001FDD00249FED82AB9DED060B53EC1A2BA8
:1030300051EC100BFDF7ECF89DED060B41EC190B74
:1030400053EC1A2B51EC100BFDF789F953EC182BAC
:10305000FDF77FF953EC192BFDF7F3F9CDE90601E4
:1030600049E09DED060B012453EC182B51EC100B9D
:10307000FDF7CEF89DED060B41EC190B53EC182B28
:1030800051EC100BFDF765F953EC192BFDF7D9F94D
:10309000CDE906012FE06848A0421FDD02249FED24
:1030A000689B9DED060B53EC192B51EC100BFDF7B3
:1030B00056F953EC182BFDF7ABF89DED060B41ECE0
:1030C000180B53EC192B51EC100BFDF742F953EC94
:1030D000182BFDF7B6F9CDE906010CE09DED060BC6
:1030E000032453EC102B9FED580B51EC100BFDF704
:1030F000A8F9CDE906019DED060B53EC102B51EC20
:10310000100BFDF72CF941EC180B53EC182BFDF7C5
:1031100026F941EC190B4E480621B0EE490AF0EEB3
:10312000690A784400F030FD53EC182B51EC100B79
:10313000FDF715F941EC180B4648B0EE490AF0EEE0
:10314000690A0521784400F01FFD53EC192B51EC5E
:10315000100BFDF704F941EC100B51EC180B53EC7C
:10316000102B002C0EDAFDF753F89DED061B53ECE7
:10317000112BFDF7F4F89DED061B53EC112BFDF719
:10318000EBF835E0FDF744F89DED061B53EC112BF1
:10319000FDF7E5F841EC100B2F48784400EBC40034
:1031A00090ED001B51EC100B53EC112BFDF7D1F8F7
:1031B0009DED061B53EC112BFDF7CBF841EC100BEA
:1031C0002648784400EBC40090ED001B51EC100B36
:1031D00053EC112BFDF7C0F841EC100B002DA2BFF2
:1031E000BDEC068B02B070BD51EC100B81F00041BC
:1031F00041EC100B01E70000000010440000F07FDC
:10320000182D4454FB21F93F182D4454FB21F9BFDC
:103210000000DC3F0000203E0000F33F0000000003
:10322000000000000000F03F0000E63F000000004A
:10323000000000000000004000800340000000008B
:10324000000000000000F83F000000000000F0BF98
:1032500012270000C8260000522600000A2600009F
:1032600070B56B4E2DED040B2DED028B82B0DDF8A9
:103270001CC0DDE905235C422CF000411C4341EAFF
:10328000D474049D22F00040B44205D86C422C4313
:1032900040EAD474B4420BD99DED061B9DED040B9E
:1032A00002B0BDEC028B04B0BDE8704000F08ABDF6
:1032B000ACF14054A4F17F641C430BD0022404EA17
:1032C000AC7444EAD27405439FED538B9FED542BAD
:1032D00007D015E09DED040B51EC100B00F012FF30
:1032E00042E0002C11BF012C9DED040B02B0BDEC9F
:1032F000028B04BF04B070BD022C38D0032C3BD02D
:103300000B439FED491B9FED4A0B0AD0B14218D1E8
:10331000B04209D121F0804120F080400791059012
:103320000FE0002A15DA10E0434B7B44002C08BF65
:1033300093ED000B0DD0012C10D0022C17D0032CD4
:103340001AD0B0421DD1002A03DAB0EE410AF0EEE5
:10335000610A02B0BDEC028B04B070BD93ED000BAE
:1033600051EC100B81F0004141EC100BF1E7B0EE95
:10337000480AF0EE680AECE7B0EE420AF0EE620AA4
:10338000E7E7401A00153C28C8BF8DED000B19DC9B
:10339000BCF1000FBEBF10F13C0F9FED290B8DED6E
:1033A000000B0FDB9DED060B53EC102B9DED040B7A
:1033B00051EC100BFDF745F800F008FF00F0A2FEFD
:1033C000CDE90001002C08BF9DED000BC1D0012C00
:1033D00010D0022C9FED1C0B53EC102B9DED000B1D
:1033E00051EC100B0DD0FCF7B4FF53EC182BFCF78D
:1033F000B0FFB9E7019880F0004001909DED000B0F
:10340000A7E7FCF7A6FF53EC182BFCF7A5FFABE7EB
:103410000000F07F00000000182D4454FB210940FB
:10342000182D4454FB2109C0182D4454FB21F9BF29
:10343000182D4454FB21F93F6A25000000000000CC
:103440000000000000000000075C143326A6A13C29
:1034500010B52F499FED2C1B2DED020B84B0059864
:1034600020F000408842D8BF9DED040B2DDD294996
:10347000884209D1049840B94FF0010000F0DCFC0B
:1034800000F0AAFC06B010BD05DB9DED040B00F0BA
:103490008FFC06B010BD68469DED040B00F0A0F84F
:1034A00010F0030004BF9DED021B9DED000B0CD03E
:1034B00001280ED09DED021B9DED000B022817D0B8
:1034C000012000F0DDFB06B010BD00F0A5FA06B04B
:1034D00010BD9DED021B9DED000B012000F0D0FB07
:1034E00051EC100B81F0004106B041EC100B10BD07
:1034F00000F092FA51EC100B81F0004106B041EC63
:10350000100B10BD000000000000000000000000D3
:10351000FB21E93F0000F07F10B52F499FED2C1BE8
:103520002DED020B84B0059820F000408842DCBFEE
:1035300000209DED040B32DD2849884209D1049812
:1035400040B94FF0010000F077FC00F045FC06B0F8
:1035500010BD05DB9DED040B00F02AFC06B010BD8C
:1035600068469DED040B00F03BF810F0030011D00D
:10357000012818D09DED021B9DED000B02281AD0EA
:1035800000F04AFA51EC100B81F0004106B041EC1A
:10359000100B10BD9DED021B9DED000B012000F0F6
:1035A0006FFB06B010BD9DED021B9DED000B00F002
:1035B00033FA06B010BD012000F062FB51EC100B95
:1035C00081F0004106B041EC100B10BD000000007E
:1035D0000000000000000000FB21E93F0000F07F38
:1035E0002DE9F14F04462DED020B2DED088B8AB02D
:1035F0009FEDE70B80ED020B139EE74826F0004598
:1036000085420ADC9DED120B002084ED000B0AB010
:10361000BDEC088B03B0BDE8F08FE0489FEDE0AB58
:103620009FEDE1BBA84247DDE14F9FEDE39B9FED9E
:10363000E48B9DED120B53EC1A2B51EC100B002E6A
:103640001CDDFCF786FE41EC100BBD4208D053ECAC
:103650001B2B51EC100BFCF77CFEC4E900010BE0C6
:1036600053EC192B51EC100BFCF773FE53EC182B99
:10367000FCF76FFEC4E900010120C8E7FCF7C8FDB4
:1036800041EC100BBD4208D053EC1B2B51EC100B3E
:10369000FCF7BEFDC4E900010BE053EC192B51EC23
:1036A000100BFCF7B5FD53EC182BFCF7B1FDC4E98A
:1036B00000014FF0FF30AAE7C348A84279DB9DED37
:1036C000120B51EC100B00F081FD41EC180B9FED3B
:1036D000C00B53EC102BFCF742FE9FEDBF1B53ECCD
:1036E000112BFCF795FDFCF72CFF0746FCF718FFA4
:1036F00041EC190B53EC1A2BFCF731FE53EC182B51
:10370000FCF72AFE41EC180B53EC1B2B51EC190B68
:10371000FCF725FEDFF8C8A241EC100B4FEA155864
:103720000125FA4453EC102B51EC180BFCF711FE59
:10373000032DC4E900013DD0C1F30A5005EB45114A
:10374000A8EB00001139814234DA0AEB051BB0EE18
:1037500048AA9BED000BF0EE68AA53EC102B51EC3D
:10376000190BFCF7FCFD41EC1B0B51EC1A0B53EC55
:103770001B2BFCF7EEFD41EC180B51EC1A0B53EC34
:10378000182BFCF7E6FD53EC1B2BFCF7E2FD9BED41
:10379000020B41EC1A0B53EC102B51EC190BFCF7FC
:1037A000DEFD53EC1A2BFCF7D4FD41EC100B6D1C25
:1037B000B8E70EE0002EA8BF3846BFF628AF94ED5C
:1037C000000B51EC100B81F00041C4E9000178427C
:1037D0001DE7C6F3130040F4801EC6F30A50A0F2A2
:1037E000F530471100F01F05C5F12000DDF848B0A5
:1037F00008900020069007900520EC467949002D9E
:1038000007EB0002794408BF51F8221009D051F8A3
:10381000223001EB8201AB404A68089922FA01F19B
:103820001943A1FB0E26A1FB0B131A449A4234BF85
:103830000123002303EB06080CEB8003D3E901A668
:103840000E448E4234BF0121002192448A4411B1BA
:10385000924502D903E0924501D2012100E0002106
:10386000C3E901A641444CF82010011EA0F101005B
:10387000C4DC029800F10050850F0298DDE903676F
:103880008000DDF81480FCF74BFE41EC1A0B30464B
:10389000FCF77DFF9FED541B53EC112BFCF75FFDF4
:1038A00041EC1B0B3846FCF772FF9FED511B53ECAC
:1038B000112BFCF754FD41EC180B4046FCF767FF59
:1038C0009FED4D1B53EC112BFCF749FD41EC190BFF
:1038D00051EC180B53EC192BFCF79AFC53EC1B2BF7
:1038E000FCF796FC53EC1A2BFCF792FCCDE908018F
:1038F000002008909DED080B53EC1A2B51EC100B97
:10390000FCF727FD53EC1B2BFCF723FD53EC182B86
:10391000FCF71FFD53EC192BFCF71EFD9FED381B28
:1039200053EC112BFCF71BFD9FED370B41EC180BF3
:1039300053EC102B9DED080B51EC100BFCF70FFD19
:1039400053EC182BFCF764FC9FED310B41EC180B8A
:1039500053EC102B9DED080B51EC100BFCF7FFFC0A
:1039600053EC182BFCF754FC41EC100B139810F09F
:10397000004F06D06D4251EC100B81F0004141EC3C
:10398000100B284684ED000B41E60000000000000B
:103990000000000000000000FB21E93F7CD902404C
:1039A00000004054FB21F93F3163621A61B4D03DFD
:1039B000FB21F93F000000000000601A61B4D03D17
:1039C0007370032E8A19A33BFB21394100000000CC
:1039D00083C8C96D305FE43F000000000000E03F95
:1039E0007A210000C8200000000000000000103E06
:1039F000000000000000103C000000000000103A31
:103A0000182D4454FB21F93D3326A611460B113CD9
:103A100000000054FB21F93D10B52DED040B2DEDF8
:103A2000088B82B0B0EE419AF0EE619A0B9820F0CC
:103A300000449FED4BABB4F1795F11DA9DED0A0BB9
:103A400051EC100BFCF77DFD002801BFB0EE4A0AD7
:103A5000F0EE6A0A02B0BDEC088B04BF04B010BDE2
:103A60009DED0A0B53EC102B51EC100BFCF777FC7F
:103A700041EC180B3C480621B0EE480AF0EE680A0B
:103A8000784400F081F853EC182B51EC100BFCF744
:103A900066FC9DED0A0B41EC1B0B53EC192B51EC12
:103AA000100BFCF75CFC41EC190B53EC1B2B51EC9D
:103AB000180BFCF754FC53EC192BFCF74AFC9FED58
:103AC0002C0B41EC190B53EC102B51EC180BFCF7A1
:103AD00046FC41EC100B2848844210DA53EC192BB9
:103AE00051EC100BFCF735FC53EC1A2BFCF734FCB3
:103AF00041EC100B02B0BDEC088B04B010BD1F48A8
:103B0000A042BCBF9FED1E1B8DED001B06DBA4F584
:103B100000100190002000909DED001B51EC100B57
:103B200053EC112BFCF715FC9DED000B41EC180B31
:103B300053EC102B51EC1A0BFCF70BFC41EC1A0B5D
:103B400053EC192B51EC180BFCF703FC53EC1A2B1C
:103B5000FCF702FC41EC100BCCE700000000000079
:103B6000000000000000F03FE41D00000000000025
:103B7000000000000000E03F3333D33F0000E93F86
:103B8000000000000000D23F70B504462DED028B0E
:103B90004D1E00EBC500B0EE408AF0EE608A90ED5D
:103BA000000B35F0060017D053EC182B51EC100B1E
:103BB000FCF7D5FB41EC100B6D1E04EBC50090ED3E
:103BC000001B51EC100B53EC112BFCF721FB41ECCB
:103BD000100B35F00600E7D1022D36D0042D1CD095
:103BE000062D1CBFBDEC028B70BD53EC182B51ECA5
:103BF000100BFCF7B4FB94ED0A1B53EC112BFCF7F4
:103C000007FB53EC182BFCF7AAFB94ED081B53ECB5
:103C1000112BFCF7FDFA41EC100B53EC182B51EC77
:103C2000100BFCF79CFB94ED061B53EC112BFCF7DF
:103C3000EFFA53EC182BFCF792FB94ED040B53ECCA
:103C4000102BFCF7E5FA41EC100B53EC182B51EC60
:103C5000100BFCF784FB94ED021B53EC112BFCF7CB
:103C6000D7FA53EC182BFCF77AFB94ED001B53ECBE
:103C7000112BFCF7CDFABDEC028B41EC100B70BDA3
:103C800031B504462DED040B2DED0A8BB0EE41BA93
:103C9000F0EE61BA0B989DED0A0B20F00040B0F1F8
:103CA000795F0DDA51EC100BFFF734F9042808BFE7
:103CB00000F0A2F89DED0A0BBDEC0A8B05B030BDFB
:103CC00053EC102B51EC100BFCF749FB41EC180B9B
:103CD0009DED0A0B53EC182B51EC100BFCF73FFB3E
:103CE00041EC190B2C48B0EE480AF0EE680A0521A9
:103CF0007844FFF749FF9FED2ACBB0EE40AAF0EEE3
:103D000060AA9CB353EC1C2B51EC190BFCF727FB5E
:103D100041EC1C0B53EC1A2B51EC190BFCF71FFB5D
:103D20009FED210B41EC190B53EC102B51EC1B0BAD
:103D3000FCF715FB53EC192BFCF70BFB53EC182B82
:103D4000FCF70DFB53EC1B2BFCF703FB53EC1C2B7C
:103D5000FCF7FFFA9DED0A1B53EC112BFCF7FCFA64
:103D6000BDEC0A8B05B041EC100B30BDFFE753EC06
:103D70001A2B51EC180BFCF7F2FA53EC1C2BFCF746
:103D800047FA53EC192BFCF7EAFA9DED0A1B53ECAA
:103D9000112BFCF73DFAE3E7741C00000000000063
:103DA000495555555555C5BF000000000000E03F7E
:103DB00010B553EC102B51EC100BFCF729FA41EC29
:103DC000100B10BD10B553EC112B51EC100BFCF780
:103DD0001FFA41EC100B10BD9FED050B10B553EC15
:103DE000102B51EC100BFCF72CFB41EC100B10BD11
:103DF00000000000000000009FED050B10B553EC23
:103E0000102B51EC100BFCF7AAFA41EC100B10BD73
:103E1000000000000000001002E008C8121F08C1E6
:103E2000002AFAD170477047002001E001C1121F3B
:103E3000002AFBD17047000001490860704700006C
:103E4000C80000202DE9FF4F8DB09B460F46044669
:103E5000002606E025280BD05A460F999047641C8F
:103E6000761C20780028F5D111B03046BDE8F08FDF
:103E70000025A8460122984900E0054314F8013FB7
:103E8000203B02FA03F00842F7D120782E2817D100
:103E900014F8010F45F004052A280ED06FF02F0208
:103EA0002078A0F1300109290AD808EB880102EB3B
:103EB000410100EB0108641CF2E757F8048B641C15
:103EC00020786C280DD004DC4C2812D06A2811D13F
:103ED00004E074280DD07A280CD10AE045F40015CE
:103EE00007E0617845F48015814202D1641C05F534
:103EF0008015641C2278692A45D008DC002AB3D0DA
:103F0000582A69D0632A10D0642A08D13BE0702A6D
:103F100067D0732A13D0752A5CD0782A5CD01046FB
:103F20005A460F999047761CD3E017F8040B8DF88A
:103F3000000000208DF80100E946012003E057F859
:103F4000049B4FF0FF3069074FF0000501D40AE0F1
:103F50006D1C45450DDA8542FADB19F8051000297C
:103F6000F6D106E06D1C8542FCDB19F8051000292E
:103F7000F8D12E4404E019F8010B5A460F999047E6
:103F80006D1EF8D2A5E00A200021CDE90801C5F395
:103F9000025002280DD001CFC117031E71F100039A
:103FA0000DDA4FF0000CD0EB0C006CEB01012D236F
:103FB00008E0FF1D27F00707F7E80201EDE72B05F2
:103FC00004D52B238DF8283001233BE0EB0739D0B3
:103FD0002023F7E70A2000E010200021CDE90801A6
:103FE00007E01020002145F00405CDE908014FF05D
:103FF0000808C5F3025002280FD001CF00214FF06E
:10400000000A2B071FD5702A0DD0DDE908C38CF0FC
:10401000100C5CEA030C0CD015E0FF1D27F007071D
:10402000F7E80201EBE740228DF828204FF0010A63
:104030000BE050EA010306D030238DF828308DF8CC
:10404000292002239A46582A04D024A20DF12009DF
:104050000B9209E026A2F9E7DDE90823FCF77CF8DA
:104060000B9B9B5C09F8013D50EA0102F4D1ADEBDA
:10407000090020300890680701D44FF00108089922
:10408000884502DDA8EB010000E000208046002505
:1040900006E00AA85A46405D0F9990476D1C761CB1
:1040A0005545F6DB04E030205A460F999047761CC0
:1040B000B8F10001A8F10108F5DC05E019F8010BE1
:1040C0005A460F999047761C0899481E0890002977
:1040D000F4DC641CC5E600000928010030313233ED
:1040E0003435363738396162636465660000000034
:1040F000303132333435363738394142434445461E
:104100000000000010B541EC100BFEF73DFF51EC34
:10411000100B10BDF0B504460D461746204600F0C2
:1041200069F9064636B1012E05D0022E1AD0032EAB
:1041300046D12EE045E0B4F90020B4F90630D1189C
:1041400001EBD172521010B2B5F90610814208DDB0
:10415000B5F90010814204DA1B490968491C1A4A62
:1041600011602EE0B4F90220B4F90830D11801EB47
:10417000D172521010B2B5F90810814208DDB5F9BC
:104180000210814204DA10490968491C0E4A116084
:1041900017E0B4F90420B4F90A30D11801EBD17258
:1041A000521010B2B5F90A10814208DDB5F90410B9
:1041B000814204DA04490968491C034A116000E09D
:1041C00000BF00BFF0BD00008000002082B0CDE93C
:1041D000000121F0004001909DED000B02B051EC78
:1041E000100B704770B50024002500262D4A911E43
:1041F000881EFDF79BFA2C480068401C2A4908607D
:10420000084600680A2801DB00200860002015E04D
:10421000264931F810200B46411C23F8112024496F
:1042200031F810200B46411C23F81120214931F8A8
:1042300010200B46411C23F81120401C0928E7DB05
:104240001848001F0088194908801648001F408838
:10425000174908801348001F8088164908800020ED
:104260000CE0124931F910100C44114931F91010C9
:104270000D44104931F910100E44401C0A28F0DB9F
:104280000A2094FBF0F000B20649091F08800A20BA
:1042900095FBF0F000B248800A2096FBF0F000B2E7
:1042A000888070BD180000201C000020080300203A
:1042B0001C0300203003002070B504460D460A2C74
:1042C00004D0E1B20648FEF797FD07E00D2104484F
:1042D000FEF792FD0A210248FEF78EFD002070BD18
:1042E0000030044010B52DED068B1F49B1F90400D4
:1042F000FCF716F941EC190B1B49B1F90200FCF768
:104300000FF941EC1A0BB0EE491AF0EE691AB0EE53
:104310004A0AF0EE6A0AFEF7A3FFB0EE408AF0EE1A
:10432000608A51EC180BFCF73EF91049086008460A
:1043300090ED000ADFED0E0A20EE200A10EE101AB2
:104340000846FCF71DF941EC190B9FED0A0B53ECE5
:10435000102BFCF776F841EC180BFCF724F9074911
:104360000860BDEC068B10BD500300202800002023
:104370000000344344174154FB2109407C000020D5
:104380002DE010F8012B682A04D06D2A0ED0732A74
:1043900024D117E0417830390278303A02EB8202BA
:1043A00001EB4201104A1160801C17E0417830395E
:1043B0000278303A02EB820201EB42010B4A1160B3
:1043C000801C0BE0417830390278303A02EB8202EF
:1043D00001EB4201064A1160801C00BF00BF01785A
:1043E0000029CED170470000100000200C000020F2
:1043F0000800002070B501460020B1F90050B1F965
:104400000660AD1B6D42002D05DDB1F90650B1F916
:104410000060AD1B04E0B1F90050B1F90660AD1BBE
:104420002AB2B1F90250B1F90860AD1B6D42002DFE
:1044300005DDB1F90850B1F90260AD1B04E0B1F936
:104440000250B1F90860AD1B2BB2B1F90450B1F9BB
:104450000A60AD1B6D42002D05DDB1F90A50B1F9BE
:104460000460AD1B04E0B1F90450B1F90A60AD1B62
:104470002CB29A4205DDA24203DD3C2A01DB012079
:104480000EE0934205DDA34203DD3C2B01DB02205D
:1044900006E0944204DD9C4202DD3C2C00DB03205C
:1044A00070BD10B50246012000E050430B1EA1F183
:1044B0000101FAD110BD000070B50446FCF736FECC
:1044C00005460A2C08D114480068083012490860D3
:1044D0000020124908601DE00D2C1BD00120FEF7C2
:1044E000A1F822460C4801680C480068FCF79EFAC7
:1044F0002846FEF797F809480068801D07490860BC
:104500000748007830B1084600687A2802DD0A20A2
:10451000FFF7D2FF70BD00006400002060000020A3
:104520006800002010B5044603E014F8010BFFF703
:10453000C3FF20780028F8D110BD000010B5FDF7AA
:10454000C9F80D48FDF76AF80C4A0D490A48FCF70E
:104550003DFE0C49086038B10846002102680AA0F7
:10456000FDF7F4FA012010BDFDF71DF9FDF792F8F3
:10457000FEF7C2F900BFFEE700D001403C4B00004F
:10458000A0860100000000204572726F7220696EE3
:10459000697469616C697A696E6720493243256480
:1045A0002E2020284572726F7220636F6465203D53
:1045B000202564290A00000070B504461B490868DC
:1045C0004968002358405940084301D0981F70BDE6
:1045D0000CB90020FBE7204600F084F810E04FF013
:1045E000E020006900F4803050B11148056841684E
:1045F00010480068281841F100010D4A1060516010
:104600004FF0E02080690B490968081A084B1A68C6
:104610005B68851843F1000004490A684B68A91AD1
:104620009841DCD300F0DEF80020D0E7B000002095
:10463000B8000020C000002010B511480168406893
:10464000002359405840014301D1002010BD4FF0D4
:10465000E02080690B490968091A0B4B1A685C68ED
:104660008B1844F10000064A11685268591A9041AB
:1046700003D300F0B7F80020E8E76FF00500E5E7A6
:10468000B0000020C0000020B800002000B54FF0AE
:10469000E020006900F48030E8B10F48016840680C
:1046A000002359405840014315D00C480368416825
:1046B0000B480068181841F10001084A1060516069
:1046C00010460368406804490A6849689A1A884194
:1046D00001D300F087F800BDB0000020B800002032
:1046E000C00000202DE9F04105464FF0E020D0F851
:1046F0001880006920F48030214908604FF0E020E4
:10470000006900F0010068B96FF07F404FF0E021D0
:1047100048618861042008616FF07F48800519496D
:10472000086005E04FF0E0204069401C1549086032
:1047300015480068A5FB00600146144A0023304676
:10474000FBF70AFD04460F480068A0EB0800204470
:1047500000210F4A106051600E4A116051604FF005
:10476000E020006900F0010038B94FF0E020006956
:1047700040F001004FF0E0210861BDE8F081000049
:10478000A8000020C0000020C400002040420F000C
:10479000B0000020B800002010B5044610480168A1
:1047A0004068002359405840014301D0981F10BD74
:1047B0000CB90020FBE72046FFF794FF084801688A
:1047C0004068002251405040014307D04FF0E020A4
:1047D000006940F002004FF0E02108610020E6E7A8
:1047E000B0000020044800684FF0E021086100217B
:1047F000024A116051607047A8000020B0000020FC
:1048000000BF00BF00BFBFF35F8F00BF00BF00BF8E
:10481000002101607047024600BF52E8000F10B14E
:104820006FF00500704742E800100028F5D100BF86
:1048300000BF00BFBFF35F8F00BF00BF00BF00BF5E
:10484000F0E7000070B52DED068BB0EE408AF0EE7B
:10485000488A18EE104A10482044440808EE104ACE
:1048600088EE880A30EE080A10EE105A2846FBF748
:1048700087FE41EC1A0B9FED090B53EC102BFBF755
:104880006EFD41EC190BFBF78EFE08EE100AB0EE40
:10489000480ABDEC068B70BD62CF763F0000000079
:1048A0000000E03F10B50246012000E050430B1E1F
:1048B000A1F10104E1B2F9D110BD00004248006845
:1048C000401C4149086008460068642814DB002049
:1048D00008603E48C0883D490880084600894880F5
:1048E00008464089888008460088C8800846408875
:1048F00008810846808848813448B0F9000034496E
:10490000B1F90010884203DD3048B0F9000002E040
:104910002F48B0F900002D4908800846B0F9020080
:104920002B49B1F90210884203DD2848B0F9020092
:1049300002E02748B0F90200244948800846B0F94F
:1049400004002349B1F90410884203DD1F48B0F97F
:10495000040002E01E48B0F904001C4988800846A3
:10496000B0F906001A49B1F90010884203DA174875
:10497000B0F9060002E01648B0F900001349C880FB
:104980000846B0F908001249B1F90210884203DA6A
:104990000E48B0F9080002E00D48B0F902000B49DA
:1049A00008810846B0F90A000949B1F904108842A3
:1049B00003DA0648B0F90A0002E00548B0F904003D
:1049C0000249488170470000240000204403002071
:1049D0001400002001460878704700002DE9F041DE
:1049E00007460D4600241348FBF70BFC064612A0B1
:1049F000FEF780FA13481449086008460068FFF77C
:104A0000BFFC00BF05E00F48015D10A0FEF772FA81
:104A1000641C192CF7DB0EA0FEF76CFA192109486B
:104A2000FBF7E4FB0B490C48FEF7D0F80B48056098
:104A3000BDE8F08138000020726561645F63620A3E
:104A400000000000750300204000002025630000E6
:104A50000A000000900300200030044030000020D5
:104A600010B502460020B1F90030B2F900401B1B1E
:104A70005B42002B05DDB2F90030B1F900401B1B91
:104A800009E0B1F90030B2F900401B1B642B01DDD5
:104A9000012300E000232BB11388D3800B881380FF
:104AA000012001E01388D380B1F90230B2F902404D
:104AB0001B1B5B42002B05DDB2F90230B1F902404D
:104AC0001B1B09E0B1F90230B2F902401B1B642B39
:104AD00001DD012300E000232BB1548814814B88B1
:104AE0005380012001E054881481B1F90430B2F9F7
:104AF00004401B1B5B42002B05DDB2F90430B1F909
:104B000004401B1B09E0B1F90430B2F904401B1B3F
:104B1000642B01DD012300E000232BB19488548134
:104B20008B889380012001E09488548110BD00009F
:104B3000014A1160704700003400002000000000AE
:104B4000000000000000003E5B4F5B3E3E6B4F6B81
:104B50003E1C3E7C3E1C183C7E3C181C577D571C5E
:104B60001C5E7F5E1C00183C1800FFE7C3E7FF00D7
:104B700018241800FFE7DBE7FF30483A060E262925
:104B8000792926407F050507407F05253F5A3CE7E8
:104B90003C5A7F3E1C1C08081C1C3E7F14227F22AE
:104BA000145F5F005F5F06097F017F006689956A79
:104BB000606060606094A2FFA29408047E04081004
:104BC000207E201008082A1C08081C2A08081E102D
:104BD0001010100C1E0C1E0C30383E3830060E3EE5
:104BE0000E06000000000000005F00000007000744
:104BF00000147F147F14242A7F2A1223130864626E
:104C000036495620500008070300001C22410000CE
:104C100041221C002A1C7F1C2A08083E080800802C
:104C200070300008080808080000606000201008C4
:104C300004023E5149453E00427F400072494949C5
:104C4000462141494D331814127F102745454539F7
:104C50003C4A4949314121110907364949493646FB
:104C60004949291E000014000000403400000008DB
:104C7000142241141414141400412214080201597E
:104C800009063E415D594E7C1211127C7F4949490B
:104C9000363E414141227F4141413E7F49494941A0
:104CA0007F090909013E414151737F0808087F00CF
:104CB000417F41002040413F017F081422417F4055
:104CC0004040407F021C027F7F0408107F3E41412C
:104CD000413E7F090909063E4151215E7F0919299C
:104CE00046264949493203017F01033F4040403F86
:104CF0001F2040201F3F4038403F631408146303C7
:104D0000047804036159494D43007F414141020445
:104D1000081020004141417F04020102044040404C
:104D20004040000307080020545478407F28444442
:104D3000383844444428384444287F38545454185C
:104D400000087E090218A4A49C787F080404780057
:104D5000447D40002040403D007F10284400004139
:104D60007F40007C047804787C080404783844444C
:104D70004438FC1824241818242418FC7C08040443
:104D800008485454542404043F44243C4040207CAC
:104D90001C2040201C3C4030403C44281028444CFF
:104DA0009090907C4464544C4400083641000000CC
:104DB000770000004136080002010204023C26236D
:104DC000263C1EA1A161123A4040207A3854545525
:104DD00059215555794121545478412155547840F1
:104DE00020545579400C1E52721239555555593977
:104DF0005454545939555454580000457C410002CC
:104E0000457D420001457C40F0292429F0F0282509
:104E100028F07C545545002054547C547C0A097F6A
:104E20004932494949323248484832324A48483082
:104E30003A4141217A3A42402078009DA0A07D3934
:104E4000444444393D4040403D3C24FF2424487EB6
:104E50004943662B2FFC2F2BFF0929F620C0887EA3
:104E6000090320545479410000447D413048484AA8
:104E700032384040227A007A0A0A727D0D19317D5B
:104E80002629292F28262929292630484D4020382F
:104E90000808080808080808382F10C8ACBA2F10EE
:104EA0002834FA00007B000008142A142222142A55
:104EB00014089500220095AA005500AAAA55AA55E3
:104EC000AA000000FF00101010FF00141414FF00CF
:104ED0001010FF00FF1010F010F0141414FC001458
:104EE00014F700FF0000FF00FF1414F404FC141476
:104EF00017101F10101F101F1414141F0010101073
:104F0000F0000000001F101010101F10101010F003
:104F100010000000FF101010101010101010FF10E3
:104F2000000000FF140000FF00FF00001F1017002A
:104F300000FC04F414141710171414F404F4000003
:104F4000FF00F714141414141414F700F7141414B5
:104F5000171410101F101F141414F4141010F01054
:104F6000F000001F101F0000001F14000000FC14C0
:104F70000000F010F01010FF10FF141414FF1410B4
:104F800010101F00000000F010FFFFFFFFFFF0F007
:104F9000F0F0F0FFFFFF0000000000FFFF0F0F0F19
:104FA0000F0F38444438447C2A2A3E147E020206FD
:104FB00006027E027E0263554941633844443C0444
:104FC000407E201E2006027E020299A5E7A5991CBC
:104FD0002A492A1C4C7201724C304A4D4D303048DF
:104FE000784830BC625A463D3E494949007E01013D
:104FF000017E2A2A2A2A2A44445F444440514A44D2
:105000004040444A51400000FF0103E080FF00009F
:1050100008086B6B083612362436060F090F060097
:105020000018180000001010003040FF0101001FA0
:1050300001011E00191D1712003C3C3C3C00000001
:105040000000000000000000000000000000000060
:105050000000000000F800000000000000333000F5
:10506000000000100C06100C0600000000000000FC
:10507000000040C07840C0784000043F04043F0472
:105080000400007088FC08300000001820FF211E7A
:105090000000F008F000E018000000211C031E21B1
:1050A0001E0000F00888700000001E21232419272C
:1050B000211010160E00000000000000000000008B
:1050C0000000000000E018040200000000071820A3
:1050D000400000020418E000000000402018070013
:1050E0000000404080F0804040000202010F0102B9
:1050F0000200000000F0000000000101011F01019A
:105100000100000000000000000080B070000000FE
:10511000000000000000000000000001010101018A
:10512000010100000000000000000030300000001D
:1051300000000000000080601804006018060100F4
:10514000000000E010080810E000000F1020201000
:105150000F00001010F8000000000020203F202069
:105160000000007008080888700000302824222100
:1051700030000030088888483000001820202011B6
:105180000E000000C02010F8000000070424243F97
:10519000240000F808888808080000192120201140
:1051A0000E0000E0108888180000000F1120201168
:1051B0000E0000380808C83808000000003F000052
:1051C00000000070880808887000001C222121223D
:1051D0001C0000E010080810E0000000312222113D
:1051E0000F00000000C0C0000000000000303000D0
:1051F000000000000080000000000000806000004F
:105200000000000080402010080000010204081087
:105210002000404040404040400004040404040496
:105220000400000810204080000000201008040244
:105230000100007048080808F00000000030360146
:105240000000C030C828E810E00007182724231405
:105250000B000000C038E0000000203C23020227C1
:10526000382008F8888888700000203F202020110E
:105270000E00C03008080808380007182020201049
:10528000080008F808080810E000203F202020103F
:105290000F0008F88888E8081000203F202023200D
:1052A000180008F88888E8081000203F2000030054
:1052B0000000C03008080838000007182020221E0F
:1052C000020008F808000008F808203F2101012129
:1052D0003F20000808F8080800000020203F202098
:1052E000000000000808F8080800C08080807F00E7
:1052F000000008F888C028180800203F2001263840
:10530000200008F8080000000000203F2020202096
:10531000300008F8F800F8F80800203F003F003F90
:10532000200008F830C00008F808203F20000718C7
:105330003F00E01008080810E0000F1020202010A7
:105340000F0008F808080808F000203F21010101BB
:105350000000E01008080810E0000F18242438505E
:105360004F0008F8888888887000203F2000030CD0
:1053700030200070880808083800003820212122D9
:105380001C00180808F8080818000000203F20003A
:10539000000008F808000008F808001F202020205E
:1053A0001F000878880000C83808000007380E0180
:1053B0000000F80800F80008F800033C0700073C6C
:1053C0000300081868808068180820302C03032C1C
:1053D00030200838C800C83808000000203F2000EE
:1053E000000010080808C8380800203826212020AE
:1053F0001800000000FE020202000000007F404092
:105400004000000C30C00000000000000001063821
:10541000C00000020202FE000000004040407F0089
:10542000000000000402020204000000000000006E
:10543000000000000000000000008080808080806C
:105440008080000202040000000000000000000054
:1054500000000000808080800000001924222222A9
:105460003F2008F8008080000000003F112020113C
:105470000E000000008080800000000E112020201F
:105480001100000000808088F800000E112020101C
:105490003F200000808080800000001F2222222206
:1054A0001300008080F0888888180020203F20208A
:1054B00000000000808080808000006B94949493B2
:1054C000600008F8008080800000203F210000205C
:1054D0003F2000809898000000000020203F2020FE
:1054E0000000000000809898000000C08080807F4D
:1054F000000008F8000080808000203F24022D304A
:105500002000000808F8000000000020203F2020B4
:1055100000008080808080808000203F20003F202D
:10552000003F8080008080800000203F210000201C
:105530003F200000808080800000001F202020206D
:105540001F00808000808000000080FFA1202011CB
:105550000E000000008080808000000E112020A03E
:10556000FF80808080008080800020203F212000FC
:1055700001000000808080808000003324242424E7
:105580001900008080E0808000000000001F2020C3
:1055900000008080000000808000001F202020107C
:1055A0003F20808080000080808000010E3008064F
:1055B000010080800080008080800F300C030C3060
:1055C0000F0000808000808080000020312E0E318E
:1055D0002000808080000080808080818E7018068E
:1055E000010000808080808080000021302C2221FA
:1055F000300000000000807C020200000000003F3C
:10560000404000000000FF00000000000000FF001C
:1056100000000002027C800000000040403F0000CB
:105620000000000601010202040400000000000066
:105630000000D2BB808080808080808080808080DD
:1056400080808000000000000000000000000000DA
:1056500000000000D6BB000000FE020202020202AF
:1056600002FE000000000080402319010101010139
:10567000091320C00000B3CC2424A4FE2322003E42
:1056800022222222223E0000080601FF0106404994
:1056900049497F4949494100D0F20000FC04040413
:1056A0001415569454341404040040300F000101C2
:1056B0000141817F010101050300D4B52030AC63B5
:1056C0003000202CAB6AAA2A3A26A00022672212B8
:1056D000120049492452897F020D10000000000089
:1056E00000100000000100000100000000000000A8
:1056F0000020000001000000010000000000000385
:10570000000000000000000000C2010000000000D6
:10571000000000000800000004000000000000007D
:10572000C000000003000000000000003000000086
:105730000300000000000000003000000300000033
:1057400000000000000C000003000000000000004A
:10575000030000000400000000000000C000000082
:10576000040000000000000000030000020100002F
:10577000000000000C00000002010000000000001A
:10578000F00000000200000000000000003C0000EB
:1057900002000000000000000F00000003000000F5
:1057A00000000000003C00000200000000000000BB
:1057B0000F00000003000000000000000F000000C8
:1057C00002000000000000000400000004000000CF
:1057D0004FBB610567ACDD3F182D4454FB21E93F09
:1057E0009BF681D20B73EF3F182D4454FB21F93FF8
:1057F000E2652F227F2B7A3C075C143326A6813C7E
:10580000BDCBF07A8807703C075C143326A6913C28
:10581000C4EB98999999C9BF711623FEC671BCBF94
:105820006D9A74AFF2B0B3BF9AFDDE522DDEADBFFC
:105830002F6C6A2C44B4A2BF0D5555555555D53F14
:10584000FF8300922449C23F6E204CC5CD45B73F2F
:10585000513DD0A0660DB13FEB0D76244B7BA93FA7
:1058600011DA22E33AAD903F4C5555555555A53FB9
:105870007751C1166CC156BF9015CB19A001FA3EE5
:10588000AD529C804F7E92BEC4B1B4BD9EEE213E0F
:10589000D43888BEE9FAA8BD00000000000000006E
:1058A00000004054FB21F93F3163621A61B4D03DDE
:1058B0000000601A61B4D03D7370032E8A19A33BB7
:1058C0000000002E8A19A33BC14920259A837B3909
:1058D00000000000000000006E83F9A22915444E6C
:1058E000D15727FCC0DD34F5999562DB4190433CEC
:1058F000AB6351FE61C5BBDE3A6E24B7E0D24D42C8
:10590000EA2E49061C92D1091CEB1DFE3EA729B1C7
:10591000F53582E88444BB2E26709CE9417E5FB455
:1059200039D69139F43953838B5F849C3B28F9BD78
:10593000FF97F81F0F9805DE8B112FEF1F6D0A5A86
:10594000CF7E366DB709CB27663F464F2DEA5F9E67
:10595000C7BA27757BF1E5EBF739073DEA92528A22
:10596000B15FFB6B085D8D1FA6F810111111813F0F
:10597000D561C119A0012ABF7DFEB157E31DC73E05
:10598000EB9C2B8AE6E55ABE7CD5CF5A3AD9E53D49
:10599000B059000000000020CC000000183E0000BC
:1059A0007C5A0000CC000020C41C0000283E0000EF
:1059B00000000000000000000000000000000000E7
:1059C00000000000000000000000000000000000D7
:1059D00000000000000000000000000000000000C7
:1059E000000000000000000074696D653A000000CE
:1059F00000000000000000000000000000000000A7
:105A0000010000000103070F1F3F7FFF010101009C
:105A10000000000000000000010000000000000085
:105A2000000000001400000005000000000000005D
:105A300000000000003004400000000000000000F2
:105A40000000000000000000000000000000000056
:105A50000000000000000000000000000000000046
:105A60000000000000000000000000000000000036
:0C5A70000000000000D8B8050000000095
:040000050000011DD9
:00000001FF
