Component: ARM Compiler 5.06 update 6 (build 750) Tool: armlink [4d35ed]

==============================================================================

Section Cross References

    main.o(i.main) refers to oled_basic.o(i.InitGraph) for InitGraph
    main.o(i.main) refers to i2c_1.o(i.I2C_Shutdown) for I2C_Shutdown
    main.o(i.main) refers to i2c_1.o(i.I2C_Init) for I2C_Init
    main.o(i.main) refers to oled_debug.o(i.OledPrintf) for OledPrintf
    main.o(i.main) refers to mpu6050.o(i.MPU_Init) for MPU_Init
    main.o(i.main) refers to tim_my.o(i.IT_init) for IT_init
    main.o(i.main) refers to uart_my.o(i.UART1A_init) for UART1A_init
    main.o(i.main) refers to main.o(.constdata) for sys_i2c_cfg
    main.o(i.main) refers to main.o(.data) for error
    gpio_my.o(i.GPIO_INIT) refers to gpio_1.o(i.GPIO_Config) for GPIO_Config
    gpio_my.o(i.GPIO_INIT) refers to gpio_1.o(i.GPIO_OutClr) for GPIO_OutClr
    gpio_my.o(i.GPIO_INIT) refers to gpio_1.o(i.GPIO_OutSet) for GPIO_OutSet
    gpio_my.o(i.GPIO_INIT) refers to gpio_my.o(.bss) for GPIO_CS
    gpio_my.o(i.gpio_isr) refers to gpio_1.o(i.GPIO_OutToggle) for GPIO_OutToggle
    tim_my.o(i.CLOCKTimer) refers to tmr.o(i.TMR_Disable) for TMR_Disable
    tim_my.o(i.CLOCKTimer) refers to tmr.o(i.TMR_Init) for TMR_Init
    tim_my.o(i.CLOCKTimer) refers to tmr.o(i.TMR_Config) for TMR_Config
    tim_my.o(i.CLOCKTimer) refers to tmr.o(i.TMR_Enable) for TMR_Enable
==============================================================================

Removing Unused input sections from the image.

    Removing main.o(.rev16_text), (4 bytes).
    Removing main.o(.revsh_text), (4 bytes).
    Removing main.o(.rrx_text), (6 bytes).
    Removing gpio_my.o(.rev16_text), (4 bytes).
    Removing gpio_my.o(.revsh_text), (4 bytes).
    Removing gpio_my.o(.rrx_text), (6 bytes).
    Removing gpio_my.o(i.gpio_isr), (12 bytes).
    Removing tim_my.o(.rev16_text), (4 bytes).
    Removing tim_my.o(.revsh_text), (4 bytes).
    Removing tim_my.o(.rrx_text), (6 bytes).
    Removing uart_my.o(.rev16_text), (4 bytes).
    Removing uart_my.o(.revsh_text), (4 bytes).
    Removing uart_my.o(.rrx_text), (6 bytes).
    Removing uart_my.o(i.get_uart), (216 bytes).
    Removing oled_basic.o(.rev16_text), (4 bytes).
    Removing oled_basic.o(.revsh_text), (4 bytes).
    Removing oled_basic.o(.rrx_text), (6 bytes).
    Removing oled_basic.o(i.FillByte), (66 bytes).
==============================================================================

Image Symbol Table

    Local Symbols

    Symbol Name                              Value     Ov Type        Size  Object(Section)

    RESET                                    0x00000000   Section      284  startup_max32660.o(RESET)
    ../clib/microlib/division.c              0x00000000   Number         0  uldiv.o ABSOLUTE
    ../clib/microlib/division.c              0x00000000   Number         0  uidiv.o ABSOLUTE
    ../clib/microlib/errno.c                 0x00000000   Number         0  errno.o ABSOLUTE
    ../clib/microlib/init/entry.s            0x00000000   Number         0  entry11b.o ABSOLUTE
    ../clib/microlib/init/entry.s            0x00000000   Number         0  entry7a.o ABSOLUTE
    ../clib/microlib/init/entry.s            0x00000000   Number         0  entry7b.o ABSOLUTE
    ../clib/microlib/init/entry.s            0x00000000   Number         0  entry5.o ABSOLUTE
    ../clib/microlib/init/entry.s            0x00000000   Number         0  entry8a.o ABSOLUTE
    ../clib/microlib/init/entry.s            0x00000000   Number         0  entry2.o ABSOLUTE
    ../clib/microlib/init/entry.s            0x00000000   Number         0  entry8b.o ABSOLUTE
    ../clib/microlib/init/entry.s            0x00000000   Number         0  entry9a.o ABSOLUTE
    ../clib/microlib/init/entry.s            0x00000000   Number         0  entry.o ABSOLUTE
    ../clib/microlib/init/entry.s            0x00000000   Number         0  entry11a.o ABSOLUTE
    ../clib/microlib/init/entry.s            0x00000000   Number         0  entry10b.o ABSOLUTE
    ../clib/microlib/init/entry.s            0x00000000   Number         0  entry10a.o ABSOLUTE
    ../clib/microlib/init/entry.s            0x00000000   Number         0  entry9b.o ABSOLUTE
    ../clib/microlib/longlong.c              0x00000000   Number         0  llsshr.o ABSOLUTE
    ../clib/microlib/longlong.c              0x00000000   Number         0  llushr.o ABSOLUTE
    ../clib/microlib/longlong.c              0x00000000   Number         0  llshl.o ABSOLUTE
    ../clib/microlib/printf/printf.c         0x00000000   Number         0  printf4.o ABSOLUTE
    ../clib/microlib/printf/printf.c         0x00000000   Number         0  printf5.o ABSOLUTE
    ../clib/microlib/printf/printf.c         0x00000000   Number         0  printf7.o ABSOLUTE
    ../clib/microlib/printf/printf.c         0x00000000   Number         0  printf8.o ABSOLUTE
    ../clib/microlib/printf/printf.c         0x00000000   Number         0  printf6.o ABSOLUTE
    ../clib/microlib/printf/printf.c         0x00000000   Number         0  printfa.o ABSOLUTE
    ../clib/microlib/printf/printf.c         0x00000000   Number         0  printfb.o ABSOLUTE
    ../clib/microlib/printf/printf.c         0x00000000   Number         0  printf3.o ABSOLUTE
    ../clib/microlib/printf/printf.c         0x00000000   Number         0  printf2.o ABSOLUTE
    ../clib/microlib/printf/printf.c         0x00000000   Number         0  printf1.o ABSOLUTE
    ../clib/microlib/printf/printf.c         0x00000000   Number         0  printf0.o ABSOLUTE
    ../clib/microlib/printf/stubs.s          0x00000000   Number         0  stubs.o ABSOLUTE
    ../clib/microlib/string/memcpy.c         0x00000000   Number         0  memcpyb.o ABSOLUTE
    ../clib/microlib/string/memcpy.c         0x00000000   Number         0  memcpya.o ABSOLUTE
    ../clib/microlib/string/memset.c         0x00000000   Number         0  memseta.o ABSOLUTE
    ../clib/microlib/string/strlen.c         0x00000000   Number         0  strlen.o ABSOLUTE
    ../clib/microlib/stubs.s                 0x00000000   Number         0  useno.o ABSOLUTE
    ../clib/microlib/stubs.s                 0x00000000   Number         0  iusefp.o ABSOLUTE
    ../fplib/microlib/d2f.c                  0x00000000   Number         0  d2f.o ABSOLUTE
    ../fplib/microlib/f2d.c                  0x00000000   Number         0  f2d.o ABSOLUTE
    ../fplib/microlib/fpadd.c                0x00000000   Number         0  dadd.o ABSOLUTE
    ../fplib/microlib/fpdiv.c                0x00000000   Number         0  ddiv.o ABSOLUTE
    ../fplib/microlib/fpepilogue.c           0x00000000   Number         0  fepilogue.o ABSOLUTE
    ../fplib/microlib/fpepilogue.c           0x00000000   Number         0  depilogue.o ABSOLUTE
    ../fplib/microlib/fpfix.c                0x00000000   Number         0  dfixi.o ABSOLUTE
    ../fplib/microlib/fpfix.c                0x00000000   Number         0  dfixul.o ABSOLUTE
    ../fplib/microlib/fpflt.c                0x00000000   Number         0  dfltui.o ABSOLUTE
    ../fplib/microlib/fpflt.c                0x00000000   Number         0  dflti.o ABSOLUTE
    ../fplib/microlib/fpmul.c                0x00000000   Number         0  dmul.o ABSOLUTE
    ../fplib/microlib/fpneg.c                0x00000000   Number         0  dneg.o ABSOLUTE
    ../mathlib/atan.c                        0x00000000   Number         0  atan.o ABSOLUTE
    ../mathlib/atan.c                        0x00000000   Number         0  atan_x.o ABSOLUTE
    ../mathlib/atan2.c                       0x00000000   Number         0  atan2_x.o ABSOLUTE
    ../mathlib/atan2.c                       0x00000000   Number         0  atan2.o ABSOLUTE
    ../mathlib/cos.c                         0x00000000   Number         0  cos.o ABSOLUTE
    ../mathlib/cos.c                         0x00000000   Number         0  cos_x.o ABSOLUTE
    ../mathlib/cos_i.c                       0x00000000   Number         0  cos_i.o ABSOLUTE
    ../mathlib/dunder.c                      0x00000000   Number         0  dunder.o ABSOLUTE
    ../mathlib/fabs.c                        0x00000000   Number         0  fabs.o ABSOLUTE
    ../mathlib/fpclassify.c                  0x00000000   Number         0  fpclassify.o ABSOLUTE
    ../mathlib/poly.c                        0x00000000   Number         0  poly.o ABSOLUTE
    ../mathlib/qnan.c                        0x00000000   Number         0  qnan.o ABSOLUTE
    ../mathlib/rred.c                        0x00000000   Number         0  rred.o ABSOLUTE
    ../mathlib/sin.c                         0x00000000   Number         0  sin.o ABSOLUTE
    ../mathlib/sin.c                         0x00000000   Number         0  sin_x.o ABSOLUTE
    ../mathlib/sin_i.c                       0x00000000   Number         0  sin_i.o ABSOLUTE
    ../mathlib/sin_i.c                       0x00000000   Number         0  sin_i_x.o ABSOLUTE
    ..\CLOCK\CLOCK.c                         0x00000000   Number         0  clock.o ABSOLUTE
    ..\GPIO_my.c                             0x00000000   Number         0  gpio_my.o ABSOLUTE
    ..\MPU6050\mpu6050.c                     0x00000000   Number         0  mpu6050.o ABSOLUTE
    ..\OledLib\oled_basic.c                  0x00000000   Number         0  oled_basic.o ABSOLUTE
    ..\OledLib\oled_bmp.c                    0x00000000   Number         0  oled_bmp.o ABSOLUTE
    ..\OledLib\oled_buffer.c                 0x00000000   Number         0  oled_buffer.o ABSOLUTE
    ..\OledLib\oled_color.c                  0x00000000   Number         0  oled_color.o ABSOLUTE
    ..\OledLib\oled_config.c                 0x00000000   Number         0  oled_config.o ABSOLUTE
    ..\OledLib\oled_debug.c                  0x00000000   Number         0  oled_debug.o ABSOLUTE
    ..\OledLib\oled_draw.c                   0x00000000   Number         0  oled_draw.o ABSOLUTE
    ..\OledLib\oled_driver.c                 0x00000000   Number         0  oled_driver.o ABSOLUTE
    ..\OledLib\oled_font.c                   0x00000000   Number         0  oled_font.o ABSOLUTE
    ..\TIM_my.c                              0x00000000   Number         0  tim_my.o ABSOLUTE
    ..\Tracer_API\tracer_API.c               0x00000000   Number         0  tracer_api.o ABSOLUTE
    ..\\CLOCK\\CLOCK.c                       0x00000000   Number         0  clock.o ABSOLUTE
    ..\\GPIO_my.c                            0x00000000   Number         0  gpio_my.o ABSOLUTE
    ..\\MPU6050\\mpu6050.c                   0x00000000   Number         0  mpu6050.o ABSOLUTE
    ..\\OledLib\\oled_basic.c                0x00000000   Number         0  oled_basic.o ABSOLUTE
    ..\\OledLib\\oled_config.c               0x00000000   Number         0  oled_config.o ABSOLUTE
    ..\\OledLib\\oled_draw.c                 0x00000000   Number         0  oled_draw.o ABSOLUTE
    ..\\OledLib\\oled_driver.c               0x00000000   Number         0  oled_driver.o ABSOLUTE
    ..\\TIM_my.c                             0x00000000   Number         0  tim_my.o ABSOLUTE
    ..\\main.c                               0x00000000   Number         0  main.o ABSOLUTE
    ..\\uart_my.c                            0x00000000   Number         0  uart_my.o ABSOLUTE
    ..\main.c                                0x00000000   Number         0  main.o ABSOLUTE
    ..\uart_my.c                             0x00000000   Number         0  uart_my.o ABSOLUTE
    F:\Keil_v5\ARM\PACK\Maxim\MAX32660\1.2.0\Boards\Maxim\MAX32660_EVKIT\Common\EvKit_V1\Source\board.c 0x00000000   Number         0  board.o ABSOLUTE
    F:\Keil_v5\ARM\PACK\Maxim\MAX32660\1.2.0\Boards\Maxim\MAX32660_EVKIT\Common\Source\led.c 0x00000000   Number         0  led.o ABSOLUTE
    F:\Keil_v5\ARM\PACK\Maxim\MAX32660\1.2.0\Boards\Maxim\MAX32660_EVKIT\Common\Source\pb.c 0x00000000   Number         0  pb.o ABSOLUTE
    F:\Keil_v5\ARM\PACK\Maxim\MAX32660\1.2.0\Boards\Maxim\MAX32660_EVKIT\Common\Source\stdio.c 0x00000000   Number         0  stdio.o ABSOLUTE
    F:\Keil_v5\ARM\PACK\Maxim\MAX32660\1.2.0\Libraries\MAX32660PeriphDriver\Source\flc.c 0x00000000   Number         0  flc.o ABSOLUTE
    F:\Keil_v5\ARM\PACK\Maxim\MAX32660\1.2.0\Libraries\MAX32660PeriphDriver\Source\gpio.c 0x00000000   Number         0  gpio_1.o ABSOLUTE
    F:\Keil_v5\ARM\PACK\Maxim\MAX32660\1.2.0\Libraries\MAX32660PeriphDriver\Source\i2c.c 0x00000000   Number         0  i2c_1.o ABSOLUTE
    F:\Keil_v5\ARM\PACK\Maxim\MAX32660\1.2.0\Libraries\MAX32660PeriphDriver\Source\icc.c 0x00000000   Number         0  icc.o ABSOLUTE
    F:\Keil_v5\ARM\PACK\Maxim\MAX32660\1.2.0\Libraries\MAX32660PeriphDriver\Source\lp.c 0x00000000   Number         0  lp.o ABSOLUTE
    F:\Keil_v5\ARM\PACK\Maxim\MAX32660\1.2.0\Libraries\MAX32660PeriphDriver\Source\mxc_assert.c 0x00000000   Number         0  mxc_assert.o ABSOLUTE
    F:\Keil_v5\ARM\PACK\Maxim\MAX32660\1.2.0\Libraries\MAX32660PeriphDriver\Source\mxc_delay.c 0x00000000   Number         0  mxc_delay.o ABSOLUTE
    F:\Keil_v5\ARM\PACK\Maxim\MAX32660\1.2.0\Libraries\MAX32660PeriphDriver\Source\mxc_lock.c 0x00000000   Number         0  mxc_lock.o ABSOLUTE
    F:\Keil_v5\ARM\PACK\Maxim\MAX32660\1.2.0\Libraries\MAX32660PeriphDriver\Source\mxc_pins.c 0x00000000   Number         0  mxc_pins.o ABSOLUTE
    F:\Keil_v5\ARM\PACK\Maxim\MAX32660\1.2.0\Libraries\MAX32660PeriphDriver\Source\mxc_sys.c 0x00000000   Number         0  mxc_sys.o ABSOLUTE
    F:\Keil_v5\ARM\PACK\Maxim\MAX32660\1.2.0\Libraries\MAX32660PeriphDriver\Source\nvic_table.c 0x00000000   Number         0  nvic_table.o ABSOLUTE
    F:\Keil_v5\ARM\PACK\Maxim\MAX32660\1.2.0\Libraries\MAX32660PeriphDriver\Source\rtc.c 0x00000000   Number         0  rtc.o ABSOLUTE
    F:\Keil_v5\ARM\PACK\Maxim\MAX32660\1.2.0\Libraries\MAX32660PeriphDriver\Source\spi.c 0x00000000   Number         0  spi.o ABSOLUTE
    F:\Keil_v5\ARM\PACK\Maxim\MAX32660\1.2.0\Libraries\MAX32660PeriphDriver\Source\spi17y.c 0x00000000   Number         0  spi17y.o ABSOLUTE
    F:\Keil_v5\ARM\PACK\Maxim\MAX32660\1.2.0\Libraries\MAX32660PeriphDriver\Source\spimss.c 0x00000000   Number         0  spimss.o ABSOLUTE
    F:\Keil_v5\ARM\PACK\Maxim\MAX32660\1.2.0\Libraries\MAX32660PeriphDriver\Source\tmr.c 0x00000000   Number         0  tmr.o ABSOLUTE
    F:\Keil_v5\ARM\PACK\Maxim\MAX32660\1.2.0\Libraries\MAX32660PeriphDriver\Source\tmr_utils.c 0x00000000   Number         0  tmr_utils.o ABSOLUTE
    F:\Keil_v5\ARM\PACK\Maxim\MAX32660\1.2.0\Libraries\MAX32660PeriphDriver\Source\uart.c 0x00000000   Number         0  uart.o ABSOLUTE
    F:\\Keil_v5\\ARM\\PACK\\Maxim\\MAX32660\\1.2.0\\Boards\\Maxim\\MAX32660_EVKIT\\Common\\EvKit_V1\\Source\\board.c 0x00000000   Number         0  board.o ABSOLUTE
    F:\\Keil_v5\\ARM\\PACK\\Maxim\\MAX32660\\1.2.0\\Boards\\Maxim\\MAX32660_EVKIT\\Common\\Source\\led.c 0x00000000   Number         0  led.o ABSOLUTE
    F:\\Keil_v5\\ARM\\PACK\\Maxim\\MAX32660\\1.2.0\\Boards\\Maxim\\MAX32660_EVKIT\\Common\\Source\\pb.c 0x00000000   Number         0  pb.o ABSOLUTE
    F:\\Keil_v5\\ARM\\PACK\\Maxim\\MAX32660\\1.2.0\\Boards\\Maxim\\MAX32660_EVKIT\\Common\\Source\\stdio.c 0x00000000   Number         0  stdio.o ABSOLUTE
    F:\\Keil_v5\\ARM\\PACK\\Maxim\\MAX32660\\1.2.0\\Libraries\\MAX32660PeriphDriver\\Source\\flc.c 0x00000000   Number         0  flc.o ABSOLUTE
    F:\\Keil_v5\\ARM\\PACK\\Maxim\\MAX32660\\1.2.0\\Libraries\\MAX32660PeriphDriver\\Source\\gpio.c 0x00000000   Number         0  gpio_1.o ABSOLUTE
    F:\\Keil_v5\\ARM\\PACK\\Maxim\\MAX32660\\1.2.0\\Libraries\\MAX32660PeriphDriver\\Source\\i2c.c 0x00000000   Number         0  i2c_1.o ABSOLUTE
    F:\\Keil_v5\\ARM\\PACK\\Maxim\\MAX32660\\1.2.0\\Libraries\\MAX32660PeriphDriver\\Source\\icc.c 0x00000000   Number         0  icc.o ABSOLUTE
    F:\\Keil_v5\\ARM\\PACK\\Maxim\\MAX32660\\1.2.0\\Libraries\\MAX32660PeriphDriver\\Source\\lp.c 0x00000000   Number         0  lp.o ABSOLUTE
    F:\\Keil_v5\\ARM\\PACK\\Maxim\\MAX32660\\1.2.0\\Libraries\\MAX32660PeriphDriver\\Source\\mxc_assert.c 0x00000000   Number         0  mxc_assert.o ABSOLUTE
    F:\\Keil_v5\\ARM\\PACK\\Maxim\\MAX32660\\1.2.0\\Libraries\\MAX32660PeriphDriver\\Source\\mxc_delay.c 0x00000000   Number         0  mxc_delay.o ABSOLUTE
    F:\\Keil_v5\\ARM\\PACK\\Maxim\\MAX32660\\1.2.0\\Libraries\\MAX32660PeriphDriver\\Source\\mxc_lock.c 0x00000000   Number         0  mxc_lock.o ABSOLUTE
    F:\\Keil_v5\\ARM\\PACK\\Maxim\\MAX32660\\1.2.0\\Libraries\\MAX32660PeriphDriver\\Source\\mxc_pins.c 0x00000000   Number         0  mxc_pins.o ABSOLUTE
    F:\\Keil_v5\\ARM\\PACK\\Maxim\\MAX32660\\1.2.0\\Libraries\\MAX32660PeriphDriver\\Source\\mxc_sys.c 0x00000000   Number         0  mxc_sys.o ABSOLUTE
    F:\\Keil_v5\\ARM\\PACK\\Maxim\\MAX32660\\1.2.0\\Libraries\\MAX32660PeriphDriver\\Source\\nvic_table.c 0x00000000   Number         0  nvic_table.o ABSOLUTE
    F:\\Keil_v5\\ARM\\PACK\\Maxim\\MAX32660\\1.2.0\\Libraries\\MAX32660PeriphDriver\\Source\\rtc.c 0x00000000   Number         0  rtc.o ABSOLUTE
    F:\\Keil_v5\\ARM\\PACK\\Maxim\\MAX32660\\1.2.0\\Libraries\\MAX32660PeriphDriver\\Source\\spi.c 0x00000000   Number         0  spi.o ABSOLUTE
    F:\\Keil_v5\\ARM\\PACK\\Maxim\\MAX32660\\1.2.0\\Libraries\\MAX32660PeriphDriver\\Source\\spi17y.c 0x00000000   Number         0  spi17y.o ABSOLUTE
    F:\\Keil_v5\\ARM\\PACK\\Maxim\\MAX32660\\1.2.0\\Libraries\\MAX32660PeriphDriver\\Source\\spimss.c 0x00000000   Number         0  spimss.o ABSOLUTE
    F:\\Keil_v5\\ARM\\PACK\\Maxim\\MAX32660\\1.2.0\\Libraries\\MAX32660PeriphDriver\\Source\\tmr.c 0x00000000   Number         0  tmr.o ABSOLUTE
    F:\\Keil_v5\\ARM\\PACK\\Maxim\\MAX32660\\1.2.0\\Libraries\\MAX32660PeriphDriver\\Source\\tmr_utils.c 0x00000000   Number         0  tmr_utils.o ABSOLUTE
    F:\\Keil_v5\\ARM\\PACK\\Maxim\\MAX32660\\1.2.0\\Libraries\\MAX32660PeriphDriver\\Source\\uart.c 0x00000000   Number         0  uart.o ABSOLUTE
    RTE\Device\MAX32660\startup_max32660.s   0x00000000   Number         0  startup_max32660.o ABSOLUTE
    RTE\Device\MAX32660\system_max32660.c    0x00000000   Number         0  system_max32660.o ABSOLUTE
    RTE\\Device\\MAX32660\\system_max32660.c 0x00000000   Number         0  system_max32660.o ABSOLUTE
    cdrcmple.s                               0x00000000   Number         0  cdrcmple.o ABSOLUTE
    dc.s                                     0x00000000   Number         0  dc.o ABSOLUTE
    handlers.s                               0x00000000   Number         0  handlers.o ABSOLUTE
    init.s                                   0x00000000   Number         0  init.o ABSOLUTE
    .ARM.Collect$$$$00000000                 0x0000011c   Section        0  entry.o(.ARM.Collect$$$$00000000)
    .ARM.Collect$$$$00000001                 0x0000011c   Section        4  entry2.o(.ARM.Collect$$$$00000001)
    .ARM.Collect$$$$00000004                 0x00000120   Section        4  entry5.o(.ARM.Collect$$$$00000004)
    .ARM.Collect$$$$00000008                 0x00000124   Section        0  entry7b.o(.ARM.Collect$$$$00000008)
    .ARM.Collect$$$$0000000A                 0x00000124   Section        0  entry8b.o(.ARM.Collect$$$$0000000A)
    .ARM.Collect$$$$0000000B                 0x00000124   Section        8  entry9a.o(.ARM.Collect$$$$0000000B)
    .ARM.Collect$$$$0000000D                 0x0000012c   Section        0  entry10a.o(.ARM.Collect$$$$0000000D)
    .ARM.Collect$$$$0000000F                 0x0000012c   Section        0  entry11a.o(.ARM.Collect$$$$0000000F)
    .ARM.Collect$$$$00002712                 0x0000012c   Section        4  entry2.o(.ARM.Collect$$$$00002712)
    __lit__00000000                          0x0000012c   Data           4  entry2.o(.ARM.Collect$$$$00002712)
    .text                                    0x00000130   Section       40  startup_max32660.o(.text)
    $v0                                      0x00000130   Number         0  startup_max32660.o(.text)
    .text                                    0x00000158   Section        0  uldiv.o(.text)
    .text                                    0x000001ba   Section        0  memcpya.o(.text)
    .text                                    0x000001de   Section        0  memseta.o(.text)
    .text                                    0x00000202   Section        0  strlen.o(.text)
    .text                                    0x00000210   Section        0  dadd.o(.text)
    .text                                    0x0000035e   Section        0  dmul.o(.text)
    .text                                    0x00000442   Section        0  ddiv.o(.text)
    .text                                    0x00000520   Section        0  dflti.o(.text)
    .text                                    0x00000542   Section        0  dfixi.o(.text)
    .text                                    0x00000580   Section        0  f2d.o(.text)
    .text                                    0x000005a6   Section        0  d2f.o(.text)
    .text                                    0x000005e0   Section       36  init.o(.text)
    .text                                    0x00000604   Section        0  llshl.o(.text)
    .text                                    0x00000622   Section        0  llushr.o(.text)
    .text                                    0x00000642   Section        0  llsshr.o(.text)
    .text                                    0x00000666   Section        0  fepilogue.o(.text)
    .text                                    0x00000666   Section        0  iusefp.o(.text)
    .text                                    0x000006d4   Section        0  depilogue.o(.text)
    .text                                    0x0000078e   Section        0  dfltui.o(.text)
    i.$Sub$$__main_after_scatterload         0x000007a8   Section        0  system_max32660.o(i.$Sub$$__main_after_scatterload)
    i.Board_Init                             0x000007b4   Section        0  board.o(i.Board_Init)
    i.CLOCKTimer                             0x00000818   Section        0  tim_my.o(i.CLOCKTimer)
    i.ClearScreen                            0x00000878   Section        0  oled_basic.o(i.ClearScreen)
    i.ClearScreenBuffer                      0x00000884   Section        0  oled_buffer.o(i.ClearScreenBuffer)
    i.Clock_Handler                          0x0000089c   Section        0  tim_my.o(i.Clock_Handler)
    i.Console_Init                           0x00000900   Section        0  board.o(i.Console_Init)
    i.ContinuousTimer                        0x00000928   Section        0  tim_my.o(i.ContinuousTimer)
    i.ContinuousTimer_Handler                0x00000994   Section        0  tim_my.o(i.ContinuousTimer_Handler)
    i.DrawChar                               0x00000a2c   Section        0  oled_draw.o(i.DrawChar)
    i.DrawCircle                             0x00000b68   Section        0  oled_draw.o(i.DrawCircle)
    i.DrawFastVLine                          0x00000c32   Section        0  oled_draw.o(i.DrawFastVLine)
    i.DrawFillCircle                         0x00000c74   Section        0  oled_draw.o(i.DrawFillCircle)
    i.DrawFillCircleHelper                   0x00000c9c   Section        0  oled_draw.o(i.DrawFillCircleHelper)
    i.DrawLine                               0x00000d3a   Section        0  oled_draw.o(i.DrawLine)
    i.DrawNum                                0x00000de6   Section        0  oled_draw.o(i.DrawNum)
    i.DriverInit                             0x00000ec8   Section        0  oled_config.o(i.DriverInit)
    i.GPIO0_IRQHandler                       0x00000ed4   Section        0  pb.o(i.GPIO0_IRQHandler)
    i.GPIO_Config                            0x00000ee0   Section        0  gpio_1.o(i.GPIO_Config)
    i.GPIO_Handler                           0x00000fd8   Section        0  gpio_1.o(i.GPIO_Handler)
    i.GPIO_INIT                              0x0000103c   Section        0  gpio_my.o(i.GPIO_INIT)
    i.GPIO_OutClr                            0x000010f0   Section        0  gpio_1.o(i.GPIO_OutClr)
    i.GPIO_OutSet                            0x00001108   Section        0  gpio_1.o(i.GPIO_OutSet)
    i.GetDrawColor                           0x00001120   Section        0  oled_color.o(i.GetDrawColor)
    i.GetFontSize                            0x0000112c   Section        0  oled_font.o(i.GetFontSize)
    i.GetRotateXY                            0x00001138   Section        0  oled_basic.o(i.GetRotateXY)
    i.GetTextBkMode                          0x00001198   Section        0  oled_font.o(i.GetTextBkMode)
    i.I2C_FreeCallback                       0x000011a4   Section        0  i2c_1.o(i.I2C_FreeCallback)
    I2C_FreeCallback                         0x000011a5   Thumb Code    36  i2c_1.o(i.I2C_FreeCallback)
    i.I2C_Init                               0x000011cc   Section        0  i2c_1.o(i.I2C_Init)
    i.I2C_MasterRead                         0x0000134c   Section        0  i2c_1.o(i.I2C_MasterRead)
    i.I2C_MasterWrite                        0x00001430   Section        0  i2c_1.o(i.I2C_MasterWrite)
    i.I2C_Recover                            0x0000150c   Section        0  i2c_1.o(i.I2C_Recover)
    I2C_Recover                              0x0000150d   Thumb Code    24  i2c_1.o(i.I2C_Recover)
    i.I2C_Setspeed                           0x00001524   Section        0  i2c_1.o(i.I2C_Setspeed)
    I2C_Setspeed                             0x00001525   Thumb Code   234  i2c_1.o(i.I2C_Setspeed)
    i.I2C_Shutdown                           0x0000161c   Section        0  i2c_1.o(i.I2C_Shutdown)
    i.IT_init                                0x00001694   Section        0  tim_my.o(i.IT_init)
    i.InitGraph                              0x000016d4   Section        0  oled_basic.o(i.InitGraph)
    i.LED_Init                               0x000016dc   Section        0  led.o(i.LED_Init)
    i.LED_Off                                0x00001714   Section        0  led.o(i.LED_Off)
    i.MPU_Get_Accelerometer                  0x0000172c   Section        0  mpu6050.o(i.MPU_Get_Accelerometer)
    i.MPU_Init                               0x000017a6   Section        0  mpu6050.o(i.MPU_Init)
    i.MPU_Read_Byte                          0x00001820   Section        0  mpu6050.o(i.MPU_Read_Byte)
    i.MPU_Set_Accel_Fsr                      0x00001860   Section        0  mpu6050.o(i.MPU_Set_Accel_Fsr)
    i.MPU_Set_Gyro_Fsr                       0x00001870   Section        0  mpu6050.o(i.MPU_Set_Gyro_Fsr)
    i.MPU_Set_LPF                            0x00001880   Section        0  mpu6050.o(i.MPU_Set_LPF)
    i.MPU_Set_Rate                           0x000018ba   Section        0  mpu6050.o(i.MPU_Set_Rate)
    i.MPU_Write_Byte                         0x000018f4   Section        0  mpu6050.o(i.MPU_Write_Byte)
    i.NMI_Handler                            0x00001948   Section        0  board.o(i.NMI_Handler)
    i.NVIC_SetRAM                            0x0000194c   Section        0  nvic_table.o(i.NVIC_SetRAM)
    i.NVIC_SetVector                         0x00001970   Section        0  nvic_table.o(i.NVIC_SetVector)
    i.OLED_CLS                               0x000019b4   Section        0  oled_driver.o(i.OLED_CLS)
    i.OLED_FILL                              0x000019ec   Section        0  oled_driver.o(i.OLED_FILL)
    i.OLED_Init                              0x00001a2e   Section        0  oled_driver.o(i.OLED_Init)
    i.OLED_WR_Byte                           0x00001ae0   Section        0  oled_driver.o(i.OLED_WR_Byte)
    i.OledPrintf                             0x00001b4c   Section        0  oled_debug.o(i.OledPrintf)
    i.PB_Init                                0x00001cdc   Section        0  pb.o(i.PB_Init)
    i.PreInit                                0x00001d10   Section        0  system_max32660.o(i.PreInit)
    i.Rotate                                 0x00001d14   Section        0  oled_basic.o(i.Rotate)
    Rotate                                   0x00001d15   Thumb Code   464  oled_basic.o(i.Rotate)
    i.RoundClock                             0x00001ee4   Section        0  clock.o(i.RoundClock)
    i.SPI_Configuration                      0x000020e8   Section        0  oled_driver.o(i.SPI_Configuration)
    i.SYS_ClockDisable                       0x000020f0   Section        0  mxc_sys.o(i.SYS_ClockDisable)
    i.SYS_ClockEnable                        0x0000211a   Section        0  mxc_sys.o(i.SYS_ClockEnable)
    i.SYS_Clock_Select                       0x00002144   Section        0  mxc_sys.o(i.SYS_Clock_Select)
    i.SYS_Clock_Timeout                      0x00002378   Section        0  mxc_sys.o(i.SYS_Clock_Timeout)
    SYS_Clock_Timeout                        0x00002379   Thumb Code    48  mxc_sys.o(i.SYS_Clock_Timeout)
    i.SYS_I2C_GetFreq                        0x000023a8   Section        0  mxc_sys.o(i.SYS_I2C_GetFreq)
    i.SYS_I2C_Init                           0x000023b8   Section        0  mxc_sys.o(i.SYS_I2C_Init)
    i.SYS_I2C_Shutdown                       0x00002404   Section        0  mxc_sys.o(i.SYS_I2C_Shutdown)
    i.SYS_TMR_Init                           0x00002478   Section        0  mxc_sys.o(i.SYS_TMR_Init)
    i.SYS_UART_Init                          0x000024d4   Section        0  mxc_sys.o(i.SYS_UART_Init)
    i.SYS_UART_Shutdown                      0x00002570   Section        0  mxc_sys.o(i.SYS_UART_Shutdown)
    i.SetAnggleDir                           0x0000259c   Section        0  oled_basic.o(i.SetAnggleDir)
    i.SetAngle                               0x000025a8   Section        0  oled_basic.o(i.SetAngle)
    i.SetFontSize                            0x00002624   Section        0  oled_font.o(i.SetFontSize)
    i.SetPointBuffer                         0x00002630   Section        0  oled_buffer.o(i.SetPointBuffer)
    i.SetRotateCenter                        0x00002738   Section        0  oled_basic.o(i.SetRotateCenter)
    i.SetRotateValue                         0x00002744   Section        0  oled_basic.o(i.SetRotateValue)
    i.SysTick_Handler                        0x00002770   Section        0  mxc_delay.o(i.SysTick_Handler)
    i.SystemCoreClockUpdate                  0x00002778   Section        0  system_max32660.o(i.SystemCoreClockUpdate)
    i.SystemInit                             0x000027dc   Section        0  system_max32660.o(i.SystemInit)
    i.TMR_Config                             0x00002888   Section        0  tmr.o(i.TMR_Config)
    i.TMR_Disable                            0x000028b2   Section        0  tmr.o(i.TMR_Disable)
    i.TMR_Enable                             0x000028bc   Section        0  tmr.o(i.TMR_Enable)
    i.TMR_Init                               0x000028c6   Section        0  tmr.o(i.TMR_Init)
    i.TMR_IntClear                           0x000028f0   Section        0  tmr.o(i.TMR_IntClear)
    i.UART1A_init                            0x000028f8   Section        0  uart_my.o(i.UART1A_init)
    i.UART1_IRQHandler                       0x00002a4c   Section        0  uart_my.o(i.UART1_IRQHandler)
    i.UART_Handler                           0x00002a70   Section        0  uart.o(i.UART_Handler)
    i.UART_Init                              0x00002ad8   Section        0  uart.o(i.UART_Init)
    i.UART_NumReadAvail                      0x00002bb4   Section        0  uart.o(i.UART_NumReadAvail)
    i.UART_NumWriteAvail                     0x00002bbe   Section        0  uart.o(i.UART_NumWriteAvail)
    i.UART_ReadAsync                         0x00002bcc   Section        0  uart.o(i.UART_ReadAsync)
    i.UART_ReadHandler                       0x00002c70   Section        0  uart.o(i.UART_ReadHandler)
    UART_ReadHandler                         0x00002c71   Thumb Code   202  uart.o(i.UART_ReadHandler)
    i.UART_Shutdown                          0x00002d40   Section        0  uart.o(i.UART_Shutdown)
    i.UART_WriteByte                         0x00002df8   Section        0  uart.o(i.UART_WriteByte)
    i.UART_WriteHandler                      0x00002e08   Section        0  uart.o(i.UART_WriteHandler)
    UART_WriteHandler                        0x00002e09   Thumb Code   130  uart.o(i.UART_WriteHandler)
    i.UpdateScreen                           0x00002e90   Section        0  oled_basic.o(i.UpdateScreen)
    i.UpdateScreenBuffer                     0x00002e98   Section        0  oled_config.o(i.UpdateScreenBuffer)
    i.UpdateScreenDisplay                    0x00002ea8   Section        0  oled_buffer.o(i.UpdateScreenDisplay)
    i.WriteByteBuffer                        0x00002eb0   Section        0  oled_buffer.o(i.WriteByteBuffer)
    i.WriteCmd                               0x00002ed8   Section        0  oled_driver.o(i.WriteCmd)
    i.WriteDat                               0x00002ee6   Section        0  oled_driver.o(i.WriteDat)
    i.__0printf$5                            0x00002ef4   Section        0  printf5.o(i.__0printf$5)
    i.__ARM_fpclassify                       0x00002f14   Section        0  fpclassify.o(i.__ARM_fpclassify)
    i.__NVIC_EnableIRQ                       0x00002f44   Section        0  tim_my.o(i.__NVIC_EnableIRQ)
    __NVIC_EnableIRQ                         0x00002f45   Thumb Code    26  tim_my.o(i.__NVIC_EnableIRQ)
    i.__NVIC_SetPriority                     0x00002f60   Section        0  tim_my.o(i.__NVIC_SetPriority)
    __NVIC_SetPriority                       0x00002f61   Thumb Code    32  tim_my.o(i.__NVIC_SetPriority)
    i.__hardfp_atan                          0x00002f88   Section        0  atan.o(i.__hardfp_atan)
    i.__hardfp_atan2                         0x00003260   Section        0  atan2.o(i.__hardfp_atan2)
    i.__hardfp_cos                           0x00003450   Section        0  cos.o(i.__hardfp_cos)
    i.__hardfp_sin                           0x00003518   Section        0  sin.o(i.__hardfp_sin)
    i.__ieee754_rem_pio2                     0x000035e0   Section        0  rred.o(i.__ieee754_rem_pio2)
    i.__kernel_cos                           0x00003a18   Section        0  cos_i.o(i.__kernel_cos)
    i.__kernel_poly                          0x00003b88   Section        0  poly.o(i.__kernel_poly)
    i.__kernel_sin                           0x00003c80   Section        0  sin_i.o(i.__kernel_sin)
    i.__mathlib_dbl_infnan                   0x00003db0   Section        0  dunder.o(i.__mathlib_dbl_infnan)
    i.__mathlib_dbl_infnan2                  0x00003dc4   Section        0  dunder.o(i.__mathlib_dbl_infnan2)
    i.__mathlib_dbl_invalid                  0x00003dd8   Section        0  dunder.o(i.__mathlib_dbl_invalid)
    i.__mathlib_dbl_underflow                0x00003df8   Section        0  dunder.o(i.__mathlib_dbl_underflow)
    i.__scatterload_copy                     0x00003e18   Section       14  handlers.o(i.__scatterload_copy)
    i.__scatterload_null                     0x00003e26   Section        2  handlers.o(i.__scatterload_null)
    i.__scatterload_zeroinit                 0x00003e28   Section       14  handlers.o(i.__scatterload_zeroinit)
    i.__set_errno                            0x00003e38   Section        0  errno.o(i.__set_errno)
    i._printf_core                           0x00003e44   Section        0  printf5.o(i._printf_core)
    _printf_core                             0x00003e45   Thumb Code   658  printf5.o(i._printf_core)
    i.atan                                   0x00004104   Section        0  atan.o(i.atan)
    i.detect_step                            0x00004114   Section        0  tracer_api.o(i.detect_step)
    i.fabs                                   0x000041cc   Section        0  fabs.o(i.fabs)
    i.filter_acc                             0x000041e4   Section        0  tim_my.o(i.filter_acc)
    i.fputc                                  0x000042b8   Section        0  stdio.o(i.fputc)
    i.fresh_g                                0x000042e4   Section        0  tim_my.o(i.fresh_g)
    i.fresh_s_time                           0x00004380   Section        0  uart_my.o(i.fresh_s_time)
    i.is_most_active                         0x000043f4   Section        0  tracer_api.o(i.is_most_active)
    i.m_pow                                  0x000044a2   Section        0  oled_debug.o(i.m_pow)
    m_pow                                    0x000044a3   Thumb Code    20  oled_debug.o(i.m_pow)
    i.m_putchar                              0x000044b8   Section        0  oled_debug.o(i.m_putchar)
    i.m_putstr                               0x00004524   Section        0  oled_debug.o(i.m_putstr)
    i.main                                   0x0000453c   Section        0  main.o(i.main)
    i.mxc_delay                              0x000045b8   Section        0  mxc_delay.o(i.mxc_delay)
    i.mxc_delay_check                        0x00004638   Section        0  mxc_delay.o(i.mxc_delay_check)
    i.mxc_delay_handler                      0x0000468c   Section        0  mxc_delay.o(i.mxc_delay_handler)
    i.mxc_delay_init                         0x000046e4   Section        0  mxc_delay.o(i.mxc_delay_init)
    mxc_delay_init                           0x000046e5   Thumb Code   154  mxc_delay.o(i.mxc_delay_init)
    i.mxc_delay_start                        0x00004798   Section        0  mxc_delay.o(i.mxc_delay_start)
    i.mxc_delay_stop                         0x000047e4   Section        0  mxc_delay.o(i.mxc_delay_stop)
    i.mxc_free_lock                          0x00004800   Section        0  mxc_lock.o(i.mxc_free_lock)
    i.mxc_get_lock                           0x00004816   Section        0  mxc_lock.o(i.mxc_get_lock)
    i.mySqrt                                 0x00004844   Section        0  oled_basic.o(i.mySqrt)
    i.oled_pow                               0x000048a4   Section        0  oled_basic.o(i.oled_pow)
    i.peak_caculate                          0x000048bc   Section        0  tim_my.o(i.peak_caculate)
    i.pgm_read_byte                          0x000049d4   Section        0  oled_basic.o(i.pgm_read_byte)
    i.read_cb                                0x000049dc   Section        0  uart_my.o(i.read_cb)
    i.slid_update                            0x00004a60   Section        0  tracer_api.o(i.slid_update)
    i.write_cb                               0x00004b30   Section        0  uart_my.o(i.write_cb)
    .constdata                               0x00004b3c   Section        4  main.o(.constdata)
    .constdata                               0x00004b40   Section        2  uart_my.o(.constdata)
    .constdata                               0x00004b42   Section     2970  oled_font.o(.constdata)
    .constdata                               0x000056dc   Section       50  board.o(.constdata)
    .constdata                               0x00005710   Section      192  mxc_pins.o(.constdata)
    .constdata                               0x000057d0   Section      152  atan.o(.constdata)
    atanhi                                   0x000057d0   Data          32  atan.o(.constdata)
    atanlo                                   0x000057f0   Data          32  atan.o(.constdata)
    aTodd                                    0x00005810   Data          40  atan.o(.constdata)
    aTeven                                   0x00005838   Data          48  atan.o(.constdata)
    .constdata                               0x00005868   Section       48  cos_i.o(.constdata)
    C                                        0x00005868   Data          48  cos_i.o(.constdata)
    .constdata                               0x00005898   Section        8  qnan.o(.constdata)
    .constdata                               0x000058a0   Section      200  rred.o(.constdata)
    pio2s                                    0x000058a0   Data          48  rred.o(.constdata)
    twooverpi                                0x000058d0   Data         152  rred.o(.constdata)
    .constdata                               0x00005968   Section       40  sin_i.o(.constdata)
    S                                        0x00005968   Data          40  sin_i.o(.constdata)
    .data                                    0x20000000   Section        8  main.o(.data)
    .data                                    0x20000008   Section       40  tim_my.o(.data)
    .data                                    0x20000030   Section       20  uart_my.o(.data)
    .data                                    0x20000044   Section       24  oled_basic.o(.data)
    _BitTableS                               0x20000054   Data           8  oled_basic.o(.data)
    .data                                    0x2000005c   Section        1  oled_buffer.o(.data)
    _SelectedBuffer                          0x2000005c   Data           1  oled_buffer.o(.data)
    .data                                    0x2000005d   Section        2  oled_color.o(.data)
    _Draw                                    0x2000005d   Data           1  oled_color.o(.data)
    _fill                                    0x2000005e   Data           1  oled_color.o(.data)
    .data                                    0x20000060   Section        9  oled_debug.o(.data)
    _cursor_x                                0x20000060   Data           4  oled_debug.o(.data)
    _cursor_y                                0x20000064   Data           4  oled_debug.o(.data)
    wrap                                     0x20000068   Data           1  oled_debug.o(.data)
    .data                                    0x20000069   Section        2  oled_font.o(.data)
    _TextBk                                  0x20000069   Data           1  oled_font.o(.data)
    _FontSize                                0x2000006a   Data           1  oled_font.o(.data)
    .data                                    0x2000006c   Section       20  clock.o(.data)
    .data                                    0x20000080   Section        4  tracer_api.o(.data)
    .data                                    0x20000084   Section        4  board.o(.data)
    .data                                    0x20000088   Section       16  stdio.o(.data)
    .data                                    0x20000098   Section       16  uart.o(.data)
    rx_states                                0x20000098   Data           8  uart.o(.data)
    tx_states                                0x200000a0   Data           8  uart.o(.data)
    .data                                    0x200000a8   Section       28  mxc_delay.o(.data)
    ctrl_save                                0x200000a8   Data           4  mxc_delay.o(.data)
    compare_value                            0x200000b0   Data           8  mxc_delay.o(.data)
    curr_value                               0x200000b8   Data           8  mxc_delay.o(.data)
    reload                                   0x200000c0   Data           4  mxc_delay.o(.data)
    .data                                    0x200000c4   Section        4  system_max32660.o(.data)
    .data                                    0x200000c8   Section        4  errno.o(.data)
    _errno                                   0x200000c8   Data           4  errno.o(.data)
    .bss                                     0x200000cc   Section       60  gpio_my.o(.bss)
    .bss                                     0x20000108   Section      596  tim_my.o(.bss)
    .bss                                     0x2000035c   Section       84  uart_my.o(.bss)
    .bss                                     0x200003b0   Section     2048  oled_buffer.o(.bss)
    .bss                                     0x20000bb0   Section       16  i2c_1.o(.bss)
    states                                   0x20000bb0   Data          16  i2c_1.o(.bss)
    .bss                                     0x20000c00   Section      284  nvic_table.o(.bss)
    ramVectorTable                           0x20000c00   Data         284  nvic_table.o(.bss)
    .bss                                     0x20000d1c   Section      112  gpio_1.o(.bss)
    callback                                 0x20000d1c   Data          56  gpio_1.o(.bss)
    cbparam                                  0x20000d54   Data          56  gpio_1.o(.bss)
    STACK                                    0x20000d90   Section     4096  startup_max32660.o(STACK)

    Global Symbols

    Symbol Name                              Value     Ov Type        Size  Object(Section)

    BuildAttributes$$THM_ISAv4$E$P$D$K$B$S$7EM$VFPi3$EXTD16$VFPS$VFMA$PE$A:L22UL41UL21$X:L11$S22US41US21$IEEE1$IW$USESV6$~STKCKD$USESV7$~SHL$OTIME$ROPI$IEEEX$EBA8$MICROLIB$REQ8$PRES8$EABIv2 0x00000000   Number         0  anon$$obj.o ABSOLUTE
    __ARM_use_no_argv                        0x00000000   Number         0  main.o ABSOLUTE
    __Vectors                                0x00000000   Data           0  startup_max32660.o(RESET)
    __isr_vector                             0x00000000   Data           4  startup_max32660.o(RESET)
    __use_no_errno                           0x00000000   Number         0  useno.o ABSOLUTE
    __use_no_exception_handling              0x00000000   Number         0  useno.o ABSOLUTE
    __use_no_fp                              0x00000000   Number         0  useno.o ABSOLUTE
    __use_no_heap                            0x00000000   Number         0  useno.o ABSOLUTE
    __use_no_heap_region                     0x00000000   Number         0  useno.o ABSOLUTE
    __use_no_semihosting                     0x00000000   Number         0  useno.o ABSOLUTE
    __use_no_semihosting_swi                 0x00000000   Number         0  useno.o ABSOLUTE
    __use_no_signal_handling                 0x00000000   Number         0  useno.o ABSOLUTE
    _printf_a                                0x00000000   Number         0  stubs.o ABSOLUTE
    _printf_c                                0x00000000   Number         0  stubs.o ABSOLUTE
    _printf_charcount                        0x00000000   Number         0  stubs.o ABSOLUTE
    _printf_d                                0x00000000   Number         0  stubs.o ABSOLUTE
    _printf_e                                0x00000000   Number         0  stubs.o ABSOLUTE
    _printf_f                                0x00000000   Number         0  stubs.o ABSOLUTE
    _printf_flags                            0x00000000   Number         0  stubs.o ABSOLUTE
    _printf_fp_dec                           0x00000000   Number         0  stubs.o ABSOLUTE
    _printf_fp_hex                           0x00000000   Number         0  stubs.o ABSOLUTE
    _printf_g                                0x00000000   Number         0  stubs.o ABSOLUTE
    _printf_i                                0x00000000   Number         0  stubs.o ABSOLUTE
    _printf_int_dec                          0x00000000   Number         0  stubs.o ABSOLUTE
    _printf_l                                0x00000000   Number         0  stubs.o ABSOLUTE
    _printf_lc                               0x00000000   Number         0  stubs.o ABSOLUTE
    _printf_ll                               0x00000000   Number         0  stubs.o ABSOLUTE
    _printf_lld                              0x00000000   Number         0  stubs.o ABSOLUTE
    _printf_lli                              0x00000000   Number         0  stubs.o ABSOLUTE
    _printf_llo                              0x00000000   Number         0  stubs.o ABSOLUTE
    _printf_llu                              0x00000000   Number         0  stubs.o ABSOLUTE
    _printf_llx                              0x00000000   Number         0  stubs.o ABSOLUTE
    _printf_longlong_dec                     0x00000000   Number         0  stubs.o ABSOLUTE
    _printf_longlong_hex                     0x00000000   Number         0  stubs.o ABSOLUTE
    _printf_longlong_oct                     0x00000000   Number         0  stubs.o ABSOLUTE
    _printf_ls                               0x00000000   Number         0  stubs.o ABSOLUTE
    _printf_mbtowc                           0x00000000   Number         0  stubs.o ABSOLUTE
    _printf_n                                0x00000000   Number         0  stubs.o ABSOLUTE
    _printf_o                                0x00000000   Number         0  stubs.o ABSOLUTE
    _printf_p                                0x00000000   Number         0  stubs.o ABSOLUTE
    _printf_percent                          0x00000000   Number         0  stubs.o ABSOLUTE
    _printf_pre_padding                      0x00000000   Number         0  stubs.o ABSOLUTE
    _printf_return_value                     0x00000000   Number         0  stubs.o ABSOLUTE
    _printf_s                                0x00000000   Number         0  stubs.o ABSOLUTE
    _printf_sizespec                         0x00000000   Number         0  stubs.o ABSOLUTE
    _printf_str                              0x00000000   Number         0  stubs.o ABSOLUTE
    _printf_truncate_signed                  0x00000000   Number         0  stubs.o ABSOLUTE
    _printf_truncate_unsigned                0x00000000   Number         0  stubs.o ABSOLUTE
    _printf_u                                0x00000000   Number         0  stubs.o ABSOLUTE
    _printf_wc                               0x00000000   Number         0  stubs.o ABSOLUTE
    _printf_wctomb                           0x00000000   Number         0  stubs.o ABSOLUTE
    _printf_widthprec                        0x00000000   Number         0  stubs.o ABSOLUTE
    _printf_x                                0x00000000   Number         0  stubs.o ABSOLUTE
    __cpp_initialize__aeabi_                  - Undefined Weak Reference
    __cxa_finalize                            - Undefined Weak Reference
    __decompress                              - Undefined Weak Reference
    _clock_init                               - Undefined Weak Reference
    _microlib_exit                            - Undefined Weak Reference
    __Vectors_End                            0x0000011c   Data           0  startup_max32660.o(RESET)
    __Vectors_Size                           0x0000011c   Number         0  startup_max32660.o ABSOLUTE
    __main                                   0x0000011d   Thumb Code     0  entry.o(.ARM.Collect$$$$00000000)
    _main_stk                                0x0000011d   Thumb Code     0  entry2.o(.ARM.Collect$$$$00000001)
    _main_scatterload                        0x00000121   Thumb Code     0  entry5.o(.ARM.Collect$$$$00000004)
    $Super$$__main_after_scatterload         0x00000125   Thumb Code     0  entry5.o(.ARM.Collect$$$$00000004)
    _main_clock                              0x00000125   Thumb Code     0  entry7b.o(.ARM.Collect$$$$00000008)
    _main_cpp_init                           0x00000125   Thumb Code     0  entry8b.o(.ARM.Collect$$$$0000000A)
    _main_init                               0x00000125   Thumb Code     0  entry9a.o(.ARM.Collect$$$$0000000B)
    __rt_final_cpp                           0x0000012d   Thumb Code     0  entry10a.o(.ARM.Collect$$$$0000000D)
    __rt_final_exit                          0x0000012d   Thumb Code     0  entry11a.o(.ARM.Collect$$$$0000000F)
    Reset_Handler                            0x00000131   Thumb Code    14  startup_max32660.o(.text)
    HardFault_Handler                        0x00000141   Thumb Code     2  startup_max32660.o(.text)
    MemManage_Handler                        0x00000143   Thumb Code     2  startup_max32660.o(.text)
    BusFault_Handler                         0x00000145   Thumb Code     2  startup_max32660.o(.text)
    UsageFault_Handler                       0x00000147   Thumb Code     2  startup_max32660.o(.text)
    SVC_Handler                              0x00000149   Thumb Code     2  startup_max32660.o(.text)
    DebugMon_Handler                         0x0000014b   Thumb Code     2  startup_max32660.o(.text)
    PendSV_Handler                           0x0000014d   Thumb Code     2  startup_max32660.o(.text)
    DMA0_IRQHandler                          0x0000014f   Thumb Code     0  startup_max32660.o(.text)
    DMA1_IRQHandler                          0x0000014f   Thumb Code     0  startup_max32660.o(.text)
    DMA2_IRQHandler                          0x0000014f   Thumb Code     0  startup_max32660.o(.text)
    DMA3_IRQHandler                          0x0000014f   Thumb Code     0  startup_max32660.o(.text)
    FLC_IRQHandler                           0x0000014f   Thumb Code     0  startup_max32660.o(.text)
    GPIOWAKE_IRQHandler                      0x0000014f   Thumb Code     0  startup_max32660.o(.text)
    I2C0_IRQHandler                          0x0000014f   Thumb Code     0  startup_max32660.o(.text)
    I2C1_IRQHandler                          0x0000014f   Thumb Code     0  startup_max32660.o(.text)
    PF_IRQHandler                            0x0000014f   Thumb Code     0  startup_max32660.o(.text)
    RSV00_IRQHandler                         0x0000014f   Thumb Code     0  startup_max32660.o(.text)
    RSV01_IRQHandler                         0x0000014f   Thumb Code     0  startup_max32660.o(.text)
    RSV02_IRQHandler                         0x0000014f   Thumb Code     0  startup_max32660.o(.text)
    RSV03_IRQHandler                         0x0000014f   Thumb Code     0  startup_max32660.o(.text)
    RSV04_IRQHandler                         0x0000014f   Thumb Code     0  startup_max32660.o(.text)
    RSV05_IRQHandler                         0x0000014f   Thumb Code     0  startup_max32660.o(.text)
    RSV06_IRQHandler                         0x0000014f   Thumb Code     0  startup_max32660.o(.text)
    RSV07_IRQHandler                         0x0000014f   Thumb Code     0  startup_max32660.o(.text)
    RSV08_IRQHandler                         0x0000014f   Thumb Code     0  startup_max32660.o(.text)
    RSV09_IRQHandler                         0x0000014f   Thumb Code     0  startup_max32660.o(.text)
    RSV10_IRQHandler                         0x0000014f   Thumb Code     0  startup_max32660.o(.text)
    RSV11_IRQHandler                         0x0000014f   Thumb Code     0  startup_max32660.o(.text)
    RSV12_IRQHandler                         0x0000014f   Thumb Code     0  startup_max32660.o(.text)
    RSV13_IRQHandler                         0x0000014f   Thumb Code     0  startup_max32660.o(.text)
    RSV14_IRQHandler                         0x0000014f   Thumb Code     0  startup_max32660.o(.text)
    RSV15_IRQHandler                         0x0000014f   Thumb Code     0  startup_max32660.o(.text)
    RSV16_IRQHandler                         0x0000014f   Thumb Code     0  startup_max32660.o(.text)
    RSV17_IRQHandler                         0x0000014f   Thumb Code     0  startup_max32660.o(.text)
    RSV18_IRQHandler                         0x0000014f   Thumb Code     0  startup_max32660.o(.text)
    RSV19_IRQHandler                         0x0000014f   Thumb Code     0  startup_max32660.o(.text)
    RSV20_IRQHandler                         0x0000014f   Thumb Code     0  startup_max32660.o(.text)
    RSV21_IRQHandler                         0x0000014f   Thumb Code     0  startup_max32660.o(.text)
    RSV22_IRQHandler                         0x0000014f   Thumb Code     0  startup_max32660.o(.text)
    RSV23_IRQHandler                         0x0000014f   Thumb Code     0  startup_max32660.o(.text)
    RSV24_IRQHandler                         0x0000014f   Thumb Code     0  startup_max32660.o(.text)
    RSV25_IRQHandler                         0x0000014f   Thumb Code     0  startup_max32660.o(.text)
    RSV26_IRQHandler                         0x0000014f   Thumb Code     0  startup_max32660.o(.text)
    RSV27_IRQHandler                         0x0000014f   Thumb Code     0  startup_max32660.o(.text)
    RSV28_IRQHandler                         0x0000014f   Thumb Code     0  startup_max32660.o(.text)
    RSV29_IRQHandler                         0x0000014f   Thumb Code     0  startup_max32660.o(.text)
    RSV30_IRQHandler                         0x0000014f   Thumb Code     0  startup_max32660.o(.text)
    RSV31_IRQHandler                         0x0000014f   Thumb Code     0  startup_max32660.o(.text)
    RSV32_IRQHandler                         0x0000014f   Thumb Code     0  startup_max32660.o(.text)
    RSV33_IRQHandler                         0x0000014f   Thumb Code     0  startup_max32660.o(.text)
    RSV34_IRQHandler                         0x0000014f   Thumb Code     0  startup_max32660.o(.text)
    RSV35_IRQHandler                         0x0000014f   Thumb Code     0  startup_max32660.o(.text)
    RTC_IRQHandler                           0x0000014f   Thumb Code     0  startup_max32660.o(.text)
    SPI0_IRQHandler                          0x0000014f   Thumb Code     0  startup_max32660.o(.text)
    SPI1_IRQHandler                          0x0000014f   Thumb Code     0  startup_max32660.o(.text)
    TMR0_IRQHandler                          0x0000014f   Thumb Code     0  startup_max32660.o(.text)
    TMR1_IRQHandler                          0x0000014f   Thumb Code     0  startup_max32660.o(.text)
    TMR2_IRQHandler                          0x0000014f   Thumb Code     0  startup_max32660.o(.text)
    UART0_IRQHandler                         0x0000014f   Thumb Code     0  startup_max32660.o(.text)
    WDT0_IRQHandler                          0x0000014f   Thumb Code     0  startup_max32660.o(.text)
    __aeabi_uldivmod                         0x00000159   Thumb Code    98  uldiv.o(.text)
    __aeabi_memcpy                           0x000001bb   Thumb Code    36  memcpya.o(.text)
    __aeabi_memcpy4                          0x000001bb   Thumb Code     0  memcpya.o(.text)
    __aeabi_memcpy8                          0x000001bb   Thumb Code     0  memcpya.o(.text)
    __aeabi_memset                           0x000001df   Thumb Code    14  memseta.o(.text)
    __aeabi_memset4                          0x000001df   Thumb Code     0  memseta.o(.text)
    __aeabi_memset8                          0x000001df   Thumb Code     0  memseta.o(.text)
    __aeabi_memclr                           0x000001ed   Thumb Code     4  memseta.o(.text)
    __aeabi_memclr4                          0x000001ed   Thumb Code     0  memseta.o(.text)
    __aeabi_memclr8                          0x000001ed   Thumb Code     0  memseta.o(.text)
    _memset$wrapper                          0x000001f1   Thumb Code    18  memseta.o(.text)
    strlen                                   0x00000203   Thumb Code    14  strlen.o(.text)
    __aeabi_dadd                             0x00000211   Thumb Code   322  dadd.o(.text)
    __aeabi_dsub                             0x00000353   Thumb Code     6  dadd.o(.text)
    __aeabi_drsub                            0x00000359   Thumb Code     6  dadd.o(.text)
    __aeabi_dmul                             0x0000035f   Thumb Code   228  dmul.o(.text)
    __aeabi_ddiv                             0x00000443   Thumb Code   222  ddiv.o(.text)
    __aeabi_i2d                              0x00000521   Thumb Code    34  dflti.o(.text)
    __aeabi_d2iz                             0x00000543   Thumb Code    62  dfixi.o(.text)
    __aeabi_f2d                              0x00000581   Thumb Code    38  f2d.o(.text)
    __aeabi_d2f                              0x000005a7   Thumb Code    56  d2f.o(.text)
    __scatterload                            0x000005e1   Thumb Code    28  init.o(.text)
    __scatterload_rt2                        0x000005e1   Thumb Code     0  init.o(.text)
    __aeabi_llsl                             0x00000605   Thumb Code    30  llshl.o(.text)
    _ll_shift_l                              0x00000605   Thumb Code     0  llshl.o(.text)
    __aeabi_llsr                             0x00000623   Thumb Code    32  llushr.o(.text)
    _ll_ushift_r                             0x00000623   Thumb Code     0  llushr.o(.text)
    __aeabi_lasr                             0x00000643   Thumb Code    36  llsshr.o(.text)
    _ll_sshift_r                             0x00000643   Thumb Code     0  llsshr.o(.text)
    __I$use$fp                               0x00000667   Thumb Code     0  iusefp.o(.text)
    _float_round                             0x00000667   Thumb Code    18  fepilogue.o(.text)
    _float_epilogue                          0x00000679   Thumb Code    92  fepilogue.o(.text)
    _double_round                            0x000006d5   Thumb Code    30  depilogue.o(.text)
    _double_epilogue                         0x000006f3   Thumb Code   156  depilogue.o(.text)
    __aeabi_ui2d                             0x0000078f   Thumb Code    26  dfltui.o(.text)
    __main_after_scatterload                 0x000007a9   Thumb Code    12  system_max32660.o(i.$Sub$$__main_after_scatterload)
    Board_Init                               0x000007b5   Thumb Code    90  board.o(i.Board_Init)
    CLOCKTimer                               0x00000819   Thumb Code    58  tim_my.o(i.CLOCKTimer)
    ClearScreen                              0x00000879   Thumb Code    10  oled_basic.o(i.ClearScreen)
    ClearScreenBuffer                        0x00000885   Thumb Code    18  oled_buffer.o(i.ClearScreenBuffer)
    Clock_Handler                            0x0000089d   Thumb Code    80  tim_my.o(i.Clock_Handler)
    Console_Init                             0x00000901   Thumb Code    26  board.o(i.Console_Init)
    ContinuousTimer                          0x00000929   Thumb Code    72  tim_my.o(i.ContinuousTimer)
    ContinuousTimer_Handler                  0x00000995   Thumb Code   120  tim_my.o(i.ContinuousTimer_Handler)
    DrawChar                                 0x00000a2d   Thumb Code   306  oled_draw.o(i.DrawChar)
    DrawCircle                               0x00000b69   Thumb Code   202  oled_draw.o(i.DrawCircle)
    DrawFastVLine                            0x00000c33   Thumb Code    66  oled_draw.o(i.DrawFastVLine)
    DrawFillCircle                           0x00000c75   Thumb Code    40  oled_draw.o(i.DrawFillCircle)
    DrawFillCircleHelper                     0x00000c9d   Thumb Code   158  oled_draw.o(i.DrawFillCircleHelper)
    DrawLine                                 0x00000d3b   Thumb Code   172  oled_draw.o(i.DrawLine)
    DrawNum                                  0x00000de7   Thumb Code   226  oled_draw.o(i.DrawNum)
    DriverInit                               0x00000ec9   Thumb Code    12  oled_config.o(i.DriverInit)
    GPIO0_IRQHandler                         0x00000ed5   Thumb Code    10  pb.o(i.GPIO0_IRQHandler)
    GPIO_Config                              0x00000ee1   Thumb Code   242  gpio_1.o(i.GPIO_Config)
    GPIO_Handler                             0x00000fd9   Thumb Code    88  gpio_1.o(i.GPIO_Handler)
    GPIO_INIT                                0x0000103d   Thumb Code   158  gpio_my.o(i.GPIO_INIT)
    GPIO_OutClr                              0x000010f1   Thumb Code    18  gpio_1.o(i.GPIO_OutClr)
    GPIO_OutSet                              0x00001109   Thumb Code    18  gpio_1.o(i.GPIO_OutSet)
    GetDrawColor                             0x00001121   Thumb Code     6  oled_color.o(i.GetDrawColor)
    GetFontSize                              0x0000112d   Thumb Code     6  oled_font.o(i.GetFontSize)
    GetRotateXY                              0x00001139   Thumb Code    90  oled_basic.o(i.GetRotateXY)
    GetTextBkMode                            0x00001199   Thumb Code     6  oled_font.o(i.GetTextBkMode)
    I2C_Init                                 0x000011cd   Thumb Code   368  i2c_1.o(i.I2C_Init)
    I2C_MasterRead                           0x0000134d   Thumb Code   228  i2c_1.o(i.I2C_MasterRead)
    I2C_MasterWrite                          0x00001431   Thumb Code   220  i2c_1.o(i.I2C_MasterWrite)
    I2C_Shutdown                             0x0000161d   Thumb Code   106  i2c_1.o(i.I2C_Shutdown)
    IT_init                                  0x00001695   Thumb Code    56  tim_my.o(i.IT_init)
    InitGraph                                0x000016d5   Thumb Code     8  oled_basic.o(i.InitGraph)
    LED_Init                                 0x000016dd   Thumb Code    48  led.o(i.LED_Init)
    LED_Off                                  0x00001715   Thumb Code    20  led.o(i.LED_Off)
    MPU_Get_Accelerometer                    0x0000172d   Thumb Code   122  mpu6050.o(i.MPU_Get_Accelerometer)
    MPU_Init                                 0x000017a7   Thumb Code   120  mpu6050.o(i.MPU_Init)
    MPU_Read_Byte                            0x00001821   Thumb Code    54  mpu6050.o(i.MPU_Read_Byte)
    MPU_Set_Accel_Fsr                        0x00001861   Thumb Code    16  mpu6050.o(i.MPU_Set_Accel_Fsr)
    MPU_Set_Gyro_Fsr                         0x00001871   Thumb Code    16  mpu6050.o(i.MPU_Set_Gyro_Fsr)
    MPU_Set_LPF                              0x00001881   Thumb Code    58  mpu6050.o(i.MPU_Set_LPF)
    MPU_Set_Rate                             0x000018bb   Thumb Code    58  mpu6050.o(i.MPU_Set_Rate)
    MPU_Write_Byte                           0x000018f5   Thumb Code    56  mpu6050.o(i.MPU_Write_Byte)
    NMI_Handler                              0x00001949   Thumb Code     4  board.o(i.NMI_Handler)
    NVIC_SetRAM                              0x0000194d   Thumb Code    22  nvic_table.o(i.NVIC_SetRAM)
    NVIC_SetVector                           0x00001971   Thumb Code    60  nvic_table.o(i.NVIC_SetVector)
    OLED_CLS                                 0x000019b5   Thumb Code    56  oled_driver.o(i.OLED_CLS)
    OLED_FILL                                0x000019ed   Thumb Code    66  oled_driver.o(i.OLED_FILL)
    OLED_Init                                0x00001a2f   Thumb Code   176  oled_driver.o(i.OLED_Init)
    OLED_WR_Byte                             0x00001ae1   Thumb Code    90  oled_driver.o(i.OLED_WR_Byte)
    OledPrintf                               0x00001b4d   Thumb Code   394  oled_debug.o(i.OledPrintf)
    PB_Init                                  0x00001cdd   Thumb Code    42  pb.o(i.PB_Init)
    PreInit                                  0x00001d11   Thumb Code     4  system_max32660.o(i.PreInit)
    RoundClock                               0x00001ee5   Thumb Code   498  clock.o(i.RoundClock)
    SPI_Configuration                        0x000020e9   Thumb Code     8  oled_driver.o(i.SPI_Configuration)
    SYS_ClockDisable                         0x000020f1   Thumb Code    42  mxc_sys.o(i.SYS_ClockDisable)
    SYS_ClockEnable                          0x0000211b   Thumb Code    42  mxc_sys.o(i.SYS_ClockEnable)
    SYS_Clock_Select                         0x00002145   Thumb Code   556  mxc_sys.o(i.SYS_Clock_Select)
    SYS_I2C_GetFreq                          0x000023a9   Thumb Code    10  mxc_sys.o(i.SYS_I2C_GetFreq)
    SYS_I2C_Init                             0x000023b9   Thumb Code    58  mxc_sys.o(i.SYS_I2C_Init)
    SYS_I2C_Shutdown                         0x00002405   Thumb Code   100  mxc_sys.o(i.SYS_I2C_Shutdown)
    SYS_TMR_Init                             0x00002479   Thumb Code    74  mxc_sys.o(i.SYS_TMR_Init)
    SYS_UART_Init                            0x000024d5   Thumb Code   122  mxc_sys.o(i.SYS_UART_Init)
    SYS_UART_Shutdown                        0x00002571   Thumb Code    34  mxc_sys.o(i.SYS_UART_Shutdown)
    SetAnggleDir                             0x0000259d   Thumb Code     6  oled_basic.o(i.SetAnggleDir)
    SetAngle                                 0x000025a9   Thumb Code    96  oled_basic.o(i.SetAngle)
    SetFontSize                              0x00002625   Thumb Code     6  oled_font.o(i.SetFontSize)
    SetPointBuffer                           0x00002631   Thumb Code   252  oled_buffer.o(i.SetPointBuffer)
    SetRotateCenter                          0x00002739   Thumb Code     8  oled_basic.o(i.SetRotateCenter)
    SetRotateValue                           0x00002745   Thumb Code    44  oled_basic.o(i.SetRotateValue)
    SysTick_Handler                          0x00002771   Thumb Code     8  mxc_delay.o(i.SysTick_Handler)
    SystemCoreClockUpdate                    0x00002779   Thumb Code    80  system_max32660.o(i.SystemCoreClockUpdate)
    SystemInit                               0x000027dd   Thumb Code   156  system_max32660.o(i.SystemInit)
    TMR_Config                               0x00002889   Thumb Code    42  tmr.o(i.TMR_Config)
    TMR_Disable                              0x000028b3   Thumb Code    10  tmr.o(i.TMR_Disable)
    TMR_Enable                               0x000028bd   Thumb Code    10  tmr.o(i.TMR_Enable)
    TMR_Init                                 0x000028c7   Thumb Code    42  tmr.o(i.TMR_Init)
    TMR_IntClear                             0x000028f1   Thumb Code     6  tmr.o(i.TMR_IntClear)
    UART1A_init                              0x000028f9   Thumb Code   260  uart_my.o(i.UART1A_init)
    UART1_IRQHandler                         0x00002a4d   Thumb Code    16  uart_my.o(i.UART1_IRQHandler)
    UART_Handler                             0x00002a71   Thumb Code    86  uart.o(i.UART_Handler)
    UART_Init                                0x00002ad9   Thumb Code   198  uart.o(i.UART_Init)
    UART_NumReadAvail                        0x00002bb5   Thumb Code    10  uart.o(i.UART_NumReadAvail)
    UART_NumWriteAvail                       0x00002bbf   Thumb Code    14  uart.o(i.UART_NumWriteAvail)
    UART_ReadAsync                           0x00002bcd   Thumb Code   150  uart.o(i.UART_ReadAsync)
    UART_Shutdown                            0x00002d41   Thumb Code   166  uart.o(i.UART_Shutdown)
    UART_WriteByte                           0x00002df9   Thumb Code    16  uart.o(i.UART_WriteByte)
    UpdateScreen                             0x00002e91   Thumb Code     8  oled_basic.o(i.UpdateScreen)
    UpdateScreenBuffer                       0x00002e99   Thumb Code    10  oled_config.o(i.UpdateScreenBuffer)
    UpdateScreenDisplay                      0x00002ea9   Thumb Code     8  oled_buffer.o(i.UpdateScreenDisplay)
    WriteByteBuffer                          0x00002eb1   Thumb Code    26  oled_buffer.o(i.WriteByteBuffer)
    WriteCmd                                 0x00002ed9   Thumb Code    14  oled_driver.o(i.WriteCmd)
    WriteDat                                 0x00002ee7   Thumb Code    14  oled_driver.o(i.WriteDat)
    __0printf$5                              0x00002ef5   Thumb Code    22  printf5.o(i.__0printf$5)
    __1printf$5                              0x00002ef5   Thumb Code     0  printf5.o(i.__0printf$5)
    __2printf                                0x00002ef5   Thumb Code     0  printf5.o(i.__0printf$5)
    __ARM_fpclassify                         0x00002f15   Thumb Code    48  fpclassify.o(i.__ARM_fpclassify)
    __hardfp_atan                            0x00002f89   Thumb Code   622  atan.o(i.__hardfp_atan)
    __hardfp_atan2                           0x00003261   Thumb Code   432  atan2.o(i.__hardfp_atan2)
    __hardfp_cos                             0x00003451   Thumb Code   180  cos.o(i.__hardfp_cos)
    __hardfp_sin                             0x00003519   Thumb Code   180  sin.o(i.__hardfp_sin)
    __ieee754_rem_pio2                       0x000035e1   Thumb Code   938  rred.o(i.__ieee754_rem_pio2)
    __kernel_cos                             0x00003a19   Thumb Code   322  cos_i.o(i.__kernel_cos)
    __kernel_poly                            0x00003b89   Thumb Code   248  poly.o(i.__kernel_poly)
    __kernel_sin                             0x00003c81   Thumb Code   280  sin_i.o(i.__kernel_sin)
    __mathlib_dbl_infnan                     0x00003db1   Thumb Code    20  dunder.o(i.__mathlib_dbl_infnan)
    __mathlib_dbl_infnan2                    0x00003dc5   Thumb Code    20  dunder.o(i.__mathlib_dbl_infnan2)
    __mathlib_dbl_invalid                    0x00003dd9   Thumb Code    24  dunder.o(i.__mathlib_dbl_invalid)
    __mathlib_dbl_underflow                  0x00003df9   Thumb Code    24  dunder.o(i.__mathlib_dbl_underflow)
    __scatterload_copy                       0x00003e19   Thumb Code    14  handlers.o(i.__scatterload_copy)
    __scatterload_null                       0x00003e27   Thumb Code     2  handlers.o(i.__scatterload_null)
    __scatterload_zeroinit                   0x00003e29   Thumb Code    14  handlers.o(i.__scatterload_zeroinit)
    __set_errno                              0x00003e39   Thumb Code     6  errno.o(i.__set_errno)
    atan                                     0x00004105   Thumb Code    16  atan.o(i.atan)
    detect_step                              0x00004115   Thumb Code   178  tracer_api.o(i.detect_step)
    fabs                                     0x000041cd   Thumb Code    24  fabs.o(i.fabs)
    filter_acc                               0x000041e5   Thumb Code   192  tim_my.o(i.filter_acc)
    fputc                                    0x000042b9   Thumb Code    40  stdio.o(i.fputc)
    fresh_g                                  0x000042e5   Thumb Code   132  tim_my.o(i.fresh_g)
    fresh_s_time                             0x00004381   Thumb Code   102  uart_my.o(i.fresh_s_time)
    is_most_active                           0x000043f5   Thumb Code   174  tracer_api.o(i.is_most_active)
    m_putchar                                0x000044b9   Thumb Code    94  oled_debug.o(i.m_putchar)
    m_putstr                                 0x00004525   Thumb Code    22  oled_debug.o(i.m_putstr)
    main                                     0x0000453d   Thumb Code    60  main.o(i.main)
    mxc_delay                                0x000045b9   Thumb Code   116  mxc_delay.o(i.mxc_delay)
    mxc_delay_check                          0x00004639   Thumb Code    72  mxc_delay.o(i.mxc_delay_check)
    mxc_delay_handler                        0x0000468d   Thumb Code    76  mxc_delay.o(i.mxc_delay_handler)
    mxc_delay_start                          0x00004799   Thumb Code    72  mxc_delay.o(i.mxc_delay_start)
    mxc_delay_stop                           0x000047e5   Thumb Code    20  mxc_delay.o(i.mxc_delay_stop)
    mxc_free_lock                            0x00004801   Thumb Code    22  mxc_lock.o(i.mxc_free_lock)
    mxc_get_lock                             0x00004817   Thumb Code    44  mxc_lock.o(i.mxc_get_lock)
    mySqrt                                   0x00004845   Thumb Code    84  oled_basic.o(i.mySqrt)
    oled_pow                                 0x000048a5   Thumb Code    22  oled_basic.o(i.oled_pow)
    peak_caculate                            0x000048bd   Thumb Code   266  tim_my.o(i.peak_caculate)
    pgm_read_byte                            0x000049d5   Thumb Code     6  oled_basic.o(i.pgm_read_byte)
    read_cb                                  0x000049dd   Thumb Code    88  uart_my.o(i.read_cb)
    slid_update                              0x00004a61   Thumb Code   206  tracer_api.o(i.slid_update)
    write_cb                                 0x00004b31   Thumb Code     6  uart_my.o(i.write_cb)
    sys_i2c_cfg                              0x00004b3c   Data           4  main.o(.constdata)
    sys_uart_cfg                             0x00004b40   Data           2  uart_my.o(.constdata)
    font5x7                                  0x00004b42   Data        1280  oled_font.o(.constdata)
    F8X16                                    0x00005042   Data        1520  oled_font.o(.constdata)
    CN16CHAR                                 0x00005632   Data         170  oled_font.o(.constdata)
    pb_pin                                   0x000056dc   Data          12  board.o(.constdata)
    num_pbs                                  0x000056e8   Data           4  board.o(.constdata)
    led_pin                                  0x000056ec   Data          12  board.o(.constdata)
    num_leds                                 0x000056f8   Data           4  board.o(.constdata)
    console_uart_cfg                         0x000056fc   Data          16  board.o(.constdata)
    console_uart_sys_cfg                     0x0000570c   Data           2  board.o(.constdata)
    gpio_cfg_tmr0                            0x00005710   Data          12  mxc_pins.o(.constdata)
    gpio_cfg_uart0rtscts                     0x0000571c   Data          12  mxc_pins.o(.constdata)
    gpio_cfg_uart0a                          0x00005728   Data          12  mxc_pins.o(.constdata)
    gpio_cfg_uart1rtscts                     0x00005734   Data          12  mxc_pins.o(.constdata)
    gpio_cfg_uart1a                          0x00005740   Data          12  mxc_pins.o(.constdata)
    gpio_cfg_uart1b                          0x0000574c   Data          12  mxc_pins.o(.constdata)
    gpio_cfg_uart1c                          0x00005758   Data          12  mxc_pins.o(.constdata)
    gpio_cfg_i2c0                            0x00005764   Data          12  mxc_pins.o(.constdata)
    gpio_cfg_i2c1                            0x00005770   Data          12  mxc_pins.o(.constdata)
    gpio_cfg_spi17y                          0x0000577c   Data          12  mxc_pins.o(.constdata)
    gpio_cfg_spimss1a                        0x00005788   Data          12  mxc_pins.o(.constdata)
    gpio_cfg_spimss1b                        0x00005794   Data          12  mxc_pins.o(.constdata)
    gpio_cfg_i2s1a                           0x000057a0   Data          12  mxc_pins.o(.constdata)
    gpio_cfg_i2s1b                           0x000057ac   Data          12  mxc_pins.o(.constdata)
    gpio_cfg_swd                             0x000057b8   Data          12  mxc_pins.o(.constdata)
    gpio_cfg_rtc                             0x000057c4   Data          12  mxc_pins.o(.constdata)
    __mathlib_zero                           0x00005898   Data           8  qnan.o(.constdata)
    Region$$Table$$Base                      0x00005990   Number         0  anon$$obj.o(Region$$Table)
    Region$$Table$$Limit                     0x000059b0   Number         0  anon$$obj.o(Region$$Table)
    error                                    0x20000000   Data           4  main.o(.data)
    i                                        0x20000004   Data           4  main.o(.data)
    sec                                      0x20000008   Data           4  tim_my.o(.data)
    min                                      0x2000000c   Data           4  tim_my.o(.data)
    hour                                     0x20000010   Data           4  tim_my.o(.data)
    mpu                                      0x20000014   Data           6  tim_my.o(.data)
    acc_cnt                                  0x2000001c   Data           4  tim_my.o(.data)
    pre_ax                                   0x20000020   Data           2  tim_my.o(.data)
    acc_peak_cnt                             0x20000024   Data           4  tim_my.o(.data)
    G_direction                              0x20000028   Data           4  tim_my.o(.data)
    temp_cnt                                 0x2000002c   Data           4  tim_my.o(.data)
    read_flag                                0x20000030   Data           4  uart_my.o(.data)
    write_flag                               0x20000034   Data           4  uart_my.o(.data)
    time_begin                               0x20000038   Data           6  uart_my.o(.data)
    datare                                   0x20000040   Data           4  uart_my.o(.data)
    _RoateValue                              0x20000044   Data          16  oled_basic.o(.data)
    center_pos                               0x2000006c   Data           8  clock.o(.data)
    CLOCK_R                                  0x20000074   Data           4  clock.o(.data)
    CLOCK_LEN                                0x20000078   Data           4  clock.o(.data)
    clock_angle                              0x2000007c   Data           4  clock.o(.data)
    step_cnt                                 0x20000080   Data           4  tracer_api.o(.data)
    ConsoleUART                              0x20000084   Data           4  board.o(.data)
    __stdout                                 0x20000088   Data           4  stdio.o(.data)
    __stdin                                  0x2000008c   Data           4  stdio.o(.data)
    g_lastChar                               0x20000090   Data           4  stdio.o(.data)
    g_readChar                               0x20000094   Data           4  stdio.o(.data)
    SystemCoreClock                          0x200000c4   Data           4  system_max32660.o(.data)
    GPIO_CS                                  0x200000cc   Data          12  gpio_my.o(.bss)
    GPIO_DC                                  0x200000d8   Data          12  gpio_my.o(.bss)
    GPIO_RES                                 0x200000e4   Data          12  gpio_my.o(.bss)
    GPIO_DIN                                 0x200000f0   Data          12  gpio_my.o(.bss)
    GPIO_CLK                                 0x200000fc   Data          12  gpio_my.o(.bss)
    acc_buff                                 0x20000108   Data         512  tim_my.o(.bss)
    acc_xADD                                 0x20000308   Data          20  tim_my.o(.bss)
    acc_yADD                                 0x2000031c   Data          20  tim_my.o(.bss)
    acc_zADD                                 0x20000330   Data          20  tim_my.o(.bss)
    peak_acc                                 0x20000344   Data          12  tim_my.o(.bss)
    temp_acc                                 0x20000350   Data          12  tim_my.o(.bss)
    txdata                                   0x2000035c   Data          25  uart_my.o(.bss)
    rxdata                                   0x20000375   Data          25  uart_my.o(.bss)
    read_req                                 0x20000390   Data          16  uart_my.o(.bss)
    write_req                                0x200003a0   Data          16  uart_my.o(.bss)
    ScreenBuffer                             0x200003b0   Data        1024  oled_buffer.o(.bss)
    TempBuffer                               0x200007b0   Data        1024  oled_buffer.o(.bss)
    __initial_sp                             0x20001d90   Data           0  startup_max32660.o(STACK)



==============================================================================

Memory Map of the image

  Image Entry point : 0x0000011d

  Load Region LR_IROM1 (Base: 0x00000000, Size: 0x00005a7c, Max: 0x00040000, ABSOLUTE)

    Execution Region ER_IROM1 (Exec base: 0x00000000, Load base: 0x00000000, Size: 0x000059b0, Max: 0x00040000, ABSOLUTE)

    Exec Addr    Load Addr    Size         Type   Attr      Idx    E Section Name        Object

    0x00000000   0x00000000   0x0000011c   Data   RO         3103    RESET               startup_max32660.o
    0x0000011c   0x0000011c   0x00000000   Code   RO         3630  * .ARM.Collect$$$$00000000  mc_w.l(entry.o)
    0x0000011c   0x0000011c   0x00000004   Code   RO         3968    .ARM.Collect$$$$00000001  mc_w.l(entry2.o)
    0x00000120   0x00000120   0x00000004   Code   RO         3631    .ARM.Collect$$$$00000004  mc_w.l(entry5.o)
    0x00000124   0x00000124   0x00000000   Code   RO         3972    .ARM.Collect$$$$00000008  mc_w.l(entry7b.o)
    0x00000124   0x00000124   0x00000000   Code   RO         3974    .ARM.Collect$$$$0000000A  mc_w.l(entry8b.o)
    0x00000124   0x00000124   0x00000008   Code   RO         3975    .ARM.Collect$$$$0000000B  mc_w.l(entry9a.o)
    0x0000012c   0x0000012c   0x00000000   Code   RO         3977    .ARM.Collect$$$$0000000D  mc_w.l(entry10a.o)
    0x0000012c   0x0000012c   0x00000000   Code   RO         3979    .ARM.Collect$$$$0000000F  mc_w.l(entry11a.o)
    0x0000012c   0x0000012c   0x00000004   Code   RO         3969    .ARM.Collect$$$$00002712  mc_w.l(entry2.o)
    0x00000130   0x00000130   0x00000028   Code   RO         3104    .text               startup_max32660.o
    0x00000158   0x00000158   0x00000062   Code   RO         3634    .text               mc_w.l(uldiv.o)
    0x000001ba   0x000001ba   0x00000024   Code   RO         3636    .text               mc_w.l(memcpya.o)
    0x000001de   0x000001de   0x00000024   Code   RO         3638    .text               mc_w.l(memseta.o)
    0x00000202   0x00000202   0x0000000e   Code   RO         3640    .text               mc_w.l(strlen.o)
    0x00000210   0x00000210   0x0000014e   Code   RO         3905    .text               mf_w.l(dadd.o)
    0x0000035e   0x0000035e   0x000000e4   Code   RO         3907    .text               mf_w.l(dmul.o)
    0x00000442   0x00000442   0x000000de   Code   RO         3909    .text               mf_w.l(ddiv.o)
    0x00000520   0x00000520   0x00000022   Code   RO         3911    .text               mf_w.l(dflti.o)
    0x00000542   0x00000542   0x0000003e   Code   RO         3913    .text               mf_w.l(dfixi.o)
    0x00000580   0x00000580   0x00000026   Code   RO         3915    .text               mf_w.l(f2d.o)
    0x000005a6   0x000005a6   0x00000038   Code   RO         3917    .text               mf_w.l(d2f.o)
    0x000005de   0x000005de   0x00000002   PAD
    0x000005e0   0x000005e0   0x00000024   Code   RO         3981    .text               mc_w.l(init.o)
    0x00000604   0x00000604   0x0000001e   Code   RO         3985    .text               mc_w.l(llshl.o)
    0x00000622   0x00000622   0x00000020   Code   RO         3987    .text               mc_w.l(llushr.o)
    0x00000642   0x00000642   0x00000024   Code   RO         3989    .text               mc_w.l(llsshr.o)
    0x00000666   0x00000666   0x00000000   Code   RO         3998    .text               mc_w.l(iusefp.o)
    0x00000666   0x00000666   0x0000006e   Code   RO         3999    .text               mf_w.l(fepilogue.o)
    0x000006d4   0x000006d4   0x000000ba   Code   RO         4001    .text               mf_w.l(depilogue.o)
    0x0000078e   0x0000078e   0x0000001a   Code   RO         4013    .text               mf_w.l(dfltui.o)
    0x000007a8   0x000007a8   0x0000000c   Code   RO         3111    i.$Sub$$__main_after_scatterload  system_max32660.o
    0x000007b4   0x000007b4   0x00000064   Code   RO         1318    i.Board_Init        board.o
    0x00000818   0x00000818   0x00000060   Code   RO          246    i.CLOCKTimer        tim_my.o
    0x00000878   0x00000878   0x0000000a   Code   RO          405    i.ClearScreen       oled_basic.o
    0x00000882   0x00000882   0x00000002   PAD
    0x00000884   0x00000884   0x00000018   Code   RO          582    i.ClearScreenBuffer  oled_buffer.o
    0x0000089c   0x0000089c   0x00000064   Code   RO          247    i.Clock_Handler     tim_my.o
    0x00000900   0x00000900   0x00000028   Code   RO         1319    i.Console_Init      board.o
    0x00000928   0x00000928   0x0000006c   Code   RO          248    i.ContinuousTimer   tim_my.o
    0x00000994   0x00000994   0x00000098   Code   RO          249    i.ContinuousTimer_Handler  tim_my.o
    0x00000a2c   0x00000a2c   0x0000013c   Code   RO          824    i.DrawChar          oled_draw.o
    0x00000b68   0x00000b68   0x000000ca   Code   RO          825    i.DrawCircle        oled_draw.o
    0x00000c32   0x00000c32   0x00000042   Code   RO          830    i.DrawFastVLine     oled_draw.o
    0x00000c74   0x00000c74   0x00000028   Code   RO          832    i.DrawFillCircle    oled_draw.o
    0x00000c9c   0x00000c9c   0x0000009e   Code   RO          833    i.DrawFillCircleHelper  oled_draw.o
    0x00000d3a   0x00000d3a   0x000000ac   Code   RO          838    i.DrawLine          oled_draw.o
    0x00000de6   0x00000de6   0x000000e2   Code   RO          839    i.DrawNum           oled_draw.o
    0x00000ec8   0x00000ec8   0x0000000c   Code   RO          709    i.DriverInit        oled_config.o
    0x00000ed4   0x00000ed4   0x0000000a   Code   RO         1437    i.GPIO0_IRQHandler  pb.o
    0x00000ede   0x00000ede   0x00000002   PAD
    0x00000ee0   0x00000ee0   0x000000f8   Code   RO         3169    i.GPIO_Config       gpio_1.o
    0x00000fd8   0x00000fd8   0x00000064   Code   RO         3170    i.GPIO_Handler      gpio_1.o
    0x0000103c   0x0000103c   0x000000b4   Code   RO          210    i.GPIO_INIT         gpio_my.o
    0x000010f0   0x000010f0   0x00000018   Code   RO         3178    i.GPIO_OutClr       gpio_1.o
    0x00001108   0x00001108   0x00000018   Code   RO         3181    i.GPIO_OutSet       gpio_1.o
    0x00001120   0x00001120   0x0000000c   Code   RO          673    i.GetDrawColor      oled_color.o
    0x0000112c   0x0000112c   0x0000000c   Code   RO         1113    i.GetFontSize       oled_font.o
    0x00001138   0x00001138   0x00000060   Code   RO          414    i.GetRotateXY       oled_basic.o
    0x00001198   0x00001198   0x0000000c   Code   RO         1114    i.GetTextBkMode     oled_font.o
    0x000011a4   0x000011a4   0x00000028   Code   RO         1585    i.I2C_FreeCallback  i2c_1.o
    0x000011cc   0x000011cc   0x00000180   Code   RO         1587    i.I2C_Init          i2c_1.o
    0x0000134c   0x0000134c   0x000000e4   Code   RO         1590    i.I2C_MasterRead    i2c_1.o
    0x00001430   0x00001430   0x000000dc   Code   RO         1591    i.I2C_MasterWrite   i2c_1.o
    0x0000150c   0x0000150c   0x00000018   Code   RO         1592    i.I2C_Recover       i2c_1.o
    0x00001524   0x00001524   0x000000f8   Code   RO         1594    i.I2C_Setspeed      i2c_1.o
    0x0000161c   0x0000161c   0x00000078   Code   RO         1595    i.I2C_Shutdown      i2c_1.o
    0x00001694   0x00001694   0x00000040   Code   RO          250    i.IT_init           tim_my.o
    0x000016d4   0x000016d4   0x00000008   Code   RO          415    i.InitGraph         oled_basic.o
    0x000016dc   0x000016dc   0x00000038   Code   RO         1391    i.LED_Init          led.o
    0x00001714   0x00001714   0x00000018   Code   RO         1392    i.LED_Off           led.o
    0x0000172c   0x0000172c   0x0000007a   Code   RO         1153    i.MPU_Get_Accelerometer  mpu6050.o
    0x000017a6   0x000017a6   0x00000078   Code   RO         1156    i.MPU_Init          mpu6050.o
    0x0000181e   0x0000181e   0x00000002   PAD
    0x00001820   0x00001820   0x00000040   Code   RO         1157    i.MPU_Read_Byte     mpu6050.o
    0x00001860   0x00001860   0x00000010   Code   RO         1159    i.MPU_Set_Accel_Fsr  mpu6050.o
    0x00001870   0x00001870   0x00000010   Code   RO         1160    i.MPU_Set_Gyro_Fsr  mpu6050.o
    0x00001880   0x00001880   0x0000003a   Code   RO         1161    i.MPU_Set_LPF       mpu6050.o
    0x000018ba   0x000018ba   0x0000003a   Code   RO         1162    i.MPU_Set_Rate      mpu6050.o
    0x000018f4   0x000018f4   0x00000054   Code   RO         1163    i.MPU_Write_Byte    mpu6050.o
    0x00001948   0x00001948   0x00000004   Code   RO         1321    i.NMI_Handler       board.o
    0x0000194c   0x0000194c   0x00000024   Code   RO         3066    i.NVIC_SetRAM       nvic_table.o
    0x00001970   0x00001970   0x00000044   Code   RO         3067    i.NVIC_SetVector    nvic_table.o
    0x000019b4   0x000019b4   0x00000038   Code   RO         1044    i.OLED_CLS          oled_driver.o
    0x000019ec   0x000019ec   0x00000042   Code   RO         1045    i.OLED_FILL         oled_driver.o
    0x00001a2e   0x00001a2e   0x000000b0   Code   RO         1046    i.OLED_Init         oled_driver.o
    0x00001ade   0x00001ade   0x00000002   PAD
    0x00001ae0   0x00001ae0   0x0000006c   Code   RO         1049    i.OLED_WR_Byte      oled_driver.o
    0x00001b4c   0x00001b4c   0x00000190   Code   RO          757    i.OledPrintf        oled_debug.o
    0x00001cdc   0x00001cdc   0x00000034   Code   RO         1439    i.PB_Init           pb.o
    0x00001d10   0x00001d10   0x00000004   Code   RO         3113    i.PreInit           system_max32660.o
    0x00001d14   0x00001d14   0x000001d0   Code   RO          416    i.Rotate            oled_basic.o
    0x00001ee4   0x00001ee4   0x00000204   Code   RO         1247    i.RoundClock        clock.o
    0x000020e8   0x000020e8   0x00000008   Code   RO         1050    i.SPI_Configuration  oled_driver.o
    0x000020f0   0x000020f0   0x0000002a   Code   RO         2813    i.SYS_ClockDisable  mxc_sys.o
    0x0000211a   0x0000211a   0x0000002a   Code   RO         2815    i.SYS_ClockEnable   mxc_sys.o
    0x00002144   0x00002144   0x00000234   Code   RO         2817    i.SYS_Clock_Select  mxc_sys.o
    0x00002378   0x00002378   0x00000030   Code   RO         2818    i.SYS_Clock_Timeout  mxc_sys.o
    0x000023a8   0x000023a8   0x00000010   Code   RO         2824    i.SYS_I2C_GetFreq   mxc_sys.o
    0x000023b8   0x000023b8   0x0000004c   Code   RO         2825    i.SYS_I2C_Init      mxc_sys.o
    0x00002404   0x00002404   0x00000074   Code   RO         2826    i.SYS_I2C_Shutdown  mxc_sys.o
    0x00002478   0x00002478   0x0000005c   Code   RO         2843    i.SYS_TMR_Init      mxc_sys.o
    0x000024d4   0x000024d4   0x0000009c   Code   RO         2845    i.SYS_UART_Init     mxc_sys.o
    0x00002570   0x00002570   0x0000002c   Code   RO         2846    i.SYS_UART_Shutdown  mxc_sys.o
    0x0000259c   0x0000259c   0x0000000c   Code   RO          417    i.SetAnggleDir      oled_basic.o
    0x000025a8   0x000025a8   0x0000007c   Code   RO          418    i.SetAngle          oled_basic.o
    0x00002624   0x00002624   0x0000000c   Code   RO         1115    i.SetFontSize       oled_font.o
    0x00002630   0x00002630   0x00000108   Code   RO          587    i.SetPointBuffer    oled_buffer.o
    0x00002738   0x00002738   0x0000000c   Code   RO          419    i.SetRotateCenter   oled_basic.o
    0x00002744   0x00002744   0x0000002c   Code   RO          420    i.SetRotateValue    oled_basic.o
    0x00002770   0x00002770   0x00000008   Code   RO         2697    i.SysTick_Handler   mxc_delay.o
    0x00002778   0x00002778   0x00000064   Code   RO         3114    i.SystemCoreClockUpdate  system_max32660.o
    0x000027dc   0x000027dc   0x000000ac   Code   RO         3115    i.SystemInit        system_max32660.o
    0x00002888   0x00002888   0x0000002a   Code   RO         3405    i.TMR_Config        tmr.o
    0x000028b2   0x000028b2   0x0000000a   Code   RO         3406    i.TMR_Disable       tmr.o
    0x000028bc   0x000028bc   0x0000000a   Code   RO         3407    i.TMR_Enable        tmr.o
    0x000028c6   0x000028c6   0x0000002a   Code   RO         3413    i.TMR_Init          tmr.o
    0x000028f0   0x000028f0   0x00000006   Code   RO         3414    i.TMR_IntClear      tmr.o
    0x000028f6   0x000028f6   0x00000002   PAD
    0x000028f8   0x000028f8   0x00000154   Code   RO          338    i.UART1A_init       uart_my.o
    0x00002a4c   0x00002a4c   0x00000024   Code   RO          339    i.UART1_IRQHandler  uart_my.o
    0x00002a70   0x00002a70   0x00000068   Code   RO         2019    i.UART_Handler      uart.o
    0x00002ad8   0x00002ad8   0x000000dc   Code   RO         2020    i.UART_Init         uart.o
    0x00002bb4   0x00002bb4   0x0000000a   Code   RO         2021    i.UART_NumReadAvail  uart.o
    0x00002bbe   0x00002bbe   0x0000000e   Code   RO         2022    i.UART_NumWriteAvail  uart.o
    0x00002bcc   0x00002bcc   0x000000a4   Code   RO         2025    i.UART_ReadAsync    uart.o
    0x00002c70   0x00002c70   0x000000d0   Code   RO         2027    i.UART_ReadHandler  uart.o
    0x00002d40   0x00002d40   0x000000b8   Code   RO         2028    i.UART_Shutdown     uart.o
    0x00002df8   0x00002df8   0x00000010   Code   RO         2031    i.UART_WriteByte    uart.o
    0x00002e08   0x00002e08   0x00000088   Code   RO         2032    i.UART_WriteHandler  uart.o
    0x00002e90   0x00002e90   0x00000008   Code   RO          421    i.UpdateScreen      oled_basic.o
    0x00002e98   0x00002e98   0x00000010   Code   RO          711    i.UpdateScreenBuffer  oled_config.o
    0x00002ea8   0x00002ea8   0x00000008   Code   RO          591    i.UpdateScreenDisplay  oled_buffer.o
    0x00002eb0   0x00002eb0   0x00000028   Code   RO          592    i.WriteByteBuffer   oled_buffer.o
    0x00002ed8   0x00002ed8   0x0000000e   Code   RO         1051    i.WriteCmd          oled_driver.o
    0x00002ee6   0x00002ee6   0x0000000e   Code   RO         1052    i.WriteDat          oled_driver.o
    0x00002ef4   0x00002ef4   0x00000020   Code   RO         3777    i.__0printf$5       mc_w.l(printf5.o)
    0x00002f14   0x00002f14   0x00000030   Code   RO         4009    i.__ARM_fpclassify  m_wm.l(fpclassify.o)
    0x00002f44   0x00002f44   0x0000001a   Code   RO          251    i.__NVIC_EnableIRQ  tim_my.o
    0x00002f5e   0x00002f5e   0x00000002   PAD
    0x00002f60   0x00002f60   0x00000028   Code   RO          252    i.__NVIC_SetPriority  tim_my.o
    0x00002f88   0x00002f88   0x000002d8   Code   RO         3919    i.__hardfp_atan     m_wm.l(atan.o)
    0x00003260   0x00003260   0x000001f0   Code   RO         3594    i.__hardfp_atan2    m_wm.l(atan2.o)
    0x00003450   0x00003450   0x000000c8   Code   RO         3606    i.__hardfp_cos      m_wm.l(cos.o)
    0x00003518   0x00003518   0x000000c8   Code   RO         3618    i.__hardfp_sin      m_wm.l(sin.o)
    0x000035e0   0x000035e0   0x00000438   Code   RO         3957    i.__ieee754_rem_pio2  m_wm.l(rred.o)
    0x00003a18   0x00003a18   0x00000170   Code   RO         3933    i.__kernel_cos      m_wm.l(cos_i.o)
    0x00003b88   0x00003b88   0x000000f8   Code   RO         4011    i.__kernel_poly     m_wm.l(poly.o)
    0x00003c80   0x00003c80   0x00000130   Code   RO         3962    i.__kernel_sin      m_wm.l(sin_i.o)
    0x00003db0   0x00003db0   0x00000014   Code   RO         3937    i.__mathlib_dbl_infnan  m_wm.l(dunder.o)
    0x00003dc4   0x00003dc4   0x00000014   Code   RO         3938    i.__mathlib_dbl_infnan2  m_wm.l(dunder.o)
    0x00003dd8   0x00003dd8   0x00000020   Code   RO         3939    i.__mathlib_dbl_invalid  m_wm.l(dunder.o)
    0x00003df8   0x00003df8   0x00000020   Code   RO         3942    i.__mathlib_dbl_underflow  m_wm.l(dunder.o)
    0x00003e18   0x00003e18   0x0000000e   Code   RO         4017    i.__scatterload_copy  mc_w.l(handlers.o)
    0x00003e26   0x00003e26   0x00000002   Code   RO         4018    i.__scatterload_null  mc_w.l(handlers.o)
    0x00003e28   0x00003e28   0x0000000e   Code   RO         4019    i.__scatterload_zeroinit  mc_w.l(handlers.o)
    0x00003e36   0x00003e36   0x00000002   PAD
    0x00003e38   0x00003e38   0x0000000c   Code   RO         3993    i.__set_errno       mc_w.l(errno.o)
    0x00003e44   0x00003e44   0x000002c0   Code   RO         3784    i._printf_core      mc_w.l(printf5.o)
    0x00004104   0x00004104   0x00000010   Code   RO         3921    i.atan              m_wm.l(atan.o)
    0x00004114   0x00004114   0x000000b8   Code   RO         1284    i.detect_step       tracer_api.o
    0x000041cc   0x000041cc   0x00000018   Code   RO         3952    i.fabs              m_wm.l(fabs.o)
    0x000041e4   0x000041e4   0x000000d4   Code   RO          253    i.filter_acc        tim_my.o
    0x000042b8   0x000042b8   0x0000002c   Code   RO         1513    i.fputc             stdio.o
    0x000042e4   0x000042e4   0x0000009c   Code   RO          254    i.fresh_g           tim_my.o
    0x00004380   0x00004380   0x00000074   Code   RO          340    i.fresh_s_time      uart_my.o
    0x000043f4   0x000043f4   0x000000ae   Code   RO         1285    i.is_most_active    tracer_api.o
    0x000044a2   0x000044a2   0x00000014   Code   RO          760    i.m_pow             oled_debug.o
    0x000044b6   0x000044b6   0x00000002   PAD
    0x000044b8   0x000044b8   0x0000006c   Code   RO          761    i.m_putchar         oled_debug.o
    0x00004524   0x00004524   0x00000016   Code   RO          762    i.m_putstr          oled_debug.o
    0x0000453a   0x0000453a   0x00000002   PAD
    0x0000453c   0x0000453c   0x0000007c   Code   RO            4    i.main              main.o
    0x000045b8   0x000045b8   0x00000080   Code   RO         2698    i.mxc_delay         mxc_delay.o
    0x00004638   0x00004638   0x00000054   Code   RO         2699    i.mxc_delay_check   mxc_delay.o
    0x0000468c   0x0000468c   0x00000058   Code   RO         2700    i.mxc_delay_handler  mxc_delay.o
    0x000046e4   0x000046e4   0x000000b4   Code   RO         2701    i.mxc_delay_init    mxc_delay.o
    0x00004798   0x00004798   0x0000004c   Code   RO         2702    i.mxc_delay_start   mxc_delay.o
    0x000047e4   0x000047e4   0x0000001c   Code   RO         2703    i.mxc_delay_stop    mxc_delay.o
    0x00004800   0x00004800   0x00000016   Code   RO         2758    i.mxc_free_lock     mxc_lock.o
    0x00004816   0x00004816   0x0000002c   Code   RO         2759    i.mxc_get_lock      mxc_lock.o
    0x00004842   0x00004842   0x00000002   PAD
    0x00004844   0x00004844   0x00000060   Code   RO          423    i.mySqrt            oled_basic.o
    0x000048a4   0x000048a4   0x00000016   Code   RO          424    i.oled_pow          oled_basic.o
    0x000048ba   0x000048ba   0x00000002   PAD
    0x000048bc   0x000048bc   0x00000118   Code   RO          255    i.peak_caculate     tim_my.o
    0x000049d4   0x000049d4   0x00000006   Code   RO          425    i.pgm_read_byte     oled_basic.o
    0x000049da   0x000049da   0x00000002   PAD
    0x000049dc   0x000049dc   0x00000084   Code   RO          342    i.read_cb           uart_my.o
    0x00004a60   0x00004a60   0x000000ce   Code   RO         1286    i.slid_update       tracer_api.o
    0x00004b2e   0x00004b2e   0x00000002   PAD
    0x00004b30   0x00004b30   0x0000000c   Code   RO          343    i.write_cb          uart_my.o
    0x00004b3c   0x00004b3c   0x00000004   Data   RO            5    .constdata          main.o
    0x00004b40   0x00004b40   0x00000002   Data   RO          345    .constdata          uart_my.o
    0x00004b42   0x00004b42   0x00000b9a   Data   RO         1117    .constdata          oled_font.o
    0x000056dc   0x000056dc   0x00000032   Data   RO         1323    .constdata          board.o
    0x0000570e   0x0000570e   0x00000002   PAD
    0x00005710   0x00005710   0x000000c0   Data   RO         2788    .constdata          mxc_pins.o
    0x000057d0   0x000057d0   0x00000098   Data   RO         3922    .constdata          m_wm.l(atan.o)
    0x00005868   0x00005868   0x00000030   Data   RO         3934    .constdata          m_wm.l(cos_i.o)
    0x00005898   0x00005898   0x00000008   Data   RO         3956    .constdata          m_wm.l(qnan.o)
    0x000058a0   0x000058a0   0x000000c8   Data   RO         3959    .constdata          m_wm.l(rred.o)
    0x00005968   0x00005968   0x00000028   Data   RO         3963    .constdata          m_wm.l(sin_i.o)
    0x00005990   0x00005990   0x00000020   Data   RO         4015    Region$$Table       anon$$obj.o


    Execution Region RW_IRAM1 (Exec base: 0x20000000, Load base: 0x000059b0, Size: 0x00001d90, Max: 0x00018000, ABSOLUTE)

    Exec Addr    Load Addr    Size         Type   Attr      Idx    E Section Name        Object

    0x20000000   0x000059b0   0x00000008   Data   RW            6    .data               main.o
    0x20000008   0x000059b8   0x00000028   Data   RW          257    .data               tim_my.o
    0x20000030   0x000059e0   0x00000014   Data   RW          346    .data               uart_my.o
    0x20000044   0x000059f4   0x00000018   Data   RW          427    .data               oled_basic.o
    0x2000005c   0x00005a0c   0x00000001   Data   RW          594    .data               oled_buffer.o
    0x2000005d   0x00005a0d   0x00000002   Data   RW          677    .data               oled_color.o
    0x2000005f   0x00005a0f   0x00000001   PAD
    0x20000060   0x00005a10   0x00000009   Data   RW          763    .data               oled_debug.o
    0x20000069   0x00005a19   0x00000002   Data   RW         1118    .data               oled_font.o
    0x2000006b   0x00005a1b   0x00000001   PAD
    0x2000006c   0x00005a1c   0x00000014   Data   RW         1250    .data               clock.o
    0x20000080   0x00005a30   0x00000004   Data   RW         1287    .data               tracer_api.o
    0x20000084   0x00005a34   0x00000004   Data   RW         1324    .data               board.o
    0x20000088   0x00005a38   0x00000010   Data   RW         1514    .data               stdio.o
    0x20000098   0x00005a48   0x00000010   Data   RW         2035    .data               uart.o
    0x200000a8   0x00005a58   0x0000001c   Data   RW         2704    .data               mxc_delay.o
    0x200000c4   0x00005a74   0x00000004   Data   RW         3116    .data               system_max32660.o
    0x200000c8   0x00005a78   0x00000004   Data   RW         3994    .data               mc_w.l(errno.o)
    0x200000cc        -       0x0000003c   Zero   RW          212    .bss                gpio_my.o
    0x20000108        -       0x00000254   Zero   RW          256    .bss                tim_my.o
    0x2000035c        -       0x00000054   Zero   RW          344    .bss                uart_my.o
    0x200003b0        -       0x00000800   Zero   RW          593    .bss                oled_buffer.o
    0x20000bb0        -       0x00000010   Zero   RW         1599    .bss                i2c_1.o
    0x20000bc0   0x00005a7c   0x00000040   PAD
    0x20000c00        -       0x0000011c   Zero   RW         3068    .bss                nvic_table.o
    0x20000d1c        -       0x00000070   Zero   RW         3184    .bss                gpio_1.o
    0x20000d8c   0x00005a7c   0x00000004   PAD
    0x20000d90        -       0x00001000   Zero   RW         3101    STACK               startup_max32660.o


==============================================================================

Image component sizes


      Code (inc. data)   RO Data    RW Data    ZI Data      Debug   Object Name

       144         24         50          4          0       3522   board.o
       516         18          0         20          0       1284   clock.o
       396         36          0          0        112       3585   gpio_1.o
       180         22          0          0         60        957   gpio_my.o
      1264         48          0          0         16       7913   i2c_1.o
        80         12          0          0          0       1273   led.o
       124         64          4          8          0     143900   main.o
       538         38          0          0          0       5088   mpu6050.o
       592         74          0         28          0       5387   mxc_delay.o
        66          0          0          0          0       1835   mxc_lock.o
         0          0        192          0          0       1446   mxc_pins.o
      1196        110          0          0          0      12531   mxc_sys.o
       104         22          0          0        284       2258   nvic_table.o
       902         56          0         24          0       8351   oled_basic.o
       336         32          0          1       2048       3367   oled_buffer.o
        12          6          0          2          0        671   oled_color.o
        28          6          0          0          0       1006   oled_config.o
       550         20          0          9          0       3508   oled_debug.o
      1180         10          0          0          0       6509   oled_draw.o
       442         18          0          0          0       4116   oled_driver.o
        36         18       2970          2          0       2489   oled_font.o
        62         10          0          0          0      31064   pb.o
        40          8        284          0       4096        812   startup_max32660.o
        44          4          0         16          0       3052   stdio.o
       288         36          0          4          0       2502   system_max32660.o
      1234        200          0         40        596      37101   tim_my.o
       110          0          0          0          0       3702   tmr.o
       564          6          0          4          0       3599   tracer_api.o
      1056         84          0         16          0       8778   uart.o
       636        164          2         20         84      33875   uart_my.o

    ----------------------------------------------------------------------
     12744       1146       3536        200       7364     345481   Object Totals
         0          0         32          0          0          0   (incl. Generated)
        24          0          2          2         68          0   (incl. Padding)

    ----------------------------------------------------------------------

      Code (inc. data)   RO Data    RW Data    ZI Data      Debug   Library Member Name

       744        106        152          0          0        352   atan.o
       496         64          0          0          0        192   atan2.o
       200         20          0          0          0        164   cos.o
       368         46         48          0          0        200   cos_i.o
       104         16          0          0          0        496   dunder.o
        24          0          0          0          0        124   fabs.o
        48          0          0          0          0        124   fpclassify.o
       248          0          0          0          0        152   poly.o
         0          0          8          0          0          0   qnan.o
      1080        142        200          0          0        188   rred.o
       200         20          0          0          0        164   sin.o
       304         24         40          0          0        208   sin_i.o
         0          0          0          0          0          0   entry.o
         0          0          0          0          0          0   entry10a.o
         0          0          0          0          0          0   entry11a.o
         8          4          0          0          0          0   entry2.o
         4          0          0          0          0          0   entry5.o
         0          0          0          0          0          0   entry7b.o
         0          0          0          0          0          0   entry8b.o
         8          4          0          0          0          0   entry9a.o
        12          6          0          4          0         68   errno.o
        30          0          0          0          0          0   handlers.o
        36          8          0          0          0         68   init.o
         0          0          0          0          0          0   iusefp.o
        30          0          0          0          0         68   llshl.o
        36          0          0          0          0         68   llsshr.o
        32          0          0          0          0         68   llushr.o
        36          0          0          0          0         68   memcpya.o
        36          0          0          0          0        108   memseta.o
       736         56          0          0          0        184   printf5.o
        14          0          0          0          0         68   strlen.o
        98          0          0          0          0         92   uldiv.o
        56          0          0          0          0         88   d2f.o
       334          0          0          0          0        148   dadd.o
       222          0          0          0          0        100   ddiv.o
       186          0          0          0          0        176   depilogue.o
        62          0          0          0          0         80   dfixi.o
        34          0          0          0          0         76   dflti.o
        26          0          0          0          0         76   dfltui.o
       228          0          0          0          0         96   dmul.o
        38          0          0          0          0         68   f2d.o
       110          0          0          0          0        168   fepilogue.o

    ----------------------------------------------------------------------
      6232        516        448          4          0       4300   Library Totals
         4          0          0          0          0          0   (incl. Padding)

    ----------------------------------------------------------------------

      Code (inc. data)   RO Data    RW Data    ZI Data      Debug   Library Name

      3816        438        448          0          0       2364   m_wm.l
      1116         78          0          4          0        860   mc_w.l
      1296          0          0          0          0       1076   mf_w.l

    ----------------------------------------------------------------------
      6232        516        448          4          0       4300   Library Totals

    ----------------------------------------------------------------------

==============================================================================


      Code (inc. data)   RO Data    RW Data    ZI Data      Debug   

     18976       1662       3984        204       7364     335449   Grand Totals
     18976       1662       3984        204       7364     335449   ELF Image Totals
     18976       1662       3984        204          0          0   ROM Totals

==============================================================================

    Total RO  Size (Code + RO Data)                22960 (  22.42kB)
    Total RW  Size (RW Data + ZI Data)              7568 (   7.39kB)
    Total ROM Size (Code + RO Data + RW Data)      23164 (  22.62kB)

==============================================================================

